{
  "contractName": "DreamWear",
  "abi": [
    {
      "inputs": [],
      "stateMutability": "nonpayable",
      "type": "constructor"
    },
    {
      "anonymous": false,
      "inputs": [
        {
          "indexed": true,
          "internalType": "address",
          "name": "_owner",
          "type": "address"
        },
        {
          "indexed": true,
          "internalType": "address",
          "name": "_approved",
          "type": "address"
        },
        {
          "indexed": true,
          "internalType": "uint256",
          "name": "_tokenId",
          "type": "uint256"
        }
      ],
      "name": "Approval",
      "type": "event"
    },
    {
      "anonymous": false,
      "inputs": [
        {
          "indexed": true,
          "internalType": "address",
          "name": "_owner",
          "type": "address"
        },
        {
          "indexed": true,
          "internalType": "address",
          "name": "_operator",
          "type": "address"
        },
        {
          "indexed": false,
          "internalType": "bool",
          "name": "_approved",
          "type": "bool"
        }
      ],
      "name": "ApprovalForAll",
      "type": "event"
    },
    {
      "anonymous": false,
      "inputs": [
        {
          "indexed": true,
          "internalType": "address",
          "name": "_from",
          "type": "address"
        },
        {
          "indexed": true,
          "internalType": "address",
          "name": "_to",
          "type": "address"
        },
        {
          "indexed": true,
          "internalType": "uint256",
          "name": "_tokenId",
          "type": "uint256"
        }
      ],
      "name": "Transfer",
      "type": "event"
    },
    {
      "inputs": [
        {
          "internalType": "address",
          "name": "_to",
          "type": "address"
        },
        {
          "internalType": "uint256",
          "name": "_tokenId",
          "type": "uint256"
        }
      ],
      "name": "approve",
      "outputs": [],
      "stateMutability": "payable",
      "type": "function",
      "payable": true
    },
    {
      "inputs": [
        {
          "internalType": "address",
          "name": "_owner",
          "type": "address"
        }
      ],
      "name": "balanceOf",
      "outputs": [
        {
          "internalType": "uint256",
          "name": "",
          "type": "uint256"
        }
      ],
      "stateMutability": "view",
      "type": "function",
      "constant": true
    },
    {
      "inputs": [
        {
          "internalType": "uint256",
          "name": "_tokenId",
          "type": "uint256"
        }
      ],
      "name": "getApproved",
      "outputs": [
        {
          "internalType": "address",
          "name": "",
          "type": "address"
        }
      ],
      "stateMutability": "view",
      "type": "function",
      "constant": true
    },
    {
      "inputs": [
        {
          "internalType": "address",
          "name": "_owner",
          "type": "address"
        },
        {
          "internalType": "address",
          "name": "_operator",
          "type": "address"
        }
      ],
      "name": "isApprovedForAll",
      "outputs": [
        {
          "internalType": "bool",
          "name": "",
          "type": "bool"
        }
      ],
      "stateMutability": "view",
      "type": "function",
      "constant": true
    },
    {
      "inputs": [],
      "name": "name",
      "outputs": [
        {
          "internalType": "string",
          "name": "",
          "type": "string"
        }
      ],
      "stateMutability": "view",
      "type": "function",
      "constant": true
    },
    {
      "inputs": [
        {
          "internalType": "uint256",
          "name": "_tokenId",
          "type": "uint256"
        }
      ],
      "name": "ownerOf",
      "outputs": [
        {
          "internalType": "address",
          "name": "",
          "type": "address"
        }
      ],
      "stateMutability": "view",
      "type": "function",
      "constant": true
    },
    {
      "inputs": [
        {
          "internalType": "address",
          "name": "_from",
          "type": "address"
        },
        {
          "internalType": "address",
          "name": "_to",
          "type": "address"
        },
        {
          "internalType": "uint256",
          "name": "_tokenId",
          "type": "uint256"
        }
      ],
      "name": "safeTransferFrom",
      "outputs": [],
      "stateMutability": "payable",
      "type": "function",
      "payable": true
    },
    {
      "inputs": [
        {
          "internalType": "address",
          "name": "_from",
          "type": "address"
        },
        {
          "internalType": "address",
          "name": "_to",
          "type": "address"
        },
        {
          "internalType": "uint256",
          "name": "_tokenId",
          "type": "uint256"
        },
        {
          "internalType": "bytes",
          "name": "data",
          "type": "bytes"
        }
      ],
      "name": "safeTransferFrom",
      "outputs": [],
      "stateMutability": "payable",
      "type": "function",
      "payable": true
    },
    {
      "inputs": [
        {
          "internalType": "address",
          "name": "_operator",
          "type": "address"
        },
        {
          "internalType": "bool",
          "name": "_approved",
          "type": "bool"
        }
      ],
      "name": "setApprovalForAll",
      "outputs": [],
      "stateMutability": "nonpayable",
      "type": "function"
    },
    {
      "inputs": [
        {
          "internalType": "bytes4",
          "name": "interfaceId",
          "type": "bytes4"
        }
      ],
      "name": "supportsInterface",
      "outputs": [
        {
          "internalType": "bool",
          "name": "",
          "type": "bool"
        }
      ],
      "stateMutability": "view",
      "type": "function",
      "constant": true
    },
    {
      "inputs": [],
      "name": "symbol",
      "outputs": [
        {
          "internalType": "string",
          "name": "",
          "type": "string"
        }
      ],
      "stateMutability": "view",
      "type": "function",
      "constant": true
    },
    {
      "inputs": [
        {
          "internalType": "uint256",
          "name": "_index",
          "type": "uint256"
        }
      ],
      "name": "tokenByIndex",
      "outputs": [
        {
          "internalType": "uint256",
          "name": "",
          "type": "uint256"
        }
      ],
      "stateMutability": "view",
      "type": "function",
      "constant": true
    },
    {
      "inputs": [
        {
          "internalType": "address",
          "name": "_owner",
          "type": "address"
        },
        {
          "internalType": "uint256",
          "name": "_index",
          "type": "uint256"
        }
      ],
      "name": "tokenOfOwnerByIndex",
      "outputs": [
        {
          "internalType": "uint256",
          "name": "",
          "type": "uint256"
        }
      ],
      "stateMutability": "view",
      "type": "function",
      "constant": true
    },
    {
      "inputs": [
        {
          "internalType": "uint256",
          "name": "_tokenId",
          "type": "uint256"
        }
      ],
      "name": "tokenURI",
      "outputs": [
        {
          "internalType": "string",
          "name": "",
          "type": "string"
        }
      ],
      "stateMutability": "view",
      "type": "function",
      "constant": true
    },
    {
      "inputs": [],
      "name": "totalSupply",
      "outputs": [
        {
          "internalType": "uint256",
          "name": "",
          "type": "uint256"
        }
      ],
      "stateMutability": "view",
      "type": "function",
      "constant": true
    },
    {
      "inputs": [
        {
          "internalType": "address",
          "name": "_from",
          "type": "address"
        },
        {
          "internalType": "address",
          "name": "_to",
          "type": "address"
        },
        {
          "internalType": "uint256",
          "name": "_tokenId",
          "type": "uint256"
        }
      ],
      "name": "transferFrom",
      "outputs": [],
      "stateMutability": "payable",
      "type": "function",
      "payable": true
    },
    {
      "inputs": [
        {
          "internalType": "string",
          "name": "_dream",
          "type": "string"
        }
      ],
      "name": "mint",
      "outputs": [],
      "stateMutability": "nonpayable",
      "type": "function"
    }
  ],
  "bytecode": "0x60806040523480156200001157600080fd5b506040805180820182526009815268223932b0b6abb2b0b960b91b602080830191825283518085019094526002845261445760f01b90840152815191929183918391620000619160009162000082565b5080516200007790600190602084019062000082565b505050505062000165565b828054620000909062000128565b90600052602060002090601f016020900481019282620000b45760008555620000ff565b82601f10620000cf57805160ff1916838001178555620000ff565b82800160010185558215620000ff579182015b82811115620000ff578251825591602001919060010190620000e2565b506200010d92915062000111565b5090565b5b808211156200010d576000815560010162000112565b600181811c908216806200013d57607f821691505b602082108114156200015f57634e487b7160e01b600052602260045260246000fd5b50919050565b61136e80620001756000396000f3fe6080604052600436106100fe5760003560e01c80634f6ccce711610095578063a22cb46511610064578063a22cb46514610281578063b88d4fde146102a0578063c87b56dd146102b4578063d85d3d27146102d5578063e985e9c5146102f557600080fd5b80634f6ccce71461020c5780636352211e1461022c57806370a082311461024c57806395d89b411461026c57600080fd5b806318160ddd116100d157806318160ddd146101a757806323b872dd146101c65780632f745c59146101d957806342842e0e146101f957600080fd5b806301ffc9a71461010357806306fdde0314610138578063081812fc1461015a578063095ea7b314610192575b600080fd5b34801561010f57600080fd5b5061012361011e366004610f33565b610318565b60405190151581526020015b60405180910390f35b34801561014457600080fd5b5061014d610329565b60405161012f9190610f90565b34801561016657600080fd5b5061017a610175366004610fc3565b6103bb565b6040516001600160a01b03909116815260200161012f565b6101a56101a0366004610ff8565b610455565b005b3480156101b357600080fd5b506005545b60405190815260200161012f565b6101a56101d4366004611022565b6105bd565b3480156101e557600080fd5b506101b86101f4366004610ff8565b61082e565b6101a5610207366004611022565b505050565b34801561021857600080fd5b506101b8610227366004610fc3565b6108db565b34801561023857600080fd5b5061017a610247366004610fc3565b61096c565b34801561025857600080fd5b506101b861026736600461105e565b6109e4565b34801561027857600080fd5b5061014d610a7e565b34801561028d57600080fd5b506101a561029c366004611079565b5050565b6101a56102ae366004611141565b50505050565b3480156102c057600080fd5b5061014d6102cf366004610fc3565b50606090565b3480156102e157600080fd5b506101a56102f03660046111bd565b610a8d565b34801561030157600080fd5b50610123610310366004611206565b600092915050565b600061032382610b95565b92915050565b60606000805461033890611239565b80601f016020809104026020016040519081016040528092919081815260200182805461036490611239565b80156103b15780601f10610386576101008083540402835291602001916103b1565b820191906000526020600020905b81548152906001019060200180831161039457829003601f168201915b5050505050905090565b6000818152600260205260408120546001600160a01b03166104395760405162461bcd60e51b815260206004820152602c60248201527f4552433732313a20617070726f76656420717565727920666f72206e6f6e657860448201526b34b9ba32b73a103a37b5b2b760a11b60648201526084015b60405180910390fd5b506000908152600460205260409020546001600160a01b031690565b60006104608261096c565b9050336001600160a01b038216146104e05760405162461bcd60e51b815260206004820152603860248201527f4552433732313a20546865206d6573736167652073656e646572206973206e6f60448201527f7420746865206f776e6572206f662074686520746f6b656e00000000000000006064820152608401610430565b806001600160a01b0316836001600160a01b031614156105615760405162461bcd60e51b815260206004820152603660248201527f4552433732313a2054686520737570706c6965642061646472657373206973206044820152753a34329037bbb732b91037b3103a3432903a37b5b2b760511b6064820152608401610430565b60008281526004602052604080822080546001600160a01b0319166001600160a01b0387811691821790925591518593918516917f8c5be1e5ebec7d5bd14f71427d1e84f3dd0314c0f7b2291e5b200ac8c7c3b92591a4505050565b6105c73382610bba565b61062d5760405162461bcd60e51b815260206004820152603160248201527f4552433732313a207472616e736665722063616c6c6572206973206e6f74206f6044820152701ddb995c881b9bdc88185c1c1c9bdd9959607a1b6064820152608401610430565b6000818152600260205260409020546001600160a01b03166106615760405162461bcd60e51b815260040161043090611274565b61066a8161096c565b6001600160a01b0316836001600160a01b0316146106fa5760405162461bcd60e51b815260206004820152604160248201527f4552433732313a2054686520737570706c696564202766726f6d27206164647260448201527f657373206973206e6f7420746865206f776e6572206f662074686520746f6b656064820152603760f91b608482015260a401610430565b6001600160a01b0382166107765760405162461bcd60e51b815260206004820152603860248201527f4552433732313a2054686520737570706c6965642027746f272061646472657360448201527f73206973206e6f7420612076616c6964206164647265737300000000000000006064820152608401610430565b6001600160a01b038316600090815260036020526040812080546001929061079f9084906112d7565b90915550506001600160a01b03821660009081526003602052604081208054600192906107cd9084906112ee565b909155505060008181526002602052604080822080546001600160a01b0319166001600160a01b0386811691821790925591518493918716917fddf252ad1be2c89b69c2b068fc378daa952ba7f163c4a11628f55a4df523b3ef91a4505050565b6000610839836109e4565b821061089e5760405162461bcd60e51b815260206004820152602e60248201527f455243373231456e756d657261626c653a206f776e657220696e64657820697360448201526d206f7574206f6620626f756e647360901b6064820152608401610430565b6001600160a01b03831660009081526007602052604090208054839081106108c8576108c8611306565b9060005260206000200154905092915050565b60055460009082106109475760405162461bcd60e51b815260206004820152602f60248201527f455243373231456e756d657261626c653a20676c6f62616c20696e646578206960448201526e73206f7574206f6620626f756e647360881b6064820152608401610430565b6005828154811061095a5761095a611306565b90600052602060002001549050919050565b6000818152600260205260408120546001600160a01b0316806103235760405162461bcd60e51b815260206004820152602a60248201527f4552433732313a2054686520737570706c69656420746f6b656e49642069732060448201526903737ba103b30b634b2160b51b6064820152608401610430565b60006001600160a01b038216610a625760405162461bcd60e51b815260206004820152603960248201527f4552433732313a2054686520737570706c696564206f776e657220616464726560448201527f7373206973206e6f7420612076616c69642061646472657373000000000000006064820152608401610430565b506001600160a01b031660009081526003602052604090205490565b60606001805461033890611239565b600a81604051610a9d919061131c565b9081526040519081900360200190205460ff1615610afd5760405162461bcd60e51b815260206004820152601d60248201527f4572726f72202d20447265616d20616c726561647920657869737473210000006044820152606401610430565b600980546001810182556000919091528151610b40917f6e1540171b6c0c960b71a7020d9f60077f6af931a8bbf590da0223dacf75c7af01906020840190610e9a565b50600954600090610b53906001906112d7565b9050610b5f3382610c3c565b6001600a83604051610b71919061131c565b908152604051908190036020019020805491151560ff199092169190911790555050565b60006001600160e01b0319821663780e9d6360e01b1480610323575061032382610ccb565b6000818152600260205260408120546001600160a01b0316610bee5760405162461bcd60e51b815260040161043090611274565b6000610bf98361096c565b9050806001600160a01b0316846001600160a01b03161480610c345750836001600160a01b0316610c29846103bb565b6001600160a01b0316145b949350505050565b610c468282610cf0565b610c8e81600580546000838152600660205260408120829055600182018355919091527f036b6384b5eca791c62761152d0c79bb0604c104a5fb6f4eb0703f3154bb3db00155565b6001600160a01b03919091166000908152600760209081526040808320805460018101825581855283852001859055549383526008909152902055565b60006001600160e01b031982166380ac58cd60e01b1480610323575061032382610e65565b6001600160a01b038216610d625760405162461bcd60e51b815260206004820152603360248201527f4552433732313a2054686520737570706c6965642061646472657373206973206044820152726e6f7420612076616c6964206164647265737360681b6064820152608401610430565b6000818152600260205260409020546001600160a01b031615610ddd5760405162461bcd60e51b815260206004820152602d60248201527f4552433732313a2054686520737570706c6965642027746f6b656e496427206160448201526c6c72656164792065786973747360981b6064820152608401610430565b600081815260026020908152604080832080546001600160a01b0319166001600160a01b038716908117909155835260039091528120805460019290610e249084906112ee565b909155505060405181906001600160a01b038416906000907fddf252ad1be2c89b69c2b068fc378daa952ba7f163c4a11628f55a4df523b3ef908290a45050565b60006001600160e01b03198216635b5e139f60e01b148061032357506301ffc9a760e01b6001600160e01b0319831614610323565b828054610ea690611239565b90600052602060002090601f016020900481019282610ec85760008555610f0e565b82601f10610ee157805160ff1916838001178555610f0e565b82800160010185558215610f0e579182015b82811115610f0e578251825591602001919060010190610ef3565b50610f1a929150610f1e565b5090565b5b80821115610f1a5760008155600101610f1f565b600060208284031215610f4557600080fd5b81356001600160e01b031981168114610f5d57600080fd5b9392505050565b60005b83811015610f7f578181015183820152602001610f67565b838111156102ae5750506000910152565b6020815260008251806020840152610faf816040850160208701610f64565b601f01601f19169190910160400192915050565b600060208284031215610fd557600080fd5b5035919050565b80356001600160a01b0381168114610ff357600080fd5b919050565b6000806040838503121561100b57600080fd5b61101483610fdc565b946020939093013593505050565b60008060006060848603121561103757600080fd5b61104084610fdc565b925061104e60208501610fdc565b9150604084013590509250925092565b60006020828403121561107057600080fd5b610f5d82610fdc565b6000806040838503121561108c57600080fd5b61109583610fdc565b9150602083013580151581146110aa57600080fd5b809150509250929050565b634e487b7160e01b600052604160045260246000fd5b600067ffffffffffffffff808411156110e6576110e66110b5565b604051601f8501601f19908116603f0116810190828211818310171561110e5761110e6110b5565b8160405280935085815286868601111561112757600080fd5b858560208301376000602087830101525050509392505050565b6000806000806080858703121561115757600080fd5b61116085610fdc565b935061116e60208601610fdc565b925060408501359150606085013567ffffffffffffffff81111561119157600080fd5b8501601f810187136111a257600080fd5b6111b1878235602084016110cb565b91505092959194509250565b6000602082840312156111cf57600080fd5b813567ffffffffffffffff8111156111e657600080fd5b8201601f810184136111f757600080fd5b610c34848235602084016110cb565b6000806040838503121561121957600080fd5b61122283610fdc565b915061123060208401610fdc565b90509250929050565b600181811c9082168061124d57607f821691505b6020821081141561126e57634e487b7160e01b600052602260045260246000fd5b50919050565b6020808252602d908201527f4552433732313a2054686520737570706c6965642027746f6b656e496427206460408201526c1bd95cc81b9bdd08195e1a5cdd609a1b606082015260800190565b634e487b7160e01b600052601160045260246000fd5b6000828210156112e9576112e96112c1565b500390565b60008219821115611301576113016112c1565b500190565b634e487b7160e01b600052603260045260246000fd5b6000825161132e818460208701610f64565b919091019291505056fea2646970667358221220605b8b6015ca478a7e163c75c1169d5d74705d09d203a1ab6fce19653908c22664736f6c634300080b0033",
  "immutableReferences": {},
  "source": "// SPDX-License-Identifier: MIT\npragma solidity ^0.8.0;\n\nimport \"./ERC721Connector.sol\";\n\ncontract DreamWear is ERC721Connector {\n    string[] private dreams;\n\n    mapping(string => bool) private _dreamExists;\n\n    function mint(string memory _dream) public {\n        require(!_dreamExists[_dream], \"Error - Dream already exists!\");\n\n        dreams.push(_dream);\n        uint256 _id = dreams.length - 1;\n\n        _mint(msg.sender, _id);\n\n        _dreamExists[_dream] = true;\n    }\n\n    constructor() ERC721Connector(\"DreamWear\", \"DW\") {}\n}\n",
  "sourcePath": "/Users/ghaieth/0.Dreamwear/dreamwear.github.io/ethereum/src/contracts/DreamWear.sol",
  "compiler": {
    "name": "solc",
    "version": "0.8.11+commit.d7f03943.Emscripten.clang"
  },
  "schemaVersion": "3.4.4",
  "updatedAt": "2022-02-15T16:27:37.987Z",
  "networkType": "ethereum",
  "devdoc": {
    "kind": "dev",
    "methods": {},
    "version": 1
  },
  "userdoc": {
    "kind": "user",
    "methods": {},
    "version": 1
  }
}