{
  "contractName": "DreamWear",
  "abi": [
    {
      "inputs": [],
      "stateMutability": "nonpayable",
      "type": "constructor"
    },
    {
      "anonymous": false,
      "inputs": [
        {
          "indexed": true,
          "internalType": "address",
          "name": "_owner",
          "type": "address"
        },
        {
          "indexed": true,
          "internalType": "address",
          "name": "_approved",
          "type": "address"
        },
        {
          "indexed": true,
          "internalType": "uint256",
          "name": "_tokenId",
          "type": "uint256"
        }
      ],
      "name": "Approval",
      "type": "event"
    },
    {
      "anonymous": false,
      "inputs": [
        {
          "indexed": true,
          "internalType": "address",
          "name": "_owner",
          "type": "address"
        },
        {
          "indexed": true,
          "internalType": "address",
          "name": "_operator",
          "type": "address"
        },
        {
          "indexed": false,
          "internalType": "bool",
          "name": "_approved",
          "type": "bool"
        }
      ],
      "name": "ApprovalForAll",
      "type": "event"
    },
    {
      "anonymous": false,
      "inputs": [
        {
          "indexed": true,
          "internalType": "address",
          "name": "_from",
          "type": "address"
        },
        {
          "indexed": true,
          "internalType": "address",
          "name": "_to",
          "type": "address"
        },
        {
          "indexed": true,
          "internalType": "uint256",
          "name": "_tokenId",
          "type": "uint256"
        }
      ],
      "name": "Transfer",
      "type": "event"
    },
    {
      "inputs": [
        {
          "internalType": "address",
          "name": "_to",
          "type": "address"
        },
        {
          "internalType": "uint256",
          "name": "_tokenId",
          "type": "uint256"
        }
      ],
      "name": "approve",
      "outputs": [],
      "stateMutability": "payable",
      "type": "function",
      "payable": true
    },
    {
      "inputs": [
        {
          "internalType": "address",
          "name": "_owner",
          "type": "address"
        }
      ],
      "name": "balanceOf",
      "outputs": [
        {
          "internalType": "uint256",
          "name": "",
          "type": "uint256"
        }
      ],
      "stateMutability": "view",
      "type": "function",
      "constant": true
    },
    {
      "inputs": [
        {
          "internalType": "uint256",
          "name": "_tokenId",
          "type": "uint256"
        }
      ],
      "name": "getApproved",
      "outputs": [
        {
          "internalType": "address",
          "name": "",
          "type": "address"
        }
      ],
      "stateMutability": "view",
      "type": "function",
      "constant": true
    },
    {
      "inputs": [],
      "name": "name",
      "outputs": [
        {
          "internalType": "string",
          "name": "",
          "type": "string"
        }
      ],
      "stateMutability": "view",
      "type": "function",
      "constant": true
    },
    {
      "inputs": [
        {
          "internalType": "uint256",
          "name": "_tokenId",
          "type": "uint256"
        }
      ],
      "name": "ownerOf",
      "outputs": [
        {
          "internalType": "address",
          "name": "",
          "type": "address"
        }
      ],
      "stateMutability": "view",
      "type": "function",
      "constant": true
    },
    {
      "inputs": [
        {
          "internalType": "bytes4",
          "name": "interfaceID",
          "type": "bytes4"
        }
      ],
      "name": "supportsInterface",
      "outputs": [
        {
          "internalType": "bool",
          "name": "",
          "type": "bool"
        }
      ],
      "stateMutability": "view",
      "type": "function",
      "constant": true
    },
    {
      "inputs": [],
      "name": "symbol",
      "outputs": [
        {
          "internalType": "string",
          "name": "",
          "type": "string"
        }
      ],
      "stateMutability": "view",
      "type": "function",
      "constant": true
    },
    {
      "inputs": [
        {
          "internalType": "uint256",
          "name": "_index",
          "type": "uint256"
        }
      ],
      "name": "tokenByIndex",
      "outputs": [
        {
          "internalType": "uint256",
          "name": "",
          "type": "uint256"
        }
      ],
      "stateMutability": "view",
      "type": "function",
      "constant": true
    },
    {
      "inputs": [
        {
          "internalType": "address",
          "name": "_owner",
          "type": "address"
        },
        {
          "internalType": "uint256",
          "name": "_index",
          "type": "uint256"
        }
      ],
      "name": "tokenOfOwnerByIndex",
      "outputs": [
        {
          "internalType": "uint256",
          "name": "",
          "type": "uint256"
        }
      ],
      "stateMutability": "view",
      "type": "function",
      "constant": true
    },
    {
      "inputs": [],
      "name": "totalSupply",
      "outputs": [
        {
          "internalType": "uint256",
          "name": "",
          "type": "uint256"
        }
      ],
      "stateMutability": "view",
      "type": "function",
      "constant": true
    },
    {
      "inputs": [
        {
          "internalType": "address",
          "name": "_from",
          "type": "address"
        },
        {
          "internalType": "address",
          "name": "_to",
          "type": "address"
        },
        {
          "internalType": "uint256",
          "name": "_tokenId",
          "type": "uint256"
        }
      ],
      "name": "transferFrom",
      "outputs": [],
      "stateMutability": "payable",
      "type": "function",
      "payable": true
    },
    {
      "inputs": [
        {
          "internalType": "string",
          "name": "_dream",
          "type": "string"
        }
      ],
      "name": "mint",
      "outputs": [],
      "stateMutability": "nonpayable",
      "type": "function"
    }
  ],
  "bytecode": "0x60806040523480156200001157600080fd5b506040805180820182526009815268223932b0b6abb2b0b960b91b602080830191825283518085019094526002845261445760f01b90840152815191929183918391620000619160009162000137565b5080516200007790600190602084019062000137565b505050620000ab7f01ffc9a7a5cef8baa21ed3c5c0d7e23accb804b619e9333b597f47a0d84076e2620000b360201b60201c565b50506200021a565b6001600160e01b03198082161415620001125760405162461bcd60e51b815260206004820152601960248201527f4552433136353a20696e76616c696420696e7465726661636500000000000000604482015260640160405180910390fd5b6001600160e01b0319166000908152600260205260409020805460ff19166001179055565b8280546200014590620001dd565b90600052602060002090601f016020900481019282620001695760008555620001b4565b82601f106200018457805160ff1916838001178555620001b4565b82800160010185558215620001b4579182015b82811115620001b457825182559160200191906001019062000197565b50620001c2929150620001c6565b5090565b5b80821115620001c25760008155600101620001c7565b600181811c90821680620001f257607f821691505b602082108114156200021457634e487b7160e01b600052602260045260246000fd5b50919050565b611128806200022a6000396000f3fe6080604052600436106100a75760003560e01c80632f745c59116100645780632f745c591461019c5780634f6ccce7146101bc5780636352211e146101dc57806370a08231146101fc57806395d89b411461021c578063d85d3d271461023157600080fd5b806301ffc9a7146100ac57806306fdde03146100fb578063081812fc1461011d578063095ea7b31461015557806318160ddd1461016a57806323b872dd14610189575b600080fd5b3480156100b857600080fd5b506100e66100c7366004610de2565b6001600160e01b03191660009081526002602052604090205460ff1690565b60405190151581526020015b60405180910390f35b34801561010757600080fd5b50610110610251565b6040516100f29190610e43565b34801561012957600080fd5b5061013d610138366004610e76565b6102e3565b6040516001600160a01b0390911681526020016100f2565b610168610163366004610eab565b61037d565b005b34801561017657600080fd5b506006545b6040519081526020016100f2565b610168610197366004610ed5565b6104e5565b3480156101a857600080fd5b5061017b6101b7366004610eab565b610756565b3480156101c857600080fd5b5061017b6101d7366004610e76565b610803565b3480156101e857600080fd5b5061013d6101f7366004610e76565b610894565b34801561020857600080fd5b5061017b610217366004610f11565b610912565b34801561022857600080fd5b506101106109ac565b34801561023d57600080fd5b5061016861024c366004610f42565b6109bb565b60606000805461026090610ff3565b80601f016020809104026020016040519081016040528092919081815260200182805461028c90610ff3565b80156102d95780601f106102ae576101008083540402835291602001916102d9565b820191906000526020600020905b8154815290600101906020018083116102bc57829003601f168201915b5050505050905090565b6000818152600360205260408120546001600160a01b03166103615760405162461bcd60e51b815260206004820152602c60248201527f4552433732313a20617070726f76656420717565727920666f72206e6f6e657860448201526b34b9ba32b73a103a37b5b2b760a11b60648201526084015b60405180910390fd5b506000908152600560205260409020546001600160a01b031690565b600061038882610894565b9050336001600160a01b038216146104085760405162461bcd60e51b815260206004820152603860248201527f4552433732313a20546865206d6573736167652073656e646572206973206e6f60448201527f7420746865206f776e6572206f662074686520746f6b656e00000000000000006064820152608401610358565b806001600160a01b0316836001600160a01b031614156104895760405162461bcd60e51b815260206004820152603660248201527f4552433732313a2054686520737570706c6965642061646472657373206973206044820152753a34329037bbb732b91037b3103a3432903a37b5b2b760511b6064820152608401610358565b60008281526005602052604080822080546001600160a01b0319166001600160a01b0387811691821790925591518593918516917f8c5be1e5ebec7d5bd14f71427d1e84f3dd0314c0f7b2291e5b200ac8c7c3b92591a4505050565b6104ef3382610ac3565b6105555760405162461bcd60e51b815260206004820152603160248201527f4552433732313a207472616e736665722063616c6c6572206973206e6f74206f6044820152701ddb995c881b9bdc88185c1c1c9bdd9959607a1b6064820152608401610358565b6000818152600360205260409020546001600160a01b03166105895760405162461bcd60e51b81526004016103589061102e565b61059281610894565b6001600160a01b0316836001600160a01b0316146106225760405162461bcd60e51b815260206004820152604160248201527f4552433732313a2054686520737570706c696564202766726f6d27206164647260448201527f657373206973206e6f7420746865206f776e6572206f662074686520746f6b656064820152603760f91b608482015260a401610358565b6001600160a01b03821661069e5760405162461bcd60e51b815260206004820152603860248201527f4552433732313a2054686520737570706c6965642027746f272061646472657360448201527f73206973206e6f7420612076616c6964206164647265737300000000000000006064820152608401610358565b6001600160a01b03831660009081526004602052604081208054600192906106c7908490611091565b90915550506001600160a01b03821660009081526004602052604081208054600192906106f59084906110a8565b909155505060008181526003602052604080822080546001600160a01b0319166001600160a01b0386811691821790925591518493918716917fddf252ad1be2c89b69c2b068fc378daa952ba7f163c4a11628f55a4df523b3ef91a4505050565b600061076183610912565b82106107c65760405162461bcd60e51b815260206004820152602e60248201527f455243373231456e756d657261626c653a206f776e657220696e64657820697360448201526d206f7574206f6620626f756e647360901b6064820152608401610358565b6001600160a01b03831660009081526008602052604090208054839081106107f0576107f06110c0565b9060005260206000200154905092915050565b600654600090821061086f5760405162461bcd60e51b815260206004820152602f60248201527f455243373231456e756d657261626c653a20676c6f62616c20696e646578206960448201526e73206f7574206f6620626f756e647360881b6064820152608401610358565b60068281548110610882576108826110c0565b90600052602060002001549050919050565b6000818152600360205260408120546001600160a01b03168061090c5760405162461bcd60e51b815260206004820152602a60248201527f4552433732313a2054686520737570706c69656420746f6b656e49642069732060448201526903737ba103b30b634b2160b51b6064820152608401610358565b92915050565b60006001600160a01b0382166109905760405162461bcd60e51b815260206004820152603960248201527f4552433732313a2054686520737570706c696564206f776e657220616464726560448201527f7373206973206e6f7420612076616c69642061646472657373000000000000006064820152608401610358565b506001600160a01b031660009081526004602052604090205490565b60606001805461026090610ff3565b600b816040516109cb91906110d6565b9081526040519081900360200190205460ff1615610a2b5760405162461bcd60e51b815260206004820152601d60248201527f4572726f72202d20447265616d20616c726561647920657869737473210000006044820152606401610358565b600a80546001810182556000919091528151610a6e917fc65a7bb8d6351c1cf70c95a316cc6a92839c986682d98bc35f958f4883f9d2a801906020840190610d49565b50600a54600090610a8190600190611091565b9050610a8d3382610b45565b6001600b83604051610a9f91906110d6565b908152604051908190036020019020805491151560ff199092169190911790555050565b6000818152600360205260408120546001600160a01b0316610af75760405162461bcd60e51b81526004016103589061102e565b6000610b0283610894565b9050806001600160a01b0316846001600160a01b03161480610b3d5750836001600160a01b0316610b32846102e3565b6001600160a01b0316145b949350505050565b610b4f8282610bd4565b610b9781600680546000838152600760205260408120829055600182018355919091527ff652222313e28459528d920b65115c16c04f3efc82aaedc97be59f3f377c0d3f0155565b6001600160a01b03919091166000908152600860209081526040808320805460018101825581855283852001859055549383526009909152902055565b6001600160a01b038216610c465760405162461bcd60e51b815260206004820152603360248201527f4552433732313a2054686520737570706c6965642061646472657373206973206044820152726e6f7420612076616c6964206164647265737360681b6064820152608401610358565b6000818152600360205260409020546001600160a01b031615610cc15760405162461bcd60e51b815260206004820152602d60248201527f4552433732313a2054686520737570706c6965642027746f6b656e496427206160448201526c6c72656164792065786973747360981b6064820152608401610358565b600081815260036020908152604080832080546001600160a01b0319166001600160a01b038716908117909155835260049091528120805460019290610d089084906110a8565b909155505060405181906001600160a01b038416906000907fddf252ad1be2c89b69c2b068fc378daa952ba7f163c4a11628f55a4df523b3ef908290a45050565b828054610d5590610ff3565b90600052602060002090601f016020900481019282610d775760008555610dbd565b82601f10610d9057805160ff1916838001178555610dbd565b82800160010185558215610dbd579182015b82811115610dbd578251825591602001919060010190610da2565b50610dc9929150610dcd565b5090565b5b80821115610dc95760008155600101610dce565b600060208284031215610df457600080fd5b81356001600160e01b031981168114610e0c57600080fd5b9392505050565b60005b83811015610e2e578181015183820152602001610e16565b83811115610e3d576000848401525b50505050565b6020815260008251806020840152610e62816040850160208701610e13565b601f01601f19169190910160400192915050565b600060208284031215610e8857600080fd5b5035919050565b80356001600160a01b0381168114610ea657600080fd5b919050565b60008060408385031215610ebe57600080fd5b610ec783610e8f565b946020939093013593505050565b600080600060608486031215610eea57600080fd5b610ef384610e8f565b9250610f0160208501610e8f565b9150604084013590509250925092565b600060208284031215610f2357600080fd5b610e0c82610e8f565b634e487b7160e01b600052604160045260246000fd5b600060208284031215610f5457600080fd5b813567ffffffffffffffff80821115610f6c57600080fd5b818401915084601f830112610f8057600080fd5b813581811115610f9257610f92610f2c565b604051601f8201601f19908116603f01168101908382118183101715610fba57610fba610f2c565b81604052828152876020848701011115610fd357600080fd5b826020860160208301376000928101602001929092525095945050505050565b600181811c9082168061100757607f821691505b6020821081141561102857634e487b7160e01b600052602260045260246000fd5b50919050565b6020808252602d908201527f4552433732313a2054686520737570706c6965642027746f6b656e496427206460408201526c1bd95cc81b9bdd08195e1a5cdd609a1b606082015260800190565b634e487b7160e01b600052601160045260246000fd5b6000828210156110a3576110a361107b565b500390565b600082198211156110bb576110bb61107b565b500190565b634e487b7160e01b600052603260045260246000fd5b600082516110e8818460208701610e13565b919091019291505056fea2646970667358221220e2ab790b0b38fff9b064722e8252286a5b726b6ecb5790ac0a81abac5786b67164736f6c634300080b0033",
  "immutableReferences": {},
  "source": "// SPDX-License-Identifier: MIT\npragma solidity ^0.8.0;\n\nimport \"./ERC721Connector.sol\";\n\ncontract DreamWear is ERC721Connector {\n    string[] private dreams;\n\n    mapping(string => bool) private _dreamExists;\n\n    function mint(string memory _dream) public {\n        require(!_dreamExists[_dream], \"Error - Dream already exists!\");\n\n        dreams.push(_dream);\n        uint256 _id = dreams.length - 1;\n\n        _mint(msg.sender, _id);\n\n        _dreamExists[_dream] = true;\n    }\n\n    constructor() ERC721Connector(\"DreamWear\", \"DW\") {}\n}\n",
  "sourcePath": "/Users/ghaieth/0.Dreamwear/dreamwear.github.io/ethereum/src/contracts/DreamWear.sol",
  "compiler": {
    "name": "solc",
    "version": "0.8.11+commit.d7f03943.Emscripten.clang"
  },
  "schemaVersion": "3.4.4",
  "updatedAt": "2022-02-15T14:56:55.864Z",
  "networkType": "ethereum",
  "devdoc": {
    "kind": "dev",
    "methods": {
      "supportsInterface(bytes4)": {
        "details": "Interface identification is specified in ERC-165. This function  uses less than 30,000 gas.",
        "params": {
          "interfaceID": "The interface identifier, as specified in ERC-165"
        },
        "returns": {
          "_0": "`true` if the contract implements `interfaceID` and  `interfaceID` is not 0xffffffff, `false` otherwise"
        }
      }
    },
    "version": 1
  },
  "userdoc": {
    "kind": "user",
    "methods": {
      "supportsInterface(bytes4)": {
        "notice": "Query if a contract implements an interface"
      }
    },
    "version": 1
  }
}