{
  "contractName": "DreamWear",
  "abi": [
    {
      "inputs": [],
      "stateMutability": "nonpayable",
      "type": "constructor"
    },
    {
      "anonymous": false,
      "inputs": [
        {
          "indexed": true,
          "internalType": "address",
          "name": "_owner",
          "type": "address"
        },
        {
          "indexed": true,
          "internalType": "address",
          "name": "_approved",
          "type": "address"
        },
        {
          "indexed": true,
          "internalType": "uint256",
          "name": "_tokenId",
          "type": "uint256"
        }
      ],
      "name": "Approval",
      "type": "event"
    },
    {
      "anonymous": false,
      "inputs": [
        {
          "indexed": true,
          "internalType": "address",
          "name": "_owner",
          "type": "address"
        },
        {
          "indexed": true,
          "internalType": "address",
          "name": "_operator",
          "type": "address"
        },
        {
          "indexed": false,
          "internalType": "bool",
          "name": "_approved",
          "type": "bool"
        }
      ],
      "name": "ApprovalForAll",
      "type": "event"
    },
    {
      "anonymous": false,
      "inputs": [
        {
          "indexed": true,
          "internalType": "address",
          "name": "_from",
          "type": "address"
        },
        {
          "indexed": true,
          "internalType": "address",
          "name": "_to",
          "type": "address"
        },
        {
          "indexed": true,
          "internalType": "uint256",
          "name": "_tokenId",
          "type": "uint256"
        }
      ],
      "name": "Transfer",
      "type": "event"
    },
    {
      "inputs": [
        {
          "internalType": "address",
          "name": "_to",
          "type": "address"
        },
        {
          "internalType": "uint256",
          "name": "_tokenId",
          "type": "uint256"
        }
      ],
      "name": "approve",
      "outputs": [],
      "stateMutability": "payable",
      "type": "function",
      "payable": true
    },
    {
      "inputs": [
        {
          "internalType": "address",
          "name": "_owner",
          "type": "address"
        }
      ],
      "name": "balanceOf",
      "outputs": [
        {
          "internalType": "uint256",
          "name": "",
          "type": "uint256"
        }
      ],
      "stateMutability": "view",
      "type": "function",
      "constant": true
    },
    {
      "inputs": [
        {
          "internalType": "uint256",
          "name": "_tokenId",
          "type": "uint256"
        }
      ],
      "name": "getApproved",
      "outputs": [
        {
          "internalType": "address",
          "name": "",
          "type": "address"
        }
      ],
      "stateMutability": "view",
      "type": "function",
      "constant": true
    },
    {
      "inputs": [
        {
          "internalType": "address",
          "name": "_owner",
          "type": "address"
        },
        {
          "internalType": "address",
          "name": "_operator",
          "type": "address"
        }
      ],
      "name": "isApprovedForAll",
      "outputs": [
        {
          "internalType": "bool",
          "name": "",
          "type": "bool"
        }
      ],
      "stateMutability": "view",
      "type": "function",
      "constant": true
    },
    {
      "inputs": [],
      "name": "name",
      "outputs": [
        {
          "internalType": "string",
          "name": "",
          "type": "string"
        }
      ],
      "stateMutability": "view",
      "type": "function",
      "constant": true
    },
    {
      "inputs": [
        {
          "internalType": "uint256",
          "name": "_tokenId",
          "type": "uint256"
        }
      ],
      "name": "ownerOf",
      "outputs": [
        {
          "internalType": "address",
          "name": "",
          "type": "address"
        }
      ],
      "stateMutability": "view",
      "type": "function",
      "constant": true
    },
    {
      "inputs": [
        {
          "internalType": "address",
          "name": "_from",
          "type": "address"
        },
        {
          "internalType": "address",
          "name": "_to",
          "type": "address"
        },
        {
          "internalType": "uint256",
          "name": "_tokenId",
          "type": "uint256"
        }
      ],
      "name": "safeTransferFrom",
      "outputs": [],
      "stateMutability": "payable",
      "type": "function",
      "payable": true
    },
    {
      "inputs": [
        {
          "internalType": "address",
          "name": "_from",
          "type": "address"
        },
        {
          "internalType": "address",
          "name": "_to",
          "type": "address"
        },
        {
          "internalType": "uint256",
          "name": "_tokenId",
          "type": "uint256"
        },
        {
          "internalType": "bytes",
          "name": "data",
          "type": "bytes"
        }
      ],
      "name": "safeTransferFrom",
      "outputs": [],
      "stateMutability": "payable",
      "type": "function",
      "payable": true
    },
    {
      "inputs": [
        {
          "internalType": "address",
          "name": "_operator",
          "type": "address"
        },
        {
          "internalType": "bool",
          "name": "_approved",
          "type": "bool"
        }
      ],
      "name": "setApprovalForAll",
      "outputs": [],
      "stateMutability": "nonpayable",
      "type": "function"
    },
    {
      "inputs": [
        {
          "internalType": "bytes4",
          "name": "interfaceID",
          "type": "bytes4"
        }
      ],
      "name": "supportsInterface",
      "outputs": [
        {
          "internalType": "bool",
          "name": "",
          "type": "bool"
        }
      ],
      "stateMutability": "view",
      "type": "function",
      "constant": true
    },
    {
      "inputs": [],
      "name": "symbol",
      "outputs": [
        {
          "internalType": "string",
          "name": "",
          "type": "string"
        }
      ],
      "stateMutability": "view",
      "type": "function",
      "constant": true
    },
    {
      "inputs": [
        {
          "internalType": "uint256",
          "name": "_index",
          "type": "uint256"
        }
      ],
      "name": "tokenByIndex",
      "outputs": [
        {
          "internalType": "uint256",
          "name": "",
          "type": "uint256"
        }
      ],
      "stateMutability": "view",
      "type": "function",
      "constant": true
    },
    {
      "inputs": [
        {
          "internalType": "address",
          "name": "_owner",
          "type": "address"
        },
        {
          "internalType": "uint256",
          "name": "_index",
          "type": "uint256"
        }
      ],
      "name": "tokenOfOwnerByIndex",
      "outputs": [
        {
          "internalType": "uint256",
          "name": "",
          "type": "uint256"
        }
      ],
      "stateMutability": "view",
      "type": "function",
      "constant": true
    },
    {
      "inputs": [
        {
          "internalType": "uint256",
          "name": "_tokenId",
          "type": "uint256"
        }
      ],
      "name": "tokenURI",
      "outputs": [
        {
          "internalType": "string",
          "name": "",
          "type": "string"
        }
      ],
      "stateMutability": "view",
      "type": "function",
      "constant": true
    },
    {
      "inputs": [],
      "name": "totalSupply",
      "outputs": [
        {
          "internalType": "uint256",
          "name": "",
          "type": "uint256"
        }
      ],
      "stateMutability": "view",
      "type": "function",
      "constant": true
    },
    {
      "inputs": [
        {
          "internalType": "address",
          "name": "_from",
          "type": "address"
        },
        {
          "internalType": "address",
          "name": "_to",
          "type": "address"
        },
        {
          "internalType": "uint256",
          "name": "_tokenId",
          "type": "uint256"
        }
      ],
      "name": "transferFrom",
      "outputs": [],
      "stateMutability": "payable",
      "type": "function",
      "payable": true
    },
    {
      "inputs": [
        {
          "internalType": "string",
          "name": "_dream",
          "type": "string"
        }
      ],
      "name": "mint",
      "outputs": [],
      "stateMutability": "nonpayable",
      "type": "function"
    }
  ],
  "bytecode": "0x60806040523480156200001157600080fd5b5060405180604001604052806009815260200168223932b0b6abb2b0b960b91b81525060405180604001604052806002815260200161445760f01b8152508181620000827f01ffc9a7a5cef8baa21ed3c5c0d7e23accb804b619e9333b597f47a0d84076e26200013b60201b60201c565b620000ad7f5b5e139fc6568dcbe817e85f5006fe073fedbf54f63f8f5c5db6f4b41a3451b66200013b565b8151620000c2906001906020850190620001bf565b508051620000d8906002906020840190620001bf565b506200010891507f80ac58cdc1ec4bc2f227e52c5c332af7eb677d9b8c18a9bbe862269cba03a35c90506200013b565b620001337f780e9d631e748bd3b2cb04616c092832f76c29bf76677dc18f4bcbbd18ccb9bf6200013b565b5050620002a2565b6001600160e01b031980821614156200019a5760405162461bcd60e51b815260206004820152601960248201527f4552433136353a20696e76616c696420696e7465726661636500000000000000604482015260640160405180910390fd5b6001600160e01b0319166000908152602081905260409020805460ff19166001179055565b828054620001cd9062000265565b90600052602060002090601f016020900481019282620001f157600085556200023c565b82601f106200020c57805160ff19168380011785556200023c565b828001600101855582156200023c579182015b828111156200023c5782518255916020019190600101906200021f565b506200024a9291506200024e565b5090565b5b808211156200024a57600081556001016200024f565b600181811c908216806200027a57607f821691505b602082108114156200029c57634e487b7160e01b600052602260045260246000fd5b50919050565b6112fe80620002b26000396000f3fe6080604052600436106100fe5760003560e01c80634f6ccce711610095578063a22cb46511610064578063a22cb4651461029b578063b88d4fde146102ba578063c87b56dd146102ce578063d85d3d27146102ef578063e985e9c51461030f57600080fd5b80634f6ccce7146102265780636352211e1461024657806370a082311461026657806395d89b411461028657600080fd5b806318160ddd116100d157806318160ddd146101c157806323b872dd146101e05780632f745c59146101f357806342842e0e1461021357600080fd5b806301ffc9a71461010357806306fdde0314610152578063081812fc14610174578063095ea7b3146101ac575b600080fd5b34801561010f57600080fd5b5061013d61011e366004610ec3565b6001600160e01b03191660009081526020819052604090205460ff1690565b60405190151581526020015b60405180910390f35b34801561015e57600080fd5b50610167610332565b6040516101499190610f20565b34801561018057600080fd5b5061019461018f366004610f53565b6103c4565b6040516001600160a01b039091168152602001610149565b6101bf6101ba366004610f88565b61045e565b005b3480156101cd57600080fd5b506006545b604051908152602001610149565b6101bf6101ee366004610fb2565b6105c6565b3480156101ff57600080fd5b506101d261020e366004610f88565b610837565b6101bf610221366004610fb2565b505050565b34801561023257600080fd5b506101d2610241366004610f53565b6108e4565b34801561025257600080fd5b50610194610261366004610f53565b610975565b34801561027257600080fd5b506101d2610281366004610fee565b6109f3565b34801561029257600080fd5b50610167610a8d565b3480156102a757600080fd5b506101bf6102b6366004611009565b5050565b6101bf6102c83660046110d1565b50505050565b3480156102da57600080fd5b506101676102e9366004610f53565b50606090565b3480156102fb57600080fd5b506101bf61030a36600461114d565b610a9c565b34801561031b57600080fd5b5061013d61032a366004611196565b600092915050565b606060018054610341906111c9565b80601f016020809104026020016040519081016040528092919081815260200182805461036d906111c9565b80156103ba5780601f1061038f576101008083540402835291602001916103ba565b820191906000526020600020905b81548152906001019060200180831161039d57829003601f168201915b5050505050905090565b6000818152600360205260408120546001600160a01b03166104425760405162461bcd60e51b815260206004820152602c60248201527f4552433732313a20617070726f76656420717565727920666f72206e6f6e657860448201526b34b9ba32b73a103a37b5b2b760a11b60648201526084015b60405180910390fd5b506000908152600560205260409020546001600160a01b031690565b600061046982610975565b9050336001600160a01b038216146104e95760405162461bcd60e51b815260206004820152603860248201527f4552433732313a20546865206d6573736167652073656e646572206973206e6f60448201527f7420746865206f776e6572206f662074686520746f6b656e00000000000000006064820152608401610439565b806001600160a01b0316836001600160a01b0316141561056a5760405162461bcd60e51b815260206004820152603660248201527f4552433732313a2054686520737570706c6965642061646472657373206973206044820152753a34329037bbb732b91037b3103a3432903a37b5b2b760511b6064820152608401610439565b60008281526005602052604080822080546001600160a01b0319166001600160a01b0387811691821790925591518593918516917f8c5be1e5ebec7d5bd14f71427d1e84f3dd0314c0f7b2291e5b200ac8c7c3b92591a4505050565b6105d03382610ba4565b6106365760405162461bcd60e51b815260206004820152603160248201527f4552433732313a207472616e736665722063616c6c6572206973206e6f74206f6044820152701ddb995c881b9bdc88185c1c1c9bdd9959607a1b6064820152608401610439565b6000818152600360205260409020546001600160a01b031661066a5760405162461bcd60e51b815260040161043990611204565b61067381610975565b6001600160a01b0316836001600160a01b0316146107035760405162461bcd60e51b815260206004820152604160248201527f4552433732313a2054686520737570706c696564202766726f6d27206164647260448201527f657373206973206e6f7420746865206f776e6572206f662074686520746f6b656064820152603760f91b608482015260a401610439565b6001600160a01b03821661077f5760405162461bcd60e51b815260206004820152603860248201527f4552433732313a2054686520737570706c6965642027746f272061646472657360448201527f73206973206e6f7420612076616c6964206164647265737300000000000000006064820152608401610439565b6001600160a01b03831660009081526004602052604081208054600192906107a8908490611267565b90915550506001600160a01b03821660009081526004602052604081208054600192906107d690849061127e565b909155505060008181526003602052604080822080546001600160a01b0319166001600160a01b0386811691821790925591518493918716917fddf252ad1be2c89b69c2b068fc378daa952ba7f163c4a11628f55a4df523b3ef91a4505050565b6000610842836109f3565b82106108a75760405162461bcd60e51b815260206004820152602e60248201527f455243373231456e756d657261626c653a206f776e657220696e64657820697360448201526d206f7574206f6620626f756e647360901b6064820152608401610439565b6001600160a01b03831660009081526008602052604090208054839081106108d1576108d1611296565b9060005260206000200154905092915050565b60065460009082106109505760405162461bcd60e51b815260206004820152602f60248201527f455243373231456e756d657261626c653a20676c6f62616c20696e646578206960448201526e73206f7574206f6620626f756e647360881b6064820152608401610439565b6006828154811061096357610963611296565b90600052602060002001549050919050565b6000818152600360205260408120546001600160a01b0316806109ed5760405162461bcd60e51b815260206004820152602a60248201527f4552433732313a2054686520737570706c69656420746f6b656e49642069732060448201526903737ba103b30b634b2160b51b6064820152608401610439565b92915050565b60006001600160a01b038216610a715760405162461bcd60e51b815260206004820152603960248201527f4552433732313a2054686520737570706c696564206f776e657220616464726560448201527f7373206973206e6f7420612076616c69642061646472657373000000000000006064820152608401610439565b506001600160a01b031660009081526004602052604090205490565b606060028054610341906111c9565b600b81604051610aac91906112ac565b9081526040519081900360200190205460ff1615610b0c5760405162461bcd60e51b815260206004820152601d60248201527f4572726f72202d20447265616d20616c726561647920657869737473210000006044820152606401610439565b600a80546001810182556000919091528151610b4f917fc65a7bb8d6351c1cf70c95a316cc6a92839c986682d98bc35f958f4883f9d2a801906020840190610e2a565b50600a54600090610b6290600190611267565b9050610b6e3382610c26565b6001600b83604051610b8091906112ac565b908152604051908190036020019020805491151560ff199092169190911790555050565b6000818152600360205260408120546001600160a01b0316610bd85760405162461bcd60e51b815260040161043990611204565b6000610be383610975565b9050806001600160a01b0316846001600160a01b03161480610c1e5750836001600160a01b0316610c13846103c4565b6001600160a01b0316145b949350505050565b610c308282610cb5565b610c7881600680546000838152600760205260408120829055600182018355919091527ff652222313e28459528d920b65115c16c04f3efc82aaedc97be59f3f377c0d3f0155565b6001600160a01b03919091166000908152600860209081526040808320805460018101825581855283852001859055549383526009909152902055565b6001600160a01b038216610d275760405162461bcd60e51b815260206004820152603360248201527f4552433732313a2054686520737570706c6965642061646472657373206973206044820152726e6f7420612076616c6964206164647265737360681b6064820152608401610439565b6000818152600360205260409020546001600160a01b031615610da25760405162461bcd60e51b815260206004820152602d60248201527f4552433732313a2054686520737570706c6965642027746f6b656e496427206160448201526c6c72656164792065786973747360981b6064820152608401610439565b600081815260036020908152604080832080546001600160a01b0319166001600160a01b038716908117909155835260049091528120805460019290610de990849061127e565b909155505060405181906001600160a01b038416906000907fddf252ad1be2c89b69c2b068fc378daa952ba7f163c4a11628f55a4df523b3ef908290a45050565b828054610e36906111c9565b90600052602060002090601f016020900481019282610e585760008555610e9e565b82601f10610e7157805160ff1916838001178555610e9e565b82800160010185558215610e9e579182015b82811115610e9e578251825591602001919060010190610e83565b50610eaa929150610eae565b5090565b5b80821115610eaa5760008155600101610eaf565b600060208284031215610ed557600080fd5b81356001600160e01b031981168114610eed57600080fd5b9392505050565b60005b83811015610f0f578181015183820152602001610ef7565b838111156102c85750506000910152565b6020815260008251806020840152610f3f816040850160208701610ef4565b601f01601f19169190910160400192915050565b600060208284031215610f6557600080fd5b5035919050565b80356001600160a01b0381168114610f8357600080fd5b919050565b60008060408385031215610f9b57600080fd5b610fa483610f6c565b946020939093013593505050565b600080600060608486031215610fc757600080fd5b610fd084610f6c565b9250610fde60208501610f6c565b9150604084013590509250925092565b60006020828403121561100057600080fd5b610eed82610f6c565b6000806040838503121561101c57600080fd5b61102583610f6c565b91506020830135801515811461103a57600080fd5b809150509250929050565b634e487b7160e01b600052604160045260246000fd5b600067ffffffffffffffff8084111561107657611076611045565b604051601f8501601f19908116603f0116810190828211818310171561109e5761109e611045565b816040528093508581528686860111156110b757600080fd5b858560208301376000602087830101525050509392505050565b600080600080608085870312156110e757600080fd5b6110f085610f6c565b93506110fe60208601610f6c565b925060408501359150606085013567ffffffffffffffff81111561112157600080fd5b8501601f8101871361113257600080fd5b6111418782356020840161105b565b91505092959194509250565b60006020828403121561115f57600080fd5b813567ffffffffffffffff81111561117657600080fd5b8201601f8101841361118757600080fd5b610c1e8482356020840161105b565b600080604083850312156111a957600080fd5b6111b283610f6c565b91506111c060208401610f6c565b90509250929050565b600181811c908216806111dd57607f821691505b602082108114156111fe57634e487b7160e01b600052602260045260246000fd5b50919050565b6020808252602d908201527f4552433732313a2054686520737570706c6965642027746f6b656e496427206460408201526c1bd95cc81b9bdd08195e1a5cdd609a1b606082015260800190565b634e487b7160e01b600052601160045260246000fd5b60008282101561127957611279611251565b500390565b6000821982111561129157611291611251565b500190565b634e487b7160e01b600052603260045260246000fd5b600082516112be818460208701610ef4565b919091019291505056fea2646970667358221220cab5a53fb19ac949a9b59c42d56a449c2ae85db172cdd15543b9b32744e9a14464736f6c634300080b0033",
  "immutableReferences": {},
  "source": "// SPDX-License-Identifier: MIT\npragma solidity ^0.8.0;\n\nimport \"./ERC721Connector.sol\";\n\ncontract DreamWear is ERC721Connector {\n    string[] private dreams;\n\n    mapping(string => bool) private _dreamExists;\n\n    function mint(string memory _dream) public {\n        require(!_dreamExists[_dream], \"Error - Dream already exists!\");\n\n        dreams.push(_dream);\n        uint256 _id = dreams.length - 1;\n\n        _mint(msg.sender, _id);\n\n        _dreamExists[_dream] = true;\n    }\n\n    constructor() ERC721Connector(\"DreamWear\", \"DW\") {}\n}\n",
  "sourcePath": "/Users/ghaieth/0.Dreamwear/dreamwear.github.io/ethereum/src/contracts/DreamWear.sol",
  "compiler": {
    "name": "solc",
    "version": "0.8.11+commit.d7f03943.Emscripten.clang"
  },
  "schemaVersion": "3.4.4",
  "updatedAt": "2022-02-15T15:40:32.357Z",
  "networkType": "ethereum",
  "devdoc": {
    "kind": "dev",
    "methods": {
      "supportsInterface(bytes4)": {
        "details": "Interface identification is specified in ERC-165. This function  uses less than 30,000 gas.",
        "params": {
          "interfaceID": "The interface identifier, as specified in ERC-165"
        },
        "returns": {
          "_0": "`true` if the contract implements `interfaceID` and  `interfaceID` is not 0xffffffff, `false` otherwise"
        }
      }
    },
    "version": 1
  },
  "userdoc": {
    "kind": "user",
    "methods": {
      "supportsInterface(bytes4)": {
        "notice": "Query if a contract implements an interface"
      }
    },
    "version": 1
  }
}