{
  "contractName": "DreamWear",
  "abi": [
    {
      "inputs": [],
      "stateMutability": "nonpayable",
      "type": "constructor"
    },
    {
      "anonymous": false,
      "inputs": [
        {
          "indexed": true,
          "internalType": "address",
          "name": "from",
          "type": "address"
        },
        {
          "indexed": true,
          "internalType": "address",
          "name": "to",
          "type": "address"
        },
        {
          "indexed": true,
          "internalType": "uint256",
          "name": "tokenId",
          "type": "uint256"
        }
      ],
      "name": "Transfer",
      "type": "event"
    },
    {
      "inputs": [
        {
          "internalType": "address",
          "name": "_owner",
          "type": "address"
        }
      ],
      "name": "balanceOf",
      "outputs": [
        {
          "internalType": "uint256",
          "name": "",
          "type": "uint256"
        }
      ],
      "stateMutability": "view",
      "type": "function",
      "constant": true
    },
    {
      "inputs": [],
      "name": "name",
      "outputs": [
        {
          "internalType": "string",
          "name": "",
          "type": "string"
        }
      ],
      "stateMutability": "view",
      "type": "function",
      "constant": true
    },
    {
      "inputs": [
        {
          "internalType": "uint256",
          "name": "_tokenId",
          "type": "uint256"
        }
      ],
      "name": "ownerOf",
      "outputs": [
        {
          "internalType": "address",
          "name": "",
          "type": "address"
        }
      ],
      "stateMutability": "view",
      "type": "function",
      "constant": true
    },
    {
      "inputs": [],
      "name": "symbol",
      "outputs": [
        {
          "internalType": "string",
          "name": "",
          "type": "string"
        }
      ],
      "stateMutability": "view",
      "type": "function",
      "constant": true
    },
    {
      "inputs": [
        {
          "internalType": "uint256",
          "name": "_index",
          "type": "uint256"
        }
      ],
      "name": "tokenByIndex",
      "outputs": [
        {
          "internalType": "uint256",
          "name": "",
          "type": "uint256"
        }
      ],
      "stateMutability": "view",
      "type": "function",
      "constant": true
    },
    {
      "inputs": [
        {
          "internalType": "address",
          "name": "_owner",
          "type": "address"
        },
        {
          "internalType": "uint256",
          "name": "_index",
          "type": "uint256"
        }
      ],
      "name": "tokenOfOwnerByIndex",
      "outputs": [
        {
          "internalType": "uint256",
          "name": "",
          "type": "uint256"
        }
      ],
      "stateMutability": "view",
      "type": "function",
      "constant": true
    },
    {
      "inputs": [],
      "name": "totalSupply",
      "outputs": [
        {
          "internalType": "uint256",
          "name": "",
          "type": "uint256"
        }
      ],
      "stateMutability": "view",
      "type": "function",
      "constant": true
    },
    {
      "inputs": [
        {
          "internalType": "address",
          "name": "_from",
          "type": "address"
        },
        {
          "internalType": "address",
          "name": "_to",
          "type": "address"
        },
        {
          "internalType": "uint256",
          "name": "_tokenId",
          "type": "uint256"
        }
      ],
      "name": "transferFrom",
      "outputs": [],
      "stateMutability": "payable",
      "type": "function",
      "payable": true
    },
    {
      "inputs": [
        {
          "internalType": "string",
          "name": "_dream",
          "type": "string"
        }
      ],
      "name": "mint",
      "outputs": [],
      "stateMutability": "nonpayable",
      "type": "function"
    }
  ],
  "bytecode": "0x60806040523480156200001157600080fd5b506040805180820182526009815268223932b0b6abb2b0b960b91b602080830191825283518085019094526002845261445760f01b90840152815191929183918391620000619160009162000082565b5080516200007790600190602084019062000082565b505050505062000165565b828054620000909062000128565b90600052602060002090601f016020900481019282620000b45760008555620000ff565b82601f10620000cf57805160ff1916838001178555620000ff565b82800160010185558215620000ff579182015b82811115620000ff578251825591602001919060010190620000e2565b506200010d92915062000111565b5090565b5b808211156200010d576000815560010162000112565b600181811c908216806200013d57607f821691505b602082108114156200015f57634e487b7160e01b600052602260045260246000fd5b50919050565b610d6f80620001756000396000f3fe6080604052600436106100865760003560e01c80634f6ccce7116100595780634f6ccce71461010a5780636352211e1461012a57806370a082311461016257806395d89b4114610182578063d85d3d271461019757600080fd5b806306fdde031461008b57806318160ddd146100b657806323b872dd146100d55780632f745c59146100ea575b600080fd5b34801561009757600080fd5b506100a06101b7565b6040516100ad9190610ad0565b60405180910390f35b3480156100c257600080fd5b506005545b6040519081526020016100ad565b6100e86100e3366004610b1f565b610249565b005b3480156100f657600080fd5b506100c7610105366004610b5b565b6104ff565b34801561011657600080fd5b506100c7610125366004610b85565b6105a1565b34801561013657600080fd5b5061014a610145366004610b85565b610628565b6040516001600160a01b0390911681526020016100ad565b34801561016e57600080fd5b506100c761017d366004610b9e565b61069e565b34801561018e57600080fd5b506100a061071e565b3480156101a357600080fd5b506100e86101b2366004610bd6565b61072d565b6060600080546101c690610c87565b80601f01602080910402602001604051908101604052809291908181526020018280546101f290610c87565b801561023f5780601f106102145761010080835404028352916020019161023f565b820191906000526020600020905b81548152906001019060200180831161022257829003601f168201915b5050505050905090565b6000818152600260205260409020546001600160a01b03166102c85760405162461bcd60e51b815260206004820152602d60248201527f4552433732313a2054686520737570706c6965642027746f6b656e496427206460448201526c1bd95cc81b9bdd08195e1a5cdd609a1b60648201526084015b60405180910390fd5b6102d181610628565b6001600160a01b0316336001600160a01b0316146103455760405162461bcd60e51b815260206004820152602b60248201527f4552433732313a20546865206d6573736167652073656e646572206973206e6f60448201526a3a103a34329037bbb732b960a91b60648201526084016102bf565b61034e81610628565b6001600160a01b0316836001600160a01b0316146103cb5760405162461bcd60e51b815260206004820152603460248201527f4552433732313a2054686520737570706c696564202766726f6d27206164647260448201527332b9b99034b9903737ba103a34329037bbb732b960611b60648201526084016102bf565b6001600160a01b0382166104475760405162461bcd60e51b815260206004820152603860248201527f4552433732313a2054686520737570706c6965642027746f272061646472657360448201527f73206973206e6f7420612076616c69642061646472657373000000000000000060648201526084016102bf565b6001600160a01b0383166000908152600360205260408120805460019290610470908490610cd8565b90915550506001600160a01b038216600090815260036020526040812080546001929061049e908490610cef565b909155505060008181526002602052604080822080546001600160a01b0319166001600160a01b0386811691821790925591518493918716917fddf252ad1be2c89b69c2b068fc378daa952ba7f163c4a11628f55a4df523b3ef91a4505050565b600061050a8361069e565b82106105645760405162461bcd60e51b8152602060048201526024808201527f4552433732313a206f776e657220696e646578206973206f7574206f6620626f604482015263756e647360e01b60648201526084016102bf565b6001600160a01b038316600090815260076020526040902080548390811061058e5761058e610d07565b9060005260206000200154905092915050565b60055460009082106106035760405162461bcd60e51b815260206004820152602560248201527f4552433732313a20676c6f62616c20696e646578206973206f7574206f6620626044820152646f756e647360d81b60648201526084016102bf565b6005828154811061061657610616610d07565b90600052602060002001549050919050565b6000818152600260205260408120546001600160a01b0316806106985760405162461bcd60e51b815260206004820152602260248201527f4552433732313a207175657269656420746f6b656e206973206e6f742076616c6044820152611a5960f21b60648201526084016102bf565b92915050565b60006001600160a01b0382166107025760405162461bcd60e51b8152602060048201526024808201527f4552433732313a20717565726965642061646472657373206973206e6f742076604482015263185b1a5960e21b60648201526084016102bf565b506001600160a01b031660009081526003602052604090205490565b6060600180546101c690610c87565b600a8160405161073d9190610d1d565b9081526040519081900360200190205460ff161561079d5760405162461bcd60e51b815260206004820152601d60248201527f4572726f72202d20647265616d20616c7265616479206578697374732100000060448201526064016102bf565b6009805460018101825560009190915281516107e0917f6e1540171b6c0c960b71a7020d9f60077f6af931a8bbf590da0223dacf75c7af01906020840190610a07565b506009546000906107f390600190610cd8565b90506107ff3382610835565b6001600a836040516108119190610d1d565b908152604051908190036020019020805491151560ff199092169190911790555050565b61083f82826108c4565b61088781600580546000838152600660205260408120829055600182018355919091527f036b6384b5eca791c62761152d0c79bb0604c104a5fb6f4eb0703f3154bb3db00155565b6001600160a01b03919091166000908152600760209081526040808320805460018101825581855283852001859055549383526008909152902055565b6001600160a01b03821661091a5760405162461bcd60e51b815260206004820152601c60248201527f4552433732313a206d696e74696e6720746f206164647265737320300000000060448201526064016102bf565b6000818152600260205260409020546001600160a01b03161561097f5760405162461bcd60e51b815260206004820152601c60248201527f4552433732313a20746f6b656e20616c7265616479206d696e7465640000000060448201526064016102bf565b600081815260026020908152604080832080546001600160a01b0319166001600160a01b0387169081179091558352600390915281208054600192906109c6908490610cef565b909155505060405181906001600160a01b038416906000907fddf252ad1be2c89b69c2b068fc378daa952ba7f163c4a11628f55a4df523b3ef908290a45050565b828054610a1390610c87565b90600052602060002090601f016020900481019282610a355760008555610a7b565b82601f10610a4e57805160ff1916838001178555610a7b565b82800160010185558215610a7b579182015b82811115610a7b578251825591602001919060010190610a60565b50610a87929150610a8b565b5090565b5b80821115610a875760008155600101610a8c565b60005b83811015610abb578181015183820152602001610aa3565b83811115610aca576000848401525b50505050565b6020815260008251806020840152610aef816040850160208701610aa0565b601f01601f19169190910160400192915050565b80356001600160a01b0381168114610b1a57600080fd5b919050565b600080600060608486031215610b3457600080fd5b610b3d84610b03565b9250610b4b60208501610b03565b9150604084013590509250925092565b60008060408385031215610b6e57600080fd5b610b7783610b03565b946020939093013593505050565b600060208284031215610b9757600080fd5b5035919050565b600060208284031215610bb057600080fd5b610bb982610b03565b9392505050565b634e487b7160e01b600052604160045260246000fd5b600060208284031215610be857600080fd5b813567ffffffffffffffff80821115610c0057600080fd5b818401915084601f830112610c1457600080fd5b813581811115610c2657610c26610bc0565b604051601f8201601f19908116603f01168101908382118183101715610c4e57610c4e610bc0565b81604052828152876020848701011115610c6757600080fd5b826020860160208301376000928101602001929092525095945050505050565b600181811c90821680610c9b57607f821691505b60208210811415610cbc57634e487b7160e01b600052602260045260246000fd5b50919050565b634e487b7160e01b600052601160045260246000fd5b600082821015610cea57610cea610cc2565b500390565b60008219821115610d0257610d02610cc2565b500190565b634e487b7160e01b600052603260045260246000fd5b60008251610d2f818460208701610aa0565b919091019291505056fea26469706673582212203cfc40e09117898e57a0589373d88e42a54aa0d945d653a0367cea493fe002f564736f6c634300080b0033",
  "immutableReferences": {},
  "source": "// SPDX-License-Identifier: MIT\npragma solidity ^0.8.0;\n\nimport \"./ERC721Connector.sol\";\n\ncontract DreamWear is ERC721Connector {\n    string[] private dreams;\n\n    mapping(string => bool) private _dreamExists;\n\n    function mint(string memory _dream) public {\n        require(!_dreamExists[_dream], \"Error - dream already exists!\");\n\n        dreams.push(_dream);\n        uint256 _id = dreams.length - 1;\n\n        _mint(msg.sender, _id);\n\n        _dreamExists[_dream] = true;\n    }\n\n    constructor() ERC721Connector(\"DreamWear\", \"DW\") {}\n}\n",
  "sourcePath": "/Users/ghaieth/0.Dreamwear/nft-marketplace/src/contracts/DreamWear.sol",
  "compiler": {
    "name": "solc",
    "version": "0.8.11+commit.d7f03943.Emscripten.clang"
  },
  "schemaVersion": "3.4.4",
  "updatedAt": "2022-02-09T16:26:50.972Z",
  "networkType": "ethereum",
  "devdoc": {
    "kind": "dev",
    "methods": {},
    "version": 1
  },
  "userdoc": {
    "kind": "user",
    "methods": {},
    "version": 1
  }
}