{
  "contractName": "DreamWear",
  "abi": [
    {
      "inputs": [],
      "stateMutability": "nonpayable",
      "type": "constructor"
    },
    {
      "anonymous": false,
      "inputs": [
        {
          "indexed": true,
          "internalType": "address",
          "name": "_owner",
          "type": "address"
        },
        {
          "indexed": true,
          "internalType": "address",
          "name": "_approved",
          "type": "address"
        },
        {
          "indexed": true,
          "internalType": "uint256",
          "name": "_tokenId",
          "type": "uint256"
        }
      ],
      "name": "Approval",
      "type": "event"
    },
    {
      "anonymous": false,
      "inputs": [
        {
          "indexed": true,
          "internalType": "address",
          "name": "_owner",
          "type": "address"
        },
        {
          "indexed": true,
          "internalType": "address",
          "name": "_operator",
          "type": "address"
        },
        {
          "indexed": false,
          "internalType": "bool",
          "name": "_approved",
          "type": "bool"
        }
      ],
      "name": "ApprovalForAll",
      "type": "event"
    },
    {
      "anonymous": false,
      "inputs": [
        {
          "indexed": true,
          "internalType": "address",
          "name": "_from",
          "type": "address"
        },
        {
          "indexed": true,
          "internalType": "address",
          "name": "_to",
          "type": "address"
        },
        {
          "indexed": true,
          "internalType": "uint256",
          "name": "_tokenId",
          "type": "uint256"
        }
      ],
      "name": "Transfer",
      "type": "event"
    },
    {
      "inputs": [
        {
          "internalType": "string",
          "name": "",
          "type": "string"
        }
      ],
      "name": "_dreamExists",
      "outputs": [
        {
          "internalType": "bool",
          "name": "",
          "type": "bool"
        }
      ],
      "stateMutability": "view",
      "type": "function"
    },
    {
      "inputs": [
        {
          "internalType": "address",
          "name": "_to",
          "type": "address"
        },
        {
          "internalType": "uint256",
          "name": "_tokenId",
          "type": "uint256"
        }
      ],
      "name": "approve",
      "outputs": [],
      "stateMutability": "payable",
      "type": "function"
    },
    {
      "inputs": [
        {
          "internalType": "address",
          "name": "_owner",
          "type": "address"
        }
      ],
      "name": "balanceOf",
      "outputs": [
        {
          "internalType": "uint256",
          "name": "",
          "type": "uint256"
        }
      ],
      "stateMutability": "view",
      "type": "function"
    },
    {
      "inputs": [
        {
          "internalType": "uint256",
          "name": "",
          "type": "uint256"
        }
      ],
      "name": "dreams",
      "outputs": [
        {
          "internalType": "string",
          "name": "",
          "type": "string"
        }
      ],
      "stateMutability": "view",
      "type": "function"
    },
    {
      "inputs": [
        {
          "internalType": "uint256",
          "name": "_tokenId",
          "type": "uint256"
        }
      ],
      "name": "getApproved",
      "outputs": [
        {
          "internalType": "address",
          "name": "",
          "type": "address"
        }
      ],
      "stateMutability": "view",
      "type": "function"
    },
    {
      "inputs": [
        {
          "internalType": "address",
          "name": "_owner",
          "type": "address"
        },
        {
          "internalType": "address",
          "name": "_operator",
          "type": "address"
        }
      ],
      "name": "isApprovedForAll",
      "outputs": [
        {
          "internalType": "bool",
          "name": "",
          "type": "bool"
        }
      ],
      "stateMutability": "view",
      "type": "function"
    },
    {
      "inputs": [],
      "name": "name",
      "outputs": [
        {
          "internalType": "string",
          "name": "",
          "type": "string"
        }
      ],
      "stateMutability": "view",
      "type": "function"
    },
    {
      "inputs": [
        {
          "internalType": "uint256",
          "name": "_tokenId",
          "type": "uint256"
        }
      ],
      "name": "ownerOf",
      "outputs": [
        {
          "internalType": "address",
          "name": "",
          "type": "address"
        }
      ],
      "stateMutability": "view",
      "type": "function"
    },
    {
      "inputs": [
        {
          "internalType": "address",
          "name": "_from",
          "type": "address"
        },
        {
          "internalType": "address",
          "name": "_to",
          "type": "address"
        },
        {
          "internalType": "uint256",
          "name": "_tokenId",
          "type": "uint256"
        }
      ],
      "name": "safeTransferFrom",
      "outputs": [],
      "stateMutability": "payable",
      "type": "function"
    },
    {
      "inputs": [
        {
          "internalType": "address",
          "name": "_from",
          "type": "address"
        },
        {
          "internalType": "address",
          "name": "_to",
          "type": "address"
        },
        {
          "internalType": "uint256",
          "name": "_tokenId",
          "type": "uint256"
        },
        {
          "internalType": "bytes",
          "name": "data",
          "type": "bytes"
        }
      ],
      "name": "safeTransferFrom",
      "outputs": [],
      "stateMutability": "payable",
      "type": "function"
    },
    {
      "inputs": [
        {
          "internalType": "address",
          "name": "_operator",
          "type": "address"
        },
        {
          "internalType": "bool",
          "name": "_approved",
          "type": "bool"
        }
      ],
      "name": "setApprovalForAll",
      "outputs": [],
      "stateMutability": "nonpayable",
      "type": "function"
    },
    {
      "inputs": [
        {
          "internalType": "bytes4",
          "name": "interfaceId",
          "type": "bytes4"
        }
      ],
      "name": "supportsInterface",
      "outputs": [
        {
          "internalType": "bool",
          "name": "",
          "type": "bool"
        }
      ],
      "stateMutability": "view",
      "type": "function"
    },
    {
      "inputs": [],
      "name": "symbol",
      "outputs": [
        {
          "internalType": "string",
          "name": "",
          "type": "string"
        }
      ],
      "stateMutability": "view",
      "type": "function"
    },
    {
      "inputs": [
        {
          "internalType": "uint256",
          "name": "_index",
          "type": "uint256"
        }
      ],
      "name": "tokenByIndex",
      "outputs": [
        {
          "internalType": "uint256",
          "name": "",
          "type": "uint256"
        }
      ],
      "stateMutability": "view",
      "type": "function"
    },
    {
      "inputs": [
        {
          "internalType": "address",
          "name": "_owner",
          "type": "address"
        },
        {
          "internalType": "uint256",
          "name": "_index",
          "type": "uint256"
        }
      ],
      "name": "tokenOfOwnerByIndex",
      "outputs": [
        {
          "internalType": "uint256",
          "name": "",
          "type": "uint256"
        }
      ],
      "stateMutability": "view",
      "type": "function"
    },
    {
      "inputs": [
        {
          "internalType": "uint256",
          "name": "_tokenId",
          "type": "uint256"
        }
      ],
      "name": "tokenURI",
      "outputs": [
        {
          "internalType": "string",
          "name": "",
          "type": "string"
        }
      ],
      "stateMutability": "view",
      "type": "function"
    },
    {
      "inputs": [],
      "name": "totalSupply",
      "outputs": [
        {
          "internalType": "uint256",
          "name": "",
          "type": "uint256"
        }
      ],
      "stateMutability": "view",
      "type": "function"
    },
    {
      "inputs": [
        {
          "internalType": "address",
          "name": "_from",
          "type": "address"
        },
        {
          "internalType": "address",
          "name": "_to",
          "type": "address"
        },
        {
          "internalType": "uint256",
          "name": "_tokenId",
          "type": "uint256"
        }
      ],
      "name": "transferFrom",
      "outputs": [],
      "stateMutability": "payable",
      "type": "function"
    },
    {
      "inputs": [
        {
          "internalType": "string",
          "name": "_dream",
          "type": "string"
        }
      ],
      "name": "mint",
      "outputs": [],
      "stateMutability": "nonpayable",
      "type": "function"
    }
  ],
  "bytecode": "0x60806040523480156200001157600080fd5b506040805180820182526009815268223932b0b6abb2b0b960b91b602080830191825283518085019094526002845261445760f01b90840152815191929183918391620000619160009162000082565b5080516200007790600190602084019062000082565b505050505062000165565b828054620000909062000128565b90600052602060002090601f016020900481019282620000b45760008555620000ff565b82601f10620000cf57805160ff1916838001178555620000ff565b82800160010185558215620000ff579182015b82811115620000ff578251825591602001919060010190620000e2565b506200010d92915062000111565b5090565b5b808211156200010d576000815560010162000112565b600181811c908216806200013d57607f821691505b602082108114156200015f57634e487b7160e01b600052602260045260246000fd5b50919050565b61148b80620001756000396000f3fe6080604052600436106101145760003560e01c80634f6ccce7116100a0578063a22cb46511610064578063a22cb465146102f2578063b88d4fde14610311578063c87b56dd14610325578063d85d3d2714610346578063e985e9c51461036657600080fd5b80634f6ccce71461025d5780636352211e1461027d578063685c24361461029d57806370a08231146102bd57806395d89b41146102dd57600080fd5b8063095ea7b3116100e7578063095ea7b3146101e357806318160ddd146101f857806323b872dd146102175780632f745c591461022a57806342842e0e1461024a57600080fd5b806301ffc9a71461011957806306cb71411461014e57806306fdde0314610189578063081812fc146101ab575b600080fd5b34801561012557600080fd5b50610139610134366004611050565b610389565b60405190151581526020015b60405180910390f35b34801561015a57600080fd5b5061013961016936600461110d565b8051602081830181018051600a8252928201919093012091525460ff1681565b34801561019557600080fd5b5061019e61039a565b6040516101459190611182565b3480156101b757600080fd5b506101cb6101c63660046111b5565b61042c565b6040516001600160a01b039091168152602001610145565b6101f66101f13660046111ea565b6104c6565b005b34801561020457600080fd5b506005545b604051908152602001610145565b6101f6610225366004611214565b61062e565b34801561023657600080fd5b506102096102453660046111ea565b61089f565b6101f6610258366004611214565b505050565b34801561026957600080fd5b506102096102783660046111b5565b61094c565b34801561028957600080fd5b506101cb6102983660046111b5565b6109dd565b3480156102a957600080fd5b5061019e6102b83660046111b5565b610a55565b3480156102c957600080fd5b506102096102d8366004611250565b610b01565b3480156102e957600080fd5b5061019e610b9b565b3480156102fe57600080fd5b506101f661030d36600461126b565b5050565b6101f661031f3660046112a7565b50505050565b34801561033157600080fd5b5061019e6103403660046111b5565b50606090565b34801561035257600080fd5b506101f661036136600461110d565b610baa565b34801561037257600080fd5b50610139610381366004611323565b600092915050565b600061039482610cb2565b92915050565b6060600080546103a990611356565b80601f01602080910402602001604051908101604052809291908181526020018280546103d590611356565b80156104225780601f106103f757610100808354040283529160200191610422565b820191906000526020600020905b81548152906001019060200180831161040557829003601f168201915b5050505050905090565b6000818152600260205260408120546001600160a01b03166104aa5760405162461bcd60e51b815260206004820152602c60248201527f4552433732313a20617070726f76656420717565727920666f72206e6f6e657860448201526b34b9ba32b73a103a37b5b2b760a11b60648201526084015b60405180910390fd5b506000908152600460205260409020546001600160a01b031690565b60006104d1826109dd565b9050336001600160a01b038216146105515760405162461bcd60e51b815260206004820152603860248201527f4552433732313a20546865206d6573736167652073656e646572206973206e6f60448201527f7420746865206f776e6572206f662074686520746f6b656e000000000000000060648201526084016104a1565b806001600160a01b0316836001600160a01b031614156105d25760405162461bcd60e51b815260206004820152603660248201527f4552433732313a2054686520737570706c6965642061646472657373206973206044820152753a34329037bbb732b91037b3103a3432903a37b5b2b760511b60648201526084016104a1565b60008281526004602052604080822080546001600160a01b0319166001600160a01b0387811691821790925591518593918516917f8c5be1e5ebec7d5bd14f71427d1e84f3dd0314c0f7b2291e5b200ac8c7c3b92591a4505050565b6106383382610cd7565b61069e5760405162461bcd60e51b815260206004820152603160248201527f4552433732313a207472616e736665722063616c6c6572206973206e6f74206f6044820152701ddb995c881b9bdc88185c1c1c9bdd9959607a1b60648201526084016104a1565b6000818152600260205260409020546001600160a01b03166106d25760405162461bcd60e51b81526004016104a190611391565b6106db816109dd565b6001600160a01b0316836001600160a01b03161461076b5760405162461bcd60e51b815260206004820152604160248201527f4552433732313a2054686520737570706c696564202766726f6d27206164647260448201527f657373206973206e6f7420746865206f776e6572206f662074686520746f6b656064820152603760f91b608482015260a4016104a1565b6001600160a01b0382166107e75760405162461bcd60e51b815260206004820152603860248201527f4552433732313a2054686520737570706c6965642027746f272061646472657360448201527f73206973206e6f7420612076616c69642061646472657373000000000000000060648201526084016104a1565b6001600160a01b03831660009081526003602052604081208054600192906108109084906113f4565b90915550506001600160a01b038216600090815260036020526040812080546001929061083e90849061140b565b909155505060008181526002602052604080822080546001600160a01b0319166001600160a01b0386811691821790925591518493918716917fddf252ad1be2c89b69c2b068fc378daa952ba7f163c4a11628f55a4df523b3ef91a4505050565b60006108aa83610b01565b821061090f5760405162461bcd60e51b815260206004820152602e60248201527f455243373231456e756d657261626c653a206f776e657220696e64657820697360448201526d206f7574206f6620626f756e647360901b60648201526084016104a1565b6001600160a01b038316600090815260076020526040902080548390811061093957610939611423565b9060005260206000200154905092915050565b60055460009082106109b85760405162461bcd60e51b815260206004820152602f60248201527f455243373231456e756d657261626c653a20676c6f62616c20696e646578206960448201526e73206f7574206f6620626f756e647360881b60648201526084016104a1565b600582815481106109cb576109cb611423565b90600052602060002001549050919050565b6000818152600260205260408120546001600160a01b0316806103945760405162461bcd60e51b815260206004820152602a60248201527f4552433732313a2054686520737570706c69656420746f6b656e49642069732060448201526903737ba103b30b634b2160b51b60648201526084016104a1565b60098181548110610a6557600080fd5b906000526020600020016000915090508054610a8090611356565b80601f0160208091040260200160405190810160405280929190818152602001828054610aac90611356565b8015610af95780601f10610ace57610100808354040283529160200191610af9565b820191906000526020600020905b815481529060010190602001808311610adc57829003601f168201915b505050505081565b60006001600160a01b038216610b7f5760405162461bcd60e51b815260206004820152603960248201527f4552433732313a2054686520737570706c696564206f776e657220616464726560448201527f7373206973206e6f7420612076616c696420616464726573730000000000000060648201526084016104a1565b506001600160a01b031660009081526003602052604090205490565b6060600180546103a990611356565b600a81604051610bba9190611439565b9081526040519081900360200190205460ff1615610c1a5760405162461bcd60e51b815260206004820152601d60248201527f4572726f72202d20447265616d20616c7265616479206578697374732100000060448201526064016104a1565b600980546001810182556000919091528151610c5d917f6e1540171b6c0c960b71a7020d9f60077f6af931a8bbf590da0223dacf75c7af01906020840190610fb7565b50600954600090610c70906001906113f4565b9050610c7c3382610d59565b6001600a83604051610c8e9190611439565b908152604051908190036020019020805491151560ff199092169190911790555050565b60006001600160e01b0319821663780e9d6360e01b1480610394575061039482610de8565b6000818152600260205260408120546001600160a01b0316610d0b5760405162461bcd60e51b81526004016104a190611391565b6000610d16836109dd565b9050806001600160a01b0316846001600160a01b03161480610d515750836001600160a01b0316610d468461042c565b6001600160a01b0316145b949350505050565b610d638282610e0d565b610dab81600580546000838152600660205260408120829055600182018355919091527f036b6384b5eca791c62761152d0c79bb0604c104a5fb6f4eb0703f3154bb3db00155565b6001600160a01b03919091166000908152600760209081526040808320805460018101825581855283852001859055549383526008909152902055565b60006001600160e01b031982166380ac58cd60e01b1480610394575061039482610f82565b6001600160a01b038216610e7f5760405162461bcd60e51b815260206004820152603360248201527f4552433732313a2054686520737570706c6965642061646472657373206973206044820152726e6f7420612076616c6964206164647265737360681b60648201526084016104a1565b6000818152600260205260409020546001600160a01b031615610efa5760405162461bcd60e51b815260206004820152602d60248201527f4552433732313a2054686520737570706c6965642027746f6b656e496427206160448201526c6c72656164792065786973747360981b60648201526084016104a1565b600081815260026020908152604080832080546001600160a01b0319166001600160a01b038716908117909155835260039091528120805460019290610f4190849061140b565b909155505060405181906001600160a01b038416906000907fddf252ad1be2c89b69c2b068fc378daa952ba7f163c4a11628f55a4df523b3ef908290a45050565b60006001600160e01b03198216635b5e139f60e01b148061039457506301ffc9a760e01b6001600160e01b0319831614610394565b828054610fc390611356565b90600052602060002090601f016020900481019282610fe5576000855561102b565b82601f10610ffe57805160ff191683800117855561102b565b8280016001018555821561102b579182015b8281111561102b578251825591602001919060010190611010565b5061103792915061103b565b5090565b5b80821115611037576000815560010161103c565b60006020828403121561106257600080fd5b81356001600160e01b03198116811461107a57600080fd5b9392505050565b634e487b7160e01b600052604160045260246000fd5b600067ffffffffffffffff808411156110b2576110b2611081565b604051601f8501601f19908116603f011681019082821181831017156110da576110da611081565b816040528093508581528686860111156110f357600080fd5b858560208301376000602087830101525050509392505050565b60006020828403121561111f57600080fd5b813567ffffffffffffffff81111561113657600080fd5b8201601f8101841361114757600080fd5b610d5184823560208401611097565b60005b83811015611171578181015183820152602001611159565b8381111561031f5750506000910152565b60208152600082518060208401526111a1816040850160208701611156565b601f01601f19169190910160400192915050565b6000602082840312156111c757600080fd5b5035919050565b80356001600160a01b03811681146111e557600080fd5b919050565b600080604083850312156111fd57600080fd5b611206836111ce565b946020939093013593505050565b60008060006060848603121561122957600080fd5b611232846111ce565b9250611240602085016111ce565b9150604084013590509250925092565b60006020828403121561126257600080fd5b61107a826111ce565b6000806040838503121561127e57600080fd5b611287836111ce565b91506020830135801515811461129c57600080fd5b809150509250929050565b600080600080608085870312156112bd57600080fd5b6112c6856111ce565b93506112d4602086016111ce565b925060408501359150606085013567ffffffffffffffff8111156112f757600080fd5b8501601f8101871361130857600080fd5b61131787823560208401611097565b91505092959194509250565b6000806040838503121561133657600080fd5b61133f836111ce565b915061134d602084016111ce565b90509250929050565b600181811c9082168061136a57607f821691505b6020821081141561138b57634e487b7160e01b600052602260045260246000fd5b50919050565b6020808252602d908201527f4552433732313a2054686520737570706c6965642027746f6b656e496427206460408201526c1bd95cc81b9bdd08195e1a5cdd609a1b606082015260800190565b634e487b7160e01b600052601160045260246000fd5b600082821015611406576114066113de565b500390565b6000821982111561141e5761141e6113de565b500190565b634e487b7160e01b600052603260045260246000fd5b6000825161144b818460208701611156565b919091019291505056fea264697066735822122050c1b5043e06ba9685c2172dfa3fe9001d5e05c9f725e0863af4a6bf7640c02264736f6c634300080c0033",
  "immutableReferences": {},
  "source": "// SPDX-License-Identifier: MIT\npragma solidity ^0.8.0;\n\nimport \"./ERC721Connector.sol\";\n\ncontract DreamWear is ERC721Connector {\n    string[] public dreams;\n\n    mapping(string => bool) public _dreamExists;\n\n    function mint(string memory _dream) public {\n        require(!_dreamExists[_dream], \"Error - Dream already exists!\");\n\n        dreams.push(_dream);\n        uint256 _id = dreams.length - 1;\n\n        _mint(msg.sender, _id);\n\n        _dreamExists[_dream] = true;\n    }\n\n    constructor() ERC721Connector(\"DreamWear\", \"DW\") {}\n}\n",
  "sourcePath": "/Users/ghaieth/0.Dreamwear/dreamwear.github.io/ethereum/src/contracts/DreamWear.sol",
  "compiler": {
    "name": "solc",
    "version": "0.8.12+commit.f00d7308.Emscripten.clang"
  },
  "schemaVersion": "3.4.4",
  "updatedAt": "2022-02-16T15:53:15.149Z",
  "devdoc": {
    "kind": "dev",
    "methods": {},
    "version": 1
  },
  "userdoc": {
    "kind": "user",
    "methods": {},
    "version": 1
  }
}