{
  "contractName": "DreamWear",
  "abi": [
    {
      "inputs": [],
      "stateMutability": "nonpayable",
      "type": "constructor"
    },
    {
      "anonymous": false,
      "inputs": [
        {
          "indexed": true,
          "internalType": "address",
          "name": "owner",
          "type": "address"
        },
        {
          "indexed": true,
          "internalType": "address",
          "name": "approved",
          "type": "address"
        },
        {
          "indexed": true,
          "internalType": "uint256",
          "name": "tokenId",
          "type": "uint256"
        }
      ],
      "name": "Approval",
      "type": "event"
    },
    {
      "anonymous": false,
      "inputs": [
        {
          "indexed": true,
          "internalType": "address",
          "name": "from",
          "type": "address"
        },
        {
          "indexed": true,
          "internalType": "address",
          "name": "to",
          "type": "address"
        },
        {
          "indexed": true,
          "internalType": "uint256",
          "name": "tokenId",
          "type": "uint256"
        }
      ],
      "name": "Transfer",
      "type": "event"
    },
    {
      "inputs": [
        {
          "internalType": "address",
          "name": "_to",
          "type": "address"
        },
        {
          "internalType": "uint256",
          "name": "_tokenId",
          "type": "uint256"
        }
      ],
      "name": "approve",
      "outputs": [],
      "stateMutability": "nonpayable",
      "type": "function"
    },
    {
      "inputs": [
        {
          "internalType": "address",
          "name": "_owner",
          "type": "address"
        }
      ],
      "name": "balanceOf",
      "outputs": [
        {
          "internalType": "uint256",
          "name": "",
          "type": "uint256"
        }
      ],
      "stateMutability": "view",
      "type": "function",
      "constant": true
    },
    {
      "inputs": [],
      "name": "name",
      "outputs": [
        {
          "internalType": "string",
          "name": "",
          "type": "string"
        }
      ],
      "stateMutability": "view",
      "type": "function",
      "constant": true
    },
    {
      "inputs": [
        {
          "internalType": "uint256",
          "name": "_tokenId",
          "type": "uint256"
        }
      ],
      "name": "ownerOf",
      "outputs": [
        {
          "internalType": "address",
          "name": "",
          "type": "address"
        }
      ],
      "stateMutability": "view",
      "type": "function",
      "constant": true
    },
    {
      "inputs": [],
      "name": "symbol",
      "outputs": [
        {
          "internalType": "string",
          "name": "",
          "type": "string"
        }
      ],
      "stateMutability": "view",
      "type": "function",
      "constant": true
    },
    {
      "inputs": [
        {
          "internalType": "uint256",
          "name": "_index",
          "type": "uint256"
        }
      ],
      "name": "tokenByIndex",
      "outputs": [
        {
          "internalType": "uint256",
          "name": "",
          "type": "uint256"
        }
      ],
      "stateMutability": "view",
      "type": "function",
      "constant": true
    },
    {
      "inputs": [
        {
          "internalType": "address",
          "name": "_owner",
          "type": "address"
        },
        {
          "internalType": "uint256",
          "name": "_index",
          "type": "uint256"
        }
      ],
      "name": "tokenOfOwnerByIndex",
      "outputs": [
        {
          "internalType": "uint256",
          "name": "",
          "type": "uint256"
        }
      ],
      "stateMutability": "view",
      "type": "function",
      "constant": true
    },
    {
      "inputs": [],
      "name": "totalSupply",
      "outputs": [
        {
          "internalType": "uint256",
          "name": "",
          "type": "uint256"
        }
      ],
      "stateMutability": "view",
      "type": "function",
      "constant": true
    },
    {
      "inputs": [
        {
          "internalType": "address",
          "name": "_from",
          "type": "address"
        },
        {
          "internalType": "address",
          "name": "_to",
          "type": "address"
        },
        {
          "internalType": "uint256",
          "name": "_tokenId",
          "type": "uint256"
        }
      ],
      "name": "transferFrom",
      "outputs": [],
      "stateMutability": "payable",
      "type": "function",
      "payable": true
    },
    {
      "inputs": [
        {
          "internalType": "string",
          "name": "_dream",
          "type": "string"
        }
      ],
      "name": "mint",
      "outputs": [],
      "stateMutability": "nonpayable",
      "type": "function"
    }
  ],
  "bytecode": "0x60806040523480156200001157600080fd5b506040805180820182526009815268223932b0b6abb2b0b960b91b602080830191825283518085019094526002845261445760f01b90840152815191929183918391620000619160009162000082565b5080516200007790600190602084019062000082565b505050505062000165565b828054620000909062000128565b90600052602060002090601f016020900481019282620000b45760008555620000ff565b82601f10620000cf57805160ff1916838001178555620000ff565b82800160010185558215620000ff579182015b82811115620000ff578251825591602001919060010190620000e2565b506200010d92915062000111565b5090565b5b808211156200010d576000815560010162000112565b600181811c908216806200013d57607f821691505b602082108114156200015f57634e487b7160e01b600052602260045260246000fd5b50919050565b61108180620001756000396000f3fe6080604052600436106100915760003560e01c80634f6ccce7116100595780634f6ccce7146101355780636352211e1461015557806370a082311461018d57806395d89b41146101ad578063d85d3d27146101c257600080fd5b806306fdde0314610096578063095ea7b3146100c157806318160ddd146100e357806323b872dd146101025780632f745c5914610115575b600080fd5b3480156100a257600080fd5b506100ab6101e2565b6040516100b89190610d95565b60405180910390f35b3480156100cd57600080fd5b506100e16100dc366004610de4565b610274565b005b3480156100ef57600080fd5b506005545b6040519081526020016100b8565b6100e1610110366004610e0e565b6103e8565b34801561012157600080fd5b506100f4610130366004610de4565b610659565b34801561014157600080fd5b506100f4610150366004610e4a565b6106fb565b34801561016157600080fd5b50610175610170366004610e4a565b610782565b6040516001600160a01b0390911681526020016100b8565b34801561019957600080fd5b506100f46101a8366004610e63565b610800565b3480156101b957600080fd5b506100ab61089a565b3480156101ce57600080fd5b506100e16101dd366004610e9b565b6108a9565b6060600080546101f190610f4c565b80601f016020809104026020016040519081016040528092919081815260200182805461021d90610f4c565b801561026a5780601f1061023f5761010080835404028352916020019161026a565b820191906000526020600020905b81548152906001019060200180831161024d57829003601f168201915b5050505050905090565b600061027f82610782565b9050336001600160a01b038216146103045760405162461bcd60e51b815260206004820152603860248201527f4552433732313a20546865206d6573736167652073656e646572206973206e6f60448201527f7420746865206f776e6572206f662074686520746f6b656e000000000000000060648201526084015b60405180910390fd5b806001600160a01b0316836001600160a01b0316141561038c5760405162461bcd60e51b815260206004820152603a60248201527f4552433732313a2054686520737570706c69656420616464726573732069732060448201527f6e6f7420746865206f776e6572206f662074686520746f6b656e00000000000060648201526084016102fb565b60008281526004602052604080822080546001600160a01b0319166001600160a01b0387811691821790925591518593918516917f8c5be1e5ebec7d5bd14f71427d1e84f3dd0314c0f7b2291e5b200ac8c7c3b92591a4505050565b6103f233826109b1565b6104585760405162461bcd60e51b815260206004820152603160248201527f4552433732313a207472616e736665722063616c6c6572206973206e6f74206f6044820152701ddb995c881b9bdc88185c1c1c9bdd9959607a1b60648201526084016102fb565b6000818152600260205260409020546001600160a01b031661048c5760405162461bcd60e51b81526004016102fb90610f87565b61049581610782565b6001600160a01b0316836001600160a01b0316146105255760405162461bcd60e51b815260206004820152604160248201527f4552433732313a2054686520737570706c696564202766726f6d27206164647260448201527f657373206973206e6f7420746865206f776e6572206f662074686520746f6b656064820152603760f91b608482015260a4016102fb565b6001600160a01b0382166105a15760405162461bcd60e51b815260206004820152603860248201527f4552433732313a2054686520737570706c6965642027746f272061646472657360448201527f73206973206e6f7420612076616c69642061646472657373000000000000000060648201526084016102fb565b6001600160a01b03831660009081526003602052604081208054600192906105ca908490610fea565b90915550506001600160a01b03821660009081526003602052604081208054600192906105f8908490611001565b909155505060008181526002602052604080822080546001600160a01b0319166001600160a01b0386811691821790925591518493918716917fddf252ad1be2c89b69c2b068fc378daa952ba7f163c4a11628f55a4df523b3ef91a4505050565b600061066483610800565b82106106be5760405162461bcd60e51b8152602060048201526024808201527f4552433732313a206f776e657220696e646578206973206f7574206f6620626f604482015263756e647360e01b60648201526084016102fb565b6001600160a01b03831660009081526007602052604090208054839081106106e8576106e8611019565b9060005260206000200154905092915050565b600554600090821061075d5760405162461bcd60e51b815260206004820152602560248201527f4552433732313a20676c6f62616c20696e646578206973206f7574206f6620626044820152646f756e647360d81b60648201526084016102fb565b6005828154811061077057610770611019565b90600052602060002001549050919050565b6000818152600260205260408120546001600160a01b0316806107fa5760405162461bcd60e51b815260206004820152602a60248201527f4552433732313a2054686520737570706c69656420746f6b656e49642069732060448201526903737ba103b30b634b2160b51b60648201526084016102fb565b92915050565b60006001600160a01b03821661087e5760405162461bcd60e51b815260206004820152603960248201527f4552433732313a2054686520737570706c696564206f776e657220616464726560448201527f7373206973206e6f7420612076616c696420616464726573730000000000000060648201526084016102fb565b506001600160a01b031660009081526003602052604090205490565b6060600180546101f190610f4c565b600a816040516108b9919061102f565b9081526040519081900360200190205460ff16156109195760405162461bcd60e51b815260206004820152601d60248201527f4572726f72202d20647265616d20616c7265616479206578697374732100000060448201526064016102fb565b60098054600181018255600091909152815161095c917f6e1540171b6c0c960b71a7020d9f60077f6af931a8bbf590da0223dacf75c7af01906020840190610ccc565b5060095460009061096f90600190610fea565b905061097b3382610a33565b6001600a8360405161098d919061102f565b908152604051908190036020019020805491151560ff199092169190911790555050565b6000818152600260205260408120546001600160a01b03166109e55760405162461bcd60e51b81526004016102fb90610f87565b60006109f083610782565b9050806001600160a01b0316846001600160a01b03161480610a2b5750836001600160a01b0316610a2084610ac2565b6001600160a01b0316145b949350505050565b610a3d8282610b57565b610a8581600580546000838152600660205260408120829055600182018355919091527f036b6384b5eca791c62761152d0c79bb0604c104a5fb6f4eb0703f3154bb3db00155565b6001600160a01b03919091166000908152600760209081526040808320805460018101825581855283852001859055549383526008909152902055565b6000818152600260205260408120546001600160a01b0316610b3b5760405162461bcd60e51b815260206004820152602c60248201527f4552433732313a20617070726f76656420717565727920666f72206e6f6e657860448201526b34b9ba32b73a103a37b5b2b760a11b60648201526084016102fb565b506000908152600460205260409020546001600160a01b031690565b6001600160a01b038216610bc95760405162461bcd60e51b815260206004820152603360248201527f4552433732313a2054686520737570706c6965642061646472657373206973206044820152726e6f7420612076616c6964206164647265737360681b60648201526084016102fb565b6000818152600260205260409020546001600160a01b031615610c445760405162461bcd60e51b815260206004820152602d60248201527f4552433732313a2054686520737570706c6965642027746f6b656e496427206160448201526c6c72656164792065786973747360981b60648201526084016102fb565b600081815260026020908152604080832080546001600160a01b0319166001600160a01b038716908117909155835260039091528120805460019290610c8b908490611001565b909155505060405181906001600160a01b038416906000907fddf252ad1be2c89b69c2b068fc378daa952ba7f163c4a11628f55a4df523b3ef908290a45050565b828054610cd890610f4c565b90600052602060002090601f016020900481019282610cfa5760008555610d40565b82601f10610d1357805160ff1916838001178555610d40565b82800160010185558215610d40579182015b82811115610d40578251825591602001919060010190610d25565b50610d4c929150610d50565b5090565b5b80821115610d4c5760008155600101610d51565b60005b83811015610d80578181015183820152602001610d68565b83811115610d8f576000848401525b50505050565b6020815260008251806020840152610db4816040850160208701610d65565b601f01601f19169190910160400192915050565b80356001600160a01b0381168114610ddf57600080fd5b919050565b60008060408385031215610df757600080fd5b610e0083610dc8565b946020939093013593505050565b600080600060608486031215610e2357600080fd5b610e2c84610dc8565b9250610e3a60208501610dc8565b9150604084013590509250925092565b600060208284031215610e5c57600080fd5b5035919050565b600060208284031215610e7557600080fd5b610e7e82610dc8565b9392505050565b634e487b7160e01b600052604160045260246000fd5b600060208284031215610ead57600080fd5b813567ffffffffffffffff80821115610ec557600080fd5b818401915084601f830112610ed957600080fd5b813581811115610eeb57610eeb610e85565b604051601f8201601f19908116603f01168101908382118183101715610f1357610f13610e85565b81604052828152876020848701011115610f2c57600080fd5b826020860160208301376000928101602001929092525095945050505050565b600181811c90821680610f6057607f821691505b60208210811415610f8157634e487b7160e01b600052602260045260246000fd5b50919050565b6020808252602d908201527f4552433732313a2054686520737570706c6965642027746f6b656e496427206460408201526c1bd95cc81b9bdd08195e1a5cdd609a1b606082015260800190565b634e487b7160e01b600052601160045260246000fd5b600082821015610ffc57610ffc610fd4565b500390565b6000821982111561101457611014610fd4565b500190565b634e487b7160e01b600052603260045260246000fd5b60008251611041818460208701610d65565b919091019291505056fea26469706673582212203376296dfe55d7d3a189ba522f5059894119614ac875f5b490a82998d894b4ae64736f6c634300080b0033",
  "immutableReferences": {},
  "source": "// SPDX-License-Identifier: MIT\npragma solidity ^0.8.0;\n\nimport \"./ERC721Connector.sol\";\n\ncontract DreamWear is ERC721Connector {\n    string[] private dreams;\n\n    mapping(string => bool) private _dreamExists;\n\n    function mint(string memory _dream) public {\n        require(!_dreamExists[_dream], \"Error - dream already exists!\");\n\n        dreams.push(_dream);\n        uint256 _id = dreams.length - 1;\n\n        _mint(msg.sender, _id);\n\n        _dreamExists[_dream] = true;\n    }\n\n    constructor() ERC721Connector(\"DreamWear\", \"DW\") {}\n}\n",
  "sourcePath": "/Users/ghaieth/0.Dreamwear/dreamwear.github.io/ethereum/src/contracts/DreamWear.sol",
  "compiler": {
    "name": "solc",
    "version": "0.8.11+commit.d7f03943.Emscripten.clang"
  },
  "schemaVersion": "3.4.4",
  "updatedAt": "2022-02-11T09:48:14.681Z",
  "networkType": "ethereum",
  "devdoc": {
    "kind": "dev",
    "methods": {},
    "version": 1
  },
  "userdoc": {
    "kind": "user",
    "methods": {},
    "version": 1
  }
}