{
  "contractName": "ERC721Enumerable",
  "abi": [
    {
      "anonymous": false,
      "inputs": [
        {
          "indexed": true,
          "internalType": "address",
          "name": "owner",
          "type": "address"
        },
        {
          "indexed": true,
          "internalType": "address",
          "name": "approved",
          "type": "address"
        },
        {
          "indexed": true,
          "internalType": "uint256",
          "name": "tokenId",
          "type": "uint256"
        }
      ],
      "name": "Approval",
      "type": "event"
    },
    {
      "anonymous": false,
      "inputs": [
        {
          "indexed": true,
          "internalType": "address",
          "name": "from",
          "type": "address"
        },
        {
          "indexed": true,
          "internalType": "address",
          "name": "to",
          "type": "address"
        },
        {
          "indexed": true,
          "internalType": "uint256",
          "name": "tokenId",
          "type": "uint256"
        }
      ],
      "name": "Transfer",
      "type": "event"
    },
    {
      "inputs": [
        {
          "internalType": "address",
          "name": "_to",
          "type": "address"
        },
        {
          "internalType": "uint256",
          "name": "_tokenId",
          "type": "uint256"
        }
      ],
      "name": "approve",
      "outputs": [],
      "stateMutability": "nonpayable",
      "type": "function"
    },
    {
      "inputs": [
        {
          "internalType": "address",
          "name": "_owner",
          "type": "address"
        }
      ],
      "name": "balanceOf",
      "outputs": [
        {
          "internalType": "uint256",
          "name": "",
          "type": "uint256"
        }
      ],
      "stateMutability": "view",
      "type": "function"
    },
    {
      "inputs": [
        {
          "internalType": "uint256",
          "name": "_tokenId",
          "type": "uint256"
        }
      ],
      "name": "ownerOf",
      "outputs": [
        {
          "internalType": "address",
          "name": "",
          "type": "address"
        }
      ],
      "stateMutability": "view",
      "type": "function"
    },
    {
      "inputs": [
        {
          "internalType": "address",
          "name": "_from",
          "type": "address"
        },
        {
          "internalType": "address",
          "name": "_to",
          "type": "address"
        },
        {
          "internalType": "uint256",
          "name": "_tokenId",
          "type": "uint256"
        }
      ],
      "name": "transferFrom",
      "outputs": [],
      "stateMutability": "payable",
      "type": "function"
    },
    {
      "inputs": [],
      "name": "totalSupply",
      "outputs": [
        {
          "internalType": "uint256",
          "name": "",
          "type": "uint256"
        }
      ],
      "stateMutability": "view",
      "type": "function"
    },
    {
      "inputs": [
        {
          "internalType": "uint256",
          "name": "_index",
          "type": "uint256"
        }
      ],
      "name": "tokenByIndex",
      "outputs": [
        {
          "internalType": "uint256",
          "name": "",
          "type": "uint256"
        }
      ],
      "stateMutability": "view",
      "type": "function"
    },
    {
      "inputs": [
        {
          "internalType": "address",
          "name": "_owner",
          "type": "address"
        },
        {
          "internalType": "uint256",
          "name": "_index",
          "type": "uint256"
        }
      ],
      "name": "tokenOfOwnerByIndex",
      "outputs": [
        {
          "internalType": "uint256",
          "name": "",
          "type": "uint256"
        }
      ],
      "stateMutability": "view",
      "type": "function"
    }
  ],
  "bytecode": "0x608060405234801561001057600080fd5b50610a42806100206000396000f3fe6080604052600436106100705760003560e01c80632f745c591161004e5780632f745c59146100ce5780634f6ccce7146100ee5780636352211e1461010e57806370a082311461014657600080fd5b8063095ea7b31461007557806318160ddd1461009757806323b872dd146100bb575b600080fd5b34801561008157600080fd5b506100956100903660046108c3565b610166565b005b3480156100a357600080fd5b506003545b6040519081526020015b60405180910390f35b6100956100c93660046108ed565b6102da565b3480156100da57600080fd5b506100a86100e93660046108c3565b61054f565b3480156100fa57600080fd5b506100a8610109366004610929565b6105f1565b34801561011a57600080fd5b5061012e610129366004610929565b610678565b6040516001600160a01b0390911681526020016100b2565b34801561015257600080fd5b506100a8610161366004610942565b6106f6565b600061017182610678565b9050336001600160a01b038216146101f65760405162461bcd60e51b815260206004820152603860248201527f4552433732313a20546865206d6573736167652073656e646572206973206e6f60448201527f7420746865206f776e6572206f662074686520746f6b656e000000000000000060648201526084015b60405180910390fd5b806001600160a01b0316836001600160a01b0316141561027e5760405162461bcd60e51b815260206004820152603a60248201527f4552433732313a2054686520737570706c69656420616464726573732069732060448201527f6e6f7420746865206f776e6572206f662074686520746f6b656e00000000000060648201526084016101ed565b60008281526002602052604080822080546001600160a01b0319166001600160a01b0387811691821790925591518593918516917f8c5be1e5ebec7d5bd14f71427d1e84f3dd0314c0f7b2291e5b200ac8c7c3b92591a4505050565b6102e43382610790565b61034a5760405162461bcd60e51b815260206004820152603160248201527f4552433732313a207472616e736665722063616c6c6572206973206e6f74206f6044820152701ddb995c881b9bdc88185c1c1c9bdd9959607a1b60648201526084016101ed565b6000818152602081905260409020546001600160a01b031661037e5760405162461bcd60e51b81526004016101ed90610964565b61038781610678565b6001600160a01b0316836001600160a01b0316146104175760405162461bcd60e51b815260206004820152604160248201527f4552433732313a2054686520737570706c696564202766726f6d27206164647260448201527f657373206973206e6f7420746865206f776e6572206f662074686520746f6b656064820152603760f91b608482015260a4016101ed565b6001600160a01b0382166104935760405162461bcd60e51b815260206004820152603860248201527f4552433732313a2054686520737570706c6965642027746f272061646472657360448201527f73206973206e6f7420612076616c69642061646472657373000000000000000060648201526084016101ed565b6001600160a01b038316600090815260016020819052604082208054919290916104be9084906109c7565b90915550506001600160a01b038216600090815260016020819052604082208054919290916104ee9084906109de565b909155505060008181526020819052604080822080546001600160a01b0319166001600160a01b0386811691821790925591518493918716917fddf252ad1be2c89b69c2b068fc378daa952ba7f163c4a11628f55a4df523b3ef91a4505050565b600061055a836106f6565b82106105b45760405162461bcd60e51b8152602060048201526024808201527f4552433732313a206f776e657220696e646578206973206f7574206f6620626f604482015263756e647360e01b60648201526084016101ed565b6001600160a01b03831660009081526005602052604090208054839081106105de576105de6109f6565b9060005260206000200154905092915050565b60035460009082106106535760405162461bcd60e51b815260206004820152602560248201527f4552433732313a20676c6f62616c20696e646578206973206f7574206f6620626044820152646f756e647360d81b60648201526084016101ed565b60038281548110610666576106666109f6565b90600052602060002001549050919050565b6000818152602081905260408120546001600160a01b0316806106f05760405162461bcd60e51b815260206004820152602a60248201527f4552433732313a2054686520737570706c69656420746f6b656e49642069732060448201526903737ba103b30b634b2160b51b60648201526084016101ed565b92915050565b60006001600160a01b0382166107745760405162461bcd60e51b815260206004820152603960248201527f4552433732313a2054686520737570706c696564206f776e657220616464726560448201527f7373206973206e6f7420612076616c696420616464726573730000000000000060648201526084016101ed565b506001600160a01b031660009081526001602052604090205490565b6000818152602081905260408120546001600160a01b03166107c45760405162461bcd60e51b81526004016101ed90610964565b60006107cf83610678565b9050806001600160a01b0316846001600160a01b0316148061080a5750836001600160a01b03166107ff84610812565b6001600160a01b0316145b949350505050565b6000818152602081905260408120546001600160a01b031661088b5760405162461bcd60e51b815260206004820152602c60248201527f4552433732313a20617070726f76656420717565727920666f72206e6f6e657860448201526b34b9ba32b73a103a37b5b2b760a11b60648201526084016101ed565b506000908152600260205260409020546001600160a01b031690565b80356001600160a01b03811681146108be57600080fd5b919050565b600080604083850312156108d657600080fd5b6108df836108a7565b946020939093013593505050565b60008060006060848603121561090257600080fd5b61090b846108a7565b9250610919602085016108a7565b9150604084013590509250925092565b60006020828403121561093b57600080fd5b5035919050565b60006020828403121561095457600080fd5b61095d826108a7565b9392505050565b6020808252602d908201527f4552433732313a2054686520737570706c6965642027746f6b656e496427206460408201526c1bd95cc81b9bdd08195e1a5cdd609a1b606082015260800190565b634e487b7160e01b600052601160045260246000fd5b6000828210156109d9576109d96109b1565b500390565b600082198211156109f1576109f16109b1565b500190565b634e487b7160e01b600052603260045260246000fdfea26469706673582212200ba3f7fc2d25980206ccada3bfb1d6d10ef5a26ceece84a2504a277fe20e9d3d64736f6c634300080b0033",
  "immutableReferences": {},
  "source": "// SPDX-License-Identifier: MIT\npragma solidity ^0.8.0;\n\nimport \"./ERC721.sol\";\n\ncontract ERC721Enumerable is ERC721 {\n    uint256[] private _allTokens;\n\n    mapping(uint256 => uint256) private _allTokensIndex;\n\n    mapping(address => uint256[]) private _ownedTokens;\n\n    mapping(uint256 => uint256) private _ownedTokensIndex;\n\n    function totalSupply() external view returns (uint256) {\n        return _allTokens.length;\n    }\n\n    function tokenByIndex(uint256 _index) external view returns (uint256) {\n        require(\n            _index < _allTokens.length,\n            \"ERC721: global index is out of bounds\"\n        );\n        return _allTokens[_index];\n    }\n\n    function tokenOfOwnerByIndex(address _owner, uint256 _index)\n        external\n        view\n        returns (uint256)\n    {\n        require(\n            _index < balanceOf(_owner),\n            \"ERC721: owner index is out of bounds\"\n        );\n        return _ownedTokens[_owner][_index];\n    }\n\n    function _mint(address to, uint256 tokenId) internal override(ERC721) {\n        super._mint(to, tokenId);\n        _addTokenToAllTokens(tokenId);\n        _addTokenToOwnedTokens(to, tokenId);\n    }\n\n    function _addTokenToAllTokens(uint256 tokenId) private {\n        _allTokensIndex[tokenId] = _allTokens.length;\n        _allTokens.push(tokenId);\n    }\n\n    function _addTokenToOwnedTokens(address to, uint256 tokenId) private {\n        _ownedTokens[to].push(tokenId);\n        _ownedTokensIndex[tokenId] = _ownedTokens[to].length;\n    }\n}\n",
  "sourcePath": "/Users/ghaieth/0.Dreamwear/dreamwear.github.io/ethereum/src/contracts/ERC721Enumerable.sol",
  "compiler": {
    "name": "solc",
    "version": "0.8.11+commit.d7f03943.Emscripten.clang"
  },
  "schemaVersion": "3.4.4",
  "updatedAt": "2022-02-11T09:47:53.978Z",
  "devdoc": {
    "kind": "dev",
    "methods": {},
    "version": 1
  },
  "userdoc": {
    "kind": "user",
    "methods": {},
    "version": 1
  }
}