{
  "contractName": "ERC721",
  "abi": [
    {
      "anonymous": false,
      "inputs": [
        {
          "indexed": true,
          "internalType": "address",
          "name": "owner",
          "type": "address"
        },
        {
          "indexed": true,
          "internalType": "address",
          "name": "approved",
          "type": "address"
        },
        {
          "indexed": true,
          "internalType": "uint256",
          "name": "tokenId",
          "type": "uint256"
        }
      ],
      "name": "Approval",
      "type": "event"
    },
    {
      "anonymous": false,
      "inputs": [
        {
          "indexed": true,
          "internalType": "address",
          "name": "from",
          "type": "address"
        },
        {
          "indexed": true,
          "internalType": "address",
          "name": "to",
          "type": "address"
        },
        {
          "indexed": true,
          "internalType": "uint256",
          "name": "tokenId",
          "type": "uint256"
        }
      ],
      "name": "Transfer",
      "type": "event"
    },
    {
      "inputs": [
        {
          "internalType": "address",
          "name": "_owner",
          "type": "address"
        }
      ],
      "name": "balanceOf",
      "outputs": [
        {
          "internalType": "uint256",
          "name": "",
          "type": "uint256"
        }
      ],
      "stateMutability": "view",
      "type": "function"
    },
    {
      "inputs": [
        {
          "internalType": "uint256",
          "name": "_tokenId",
          "type": "uint256"
        }
      ],
      "name": "ownerOf",
      "outputs": [
        {
          "internalType": "address",
          "name": "",
          "type": "address"
        }
      ],
      "stateMutability": "view",
      "type": "function"
    },
    {
      "inputs": [
        {
          "internalType": "address",
          "name": "_from",
          "type": "address"
        },
        {
          "internalType": "address",
          "name": "_to",
          "type": "address"
        },
        {
          "internalType": "uint256",
          "name": "_tokenId",
          "type": "uint256"
        }
      ],
      "name": "transferFrom",
      "outputs": [],
      "stateMutability": "payable",
      "type": "function"
    },
    {
      "inputs": [
        {
          "internalType": "address",
          "name": "_to",
          "type": "address"
        },
        {
          "internalType": "uint256",
          "name": "_tokenId",
          "type": "uint256"
        }
      ],
      "name": "approve",
      "outputs": [],
      "stateMutability": "nonpayable",
      "type": "function"
    }
  ],
  "bytecode": "0x608060405234801561001057600080fd5b50610881806100206000396000f3fe60806040526004361061003f5760003560e01c8063095ea7b31461004457806323b872dd146100665780636352211e1461007957806370a08231146100b6575b600080fd5b34801561005057600080fd5b5061006461005f366004610718565b6100e4565b005b610064610074366004610742565b610258565b34801561008557600080fd5b5061009961009436600461077e565b6104cd565b6040516001600160a01b0390911681526020015b60405180910390f35b3480156100c257600080fd5b506100d66100d1366004610797565b61054b565b6040519081526020016100ad565b60006100ef826104cd565b9050336001600160a01b038216146101745760405162461bcd60e51b815260206004820152603860248201527f4552433732313a20546865206d6573736167652073656e646572206973206e6f60448201527f7420746865206f776e6572206f662074686520746f6b656e000000000000000060648201526084015b60405180910390fd5b806001600160a01b0316836001600160a01b031614156101fc5760405162461bcd60e51b815260206004820152603a60248201527f4552433732313a2054686520737570706c69656420616464726573732069732060448201527f6e6f7420746865206f776e6572206f662074686520746f6b656e000000000000606482015260840161016b565b60008281526002602052604080822080546001600160a01b0319166001600160a01b0387811691821790925591518593918516917f8c5be1e5ebec7d5bd14f71427d1e84f3dd0314c0f7b2291e5b200ac8c7c3b92591a4505050565b61026233826105e5565b6102c85760405162461bcd60e51b815260206004820152603160248201527f4552433732313a207472616e736665722063616c6c6572206973206e6f74206f6044820152701ddb995c881b9bdc88185c1c1c9bdd9959607a1b606482015260840161016b565b6000818152602081905260409020546001600160a01b03166102fc5760405162461bcd60e51b815260040161016b906107b9565b610305816104cd565b6001600160a01b0316836001600160a01b0316146103955760405162461bcd60e51b815260206004820152604160248201527f4552433732313a2054686520737570706c696564202766726f6d27206164647260448201527f657373206973206e6f7420746865206f776e6572206f662074686520746f6b656064820152603760f91b608482015260a40161016b565b6001600160a01b0382166104115760405162461bcd60e51b815260206004820152603860248201527f4552433732313a2054686520737570706c6965642027746f272061646472657360448201527f73206973206e6f7420612076616c696420616464726573730000000000000000606482015260840161016b565b6001600160a01b0383166000908152600160208190526040822080549192909161043c90849061081c565b90915550506001600160a01b0382166000908152600160208190526040822080549192909161046c908490610833565b909155505060008181526020819052604080822080546001600160a01b0319166001600160a01b0386811691821790925591518493918716917fddf252ad1be2c89b69c2b068fc378daa952ba7f163c4a11628f55a4df523b3ef91a4505050565b6000818152602081905260408120546001600160a01b0316806105455760405162461bcd60e51b815260206004820152602a60248201527f4552433732313a2054686520737570706c69656420746f6b656e49642069732060448201526903737ba103b30b634b2160b51b606482015260840161016b565b92915050565b60006001600160a01b0382166105c95760405162461bcd60e51b815260206004820152603960248201527f4552433732313a2054686520737570706c696564206f776e657220616464726560448201527f7373206973206e6f7420612076616c6964206164647265737300000000000000606482015260840161016b565b506001600160a01b031660009081526001602052604090205490565b6000818152602081905260408120546001600160a01b03166106195760405162461bcd60e51b815260040161016b906107b9565b6000610624836104cd565b9050806001600160a01b0316846001600160a01b0316148061065f5750836001600160a01b031661065484610667565b6001600160a01b0316145b949350505050565b6000818152602081905260408120546001600160a01b03166106e05760405162461bcd60e51b815260206004820152602c60248201527f4552433732313a20617070726f76656420717565727920666f72206e6f6e657860448201526b34b9ba32b73a103a37b5b2b760a11b606482015260840161016b565b506000908152600260205260409020546001600160a01b031690565b80356001600160a01b038116811461071357600080fd5b919050565b6000806040838503121561072b57600080fd5b610734836106fc565b946020939093013593505050565b60008060006060848603121561075757600080fd5b610760846106fc565b925061076e602085016106fc565b9150604084013590509250925092565b60006020828403121561079057600080fd5b5035919050565b6000602082840312156107a957600080fd5b6107b2826106fc565b9392505050565b6020808252602d908201527f4552433732313a2054686520737570706c6965642027746f6b656e496427206460408201526c1bd95cc81b9bdd08195e1a5cdd609a1b606082015260800190565b634e487b7160e01b600052601160045260246000fd5b60008282101561082e5761082e610806565b500390565b6000821982111561084657610846610806565b50019056fea26469706673582212208a9a8cfc40236cbb4ecc00eb1b156e4bbc3f337f4a377b3597b63054cec8e66f64736f6c634300080b0033",
  "immutableReferences": {},
  "source": "// SPDX-License-Identifier: MIT\npragma solidity ^0.8.0;\n\ncontract ERC721 {\n    event Transfer(\n        address indexed from,\n        address indexed to,\n        uint256 indexed tokenId\n    );\n\n    event Approval(\n        address indexed owner,\n        address indexed approved,\n        uint256 indexed tokenId\n    );\n\n    mapping(uint256 => address) private _tokenOwner;\n\n    mapping(address => uint256) private _OwnedTokensCount;\n\n    mapping(uint256 => address) private _tokenApprovals;\n\n    function balanceOf(address _owner) public view returns (uint256) {\n        require(\n            _owner != address(0),\n            \"ERC721: The supplied owner address is not a valid address\"\n        );\n\n        return _OwnedTokensCount[_owner];\n    }\n\n    function ownerOf(uint256 _tokenId) public view returns (address) {\n        address owner = _tokenOwner[_tokenId];\n\n        require(\n            owner != address(0),\n            \"ERC721: The supplied tokenId is not valid \"\n        );\n\n        return owner;\n    }\n\n    // function safeTransferFrom(\n    //     address _from,\n    //     address _to,\n    //     uint256 _tokenId,\n    //     bytes data\n    // ) external payable {}\n\n    // function safeTransferFrom(\n    //     address _from,\n    //     address _to,\n    //     uint256 _tokenId\n    // ) external payable {}\n\n    function transferFrom(\n        address _from,\n        address _to,\n        uint256 _tokenId\n    ) external payable {\n        require(\n            _isApprovedOrOwner(msg.sender, _tokenId),\n            \"ERC721: transfer caller is not owner nor approved\"\n        );\n        require(\n            _exists(_tokenId),\n            \"ERC721: The supplied 'tokenId' does not exist\"\n        );\n        require(\n            _from == ownerOf(_tokenId),\n            \"ERC721: The supplied 'from' address is not the owner of the token\"\n        );\n        require(\n            _to != address(0),\n            \"ERC721: The supplied 'to' address is not a valid address\"\n        );\n\n        _OwnedTokensCount[_from] -= 1;\n        _OwnedTokensCount[_to] += 1;\n        _tokenOwner[_tokenId] = _to;\n\n        emit Transfer(_from, _to, _tokenId);\n    }\n\n    function approve(address _to, uint256 _tokenId) external {\n        address owner = ownerOf(_tokenId);\n\n        require(\n            msg.sender == owner,\n            \"ERC721: The message sender is not the owner of the token\"\n        );\n        require(\n            _to != owner,\n            \"ERC721: The supplied address is not the owner of the token\"\n        );\n\n        _tokenApprovals[_tokenId] = _to;\n\n        emit Approval(owner, _to, _tokenId);\n    }\n\n    function _isApprovedOrOwner(address _spender, uint256 _tokenId)\n        internal\n        view\n        returns (bool)\n    {\n        require(\n            _exists(_tokenId),\n            \"ERC721: The supplied 'tokenId' does not exist\"\n        );\n\n        address owner = ownerOf(_tokenId);\n        return (_spender == owner || _getApproved(_tokenId) == _spender);\n    }\n\n    function _getApproved(uint256 _tokenId) internal view returns (address) {\n        require(\n            _exists(_tokenId),\n            \"ERC721: approved query for nonexistent token\"\n        );\n\n        return _tokenApprovals[_tokenId];\n    }\n\n    function _exists(uint256 _tokenId) internal view returns (bool) {\n        address owner = _tokenOwner[_tokenId];\n        return owner != address(0);\n    }\n\n    function _mint(address _to, uint256 _tokenId) internal virtual {\n        require(\n            _to != address(0),\n            \"ERC721: The supplied address is not a valid address\"\n        );\n        require(\n            !_exists(_tokenId),\n            \"ERC721: The supplied 'tokenId' already exists\"\n        );\n\n        _tokenOwner[_tokenId] = _to;\n        _OwnedTokensCount[_to] += 1;\n\n        emit Transfer(address(0), _to, _tokenId);\n    }\n}\n",
  "sourcePath": "/Users/ghaieth/0.Dreamwear/dreamwear.github.io/ethereum/src/contracts/ERC721.sol",
  "compiler": {
    "name": "solc",
    "version": "0.8.11+commit.d7f03943.Emscripten.clang"
  },
  "schemaVersion": "3.4.4",
  "updatedAt": "2022-02-11T09:47:53.968Z",
  "devdoc": {
    "kind": "dev",
    "methods": {},
    "version": 1
  },
  "userdoc": {
    "kind": "user",
    "methods": {},
    "version": 1
  }
}