{
  "contractName": "ERC721Connector",
  "abi": [
    {
      "inputs": [
        {
          "internalType": "string",
          "name": "name",
          "type": "string"
        },
        {
          "internalType": "string",
          "name": "symbol",
          "type": "string"
        }
      ],
      "stateMutability": "nonpayable",
      "type": "constructor"
    },
    {
      "anonymous": false,
      "inputs": [
        {
          "indexed": true,
          "internalType": "address",
          "name": "owner",
          "type": "address"
        },
        {
          "indexed": true,
          "internalType": "address",
          "name": "approved",
          "type": "address"
        },
        {
          "indexed": true,
          "internalType": "uint256",
          "name": "tokenId",
          "type": "uint256"
        }
      ],
      "name": "Approval",
      "type": "event"
    },
    {
      "anonymous": false,
      "inputs": [
        {
          "indexed": true,
          "internalType": "address",
          "name": "from",
          "type": "address"
        },
        {
          "indexed": true,
          "internalType": "address",
          "name": "to",
          "type": "address"
        },
        {
          "indexed": true,
          "internalType": "uint256",
          "name": "tokenId",
          "type": "uint256"
        }
      ],
      "name": "Transfer",
      "type": "event"
    },
    {
      "inputs": [
        {
          "internalType": "address",
          "name": "_to",
          "type": "address"
        },
        {
          "internalType": "uint256",
          "name": "_tokenId",
          "type": "uint256"
        }
      ],
      "name": "approve",
      "outputs": [],
      "stateMutability": "nonpayable",
      "type": "function"
    },
    {
      "inputs": [
        {
          "internalType": "address",
          "name": "_owner",
          "type": "address"
        }
      ],
      "name": "balanceOf",
      "outputs": [
        {
          "internalType": "uint256",
          "name": "",
          "type": "uint256"
        }
      ],
      "stateMutability": "view",
      "type": "function"
    },
    {
      "inputs": [],
      "name": "name",
      "outputs": [
        {
          "internalType": "string",
          "name": "",
          "type": "string"
        }
      ],
      "stateMutability": "view",
      "type": "function"
    },
    {
      "inputs": [
        {
          "internalType": "uint256",
          "name": "_tokenId",
          "type": "uint256"
        }
      ],
      "name": "ownerOf",
      "outputs": [
        {
          "internalType": "address",
          "name": "",
          "type": "address"
        }
      ],
      "stateMutability": "view",
      "type": "function"
    },
    {
      "inputs": [],
      "name": "symbol",
      "outputs": [
        {
          "internalType": "string",
          "name": "",
          "type": "string"
        }
      ],
      "stateMutability": "view",
      "type": "function"
    },
    {
      "inputs": [
        {
          "internalType": "uint256",
          "name": "_index",
          "type": "uint256"
        }
      ],
      "name": "tokenByIndex",
      "outputs": [
        {
          "internalType": "uint256",
          "name": "",
          "type": "uint256"
        }
      ],
      "stateMutability": "view",
      "type": "function"
    },
    {
      "inputs": [
        {
          "internalType": "address",
          "name": "_owner",
          "type": "address"
        },
        {
          "internalType": "uint256",
          "name": "_index",
          "type": "uint256"
        }
      ],
      "name": "tokenOfOwnerByIndex",
      "outputs": [
        {
          "internalType": "uint256",
          "name": "",
          "type": "uint256"
        }
      ],
      "stateMutability": "view",
      "type": "function"
    },
    {
      "inputs": [],
      "name": "totalSupply",
      "outputs": [
        {
          "internalType": "uint256",
          "name": "",
          "type": "uint256"
        }
      ],
      "stateMutability": "view",
      "type": "function"
    },
    {
      "inputs": [
        {
          "internalType": "address",
          "name": "_from",
          "type": "address"
        },
        {
          "internalType": "address",
          "name": "_to",
          "type": "address"
        },
        {
          "internalType": "uint256",
          "name": "_tokenId",
          "type": "uint256"
        }
      ],
      "name": "transferFrom",
      "outputs": [],
      "stateMutability": "payable",
      "type": "function"
    }
  ],
  "bytecode": "0x60806040523480156200001157600080fd5b5060405162000e5838038062000e588339810160408190526200003491620001e1565b8151829082906200004d9060009060208501906200006e565b508051620000639060019060208401906200006e565b505050505062000288565b8280546200007c906200024b565b90600052602060002090601f016020900481019282620000a05760008555620000eb565b82601f10620000bb57805160ff1916838001178555620000eb565b82800160010185558215620000eb579182015b82811115620000eb578251825591602001919060010190620000ce565b50620000f9929150620000fd565b5090565b5b80821115620000f95760008155600101620000fe565b634e487b7160e01b600052604160045260246000fd5b600082601f8301126200013c57600080fd5b81516001600160401b038082111562000159576200015962000114565b604051601f8301601f19908116603f0116810190828211818310171562000184576200018462000114565b81604052838152602092508683858801011115620001a157600080fd5b600091505b83821015620001c55785820183015181830184015290820190620001a6565b83821115620001d75760008385830101525b9695505050505050565b60008060408385031215620001f557600080fd5b82516001600160401b03808211156200020d57600080fd5b6200021b868387016200012a565b935060208501519150808211156200023257600080fd5b5062000241858286016200012a565b9150509250929050565b600181811c908216806200026057607f821691505b602082108114156200028257634e487b7160e01b600052602260045260246000fd5b50919050565b610bc080620002986000396000f3fe6080604052600436106100865760003560e01c80632f745c59116100595780632f745c591461010a5780634f6ccce71461012a5780636352211e1461014a57806370a082311461018257806395d89b41146101a257600080fd5b806306fdde031461008b578063095ea7b3146100b657806318160ddd146100d857806323b872dd146100f7575b600080fd5b34801561009757600080fd5b506100a06101b7565b6040516100ad9190610995565b60405180910390f35b3480156100c257600080fd5b506100d66100d1366004610a06565b610249565b005b3480156100e457600080fd5b506005545b6040519081526020016100ad565b6100d6610105366004610a30565b6103bd565b34801561011657600080fd5b506100e9610125366004610a06565b61062e565b34801561013657600080fd5b506100e9610145366004610a6c565b6106d0565b34801561015657600080fd5b5061016a610165366004610a6c565b610757565b6040516001600160a01b0390911681526020016100ad565b34801561018e57600080fd5b506100e961019d366004610a85565b6107d5565b3480156101ae57600080fd5b506100a061086f565b6060600080546101c690610aa7565b80601f01602080910402602001604051908101604052809291908181526020018280546101f290610aa7565b801561023f5780601f106102145761010080835404028352916020019161023f565b820191906000526020600020905b81548152906001019060200180831161022257829003601f168201915b5050505050905090565b600061025482610757565b9050336001600160a01b038216146102d95760405162461bcd60e51b815260206004820152603860248201527f4552433732313a20546865206d6573736167652073656e646572206973206e6f60448201527f7420746865206f776e6572206f662074686520746f6b656e000000000000000060648201526084015b60405180910390fd5b806001600160a01b0316836001600160a01b031614156103615760405162461bcd60e51b815260206004820152603a60248201527f4552433732313a2054686520737570706c69656420616464726573732069732060448201527f6e6f7420746865206f776e6572206f662074686520746f6b656e00000000000060648201526084016102d0565b60008281526004602052604080822080546001600160a01b0319166001600160a01b0387811691821790925591518593918516917f8c5be1e5ebec7d5bd14f71427d1e84f3dd0314c0f7b2291e5b200ac8c7c3b92591a4505050565b6103c7338261087e565b61042d5760405162461bcd60e51b815260206004820152603160248201527f4552433732313a207472616e736665722063616c6c6572206973206e6f74206f6044820152701ddb995c881b9bdc88185c1c1c9bdd9959607a1b60648201526084016102d0565b6000818152600260205260409020546001600160a01b03166104615760405162461bcd60e51b81526004016102d090610ae2565b61046a81610757565b6001600160a01b0316836001600160a01b0316146104fa5760405162461bcd60e51b815260206004820152604160248201527f4552433732313a2054686520737570706c696564202766726f6d27206164647260448201527f657373206973206e6f7420746865206f776e6572206f662074686520746f6b656064820152603760f91b608482015260a4016102d0565b6001600160a01b0382166105765760405162461bcd60e51b815260206004820152603860248201527f4552433732313a2054686520737570706c6965642027746f272061646472657360448201527f73206973206e6f7420612076616c69642061646472657373000000000000000060648201526084016102d0565b6001600160a01b038316600090815260036020526040812080546001929061059f908490610b45565b90915550506001600160a01b03821660009081526003602052604081208054600192906105cd908490610b5c565b909155505060008181526002602052604080822080546001600160a01b0319166001600160a01b0386811691821790925591518493918716917fddf252ad1be2c89b69c2b068fc378daa952ba7f163c4a11628f55a4df523b3ef91a4505050565b6000610639836107d5565b82106106935760405162461bcd60e51b8152602060048201526024808201527f4552433732313a206f776e657220696e646578206973206f7574206f6620626f604482015263756e647360e01b60648201526084016102d0565b6001600160a01b03831660009081526007602052604090208054839081106106bd576106bd610b74565b9060005260206000200154905092915050565b60055460009082106107325760405162461bcd60e51b815260206004820152602560248201527f4552433732313a20676c6f62616c20696e646578206973206f7574206f6620626044820152646f756e647360d81b60648201526084016102d0565b6005828154811061074557610745610b74565b90600052602060002001549050919050565b6000818152600260205260408120546001600160a01b0316806107cf5760405162461bcd60e51b815260206004820152602a60248201527f4552433732313a2054686520737570706c69656420746f6b656e49642069732060448201526903737ba103b30b634b2160b51b60648201526084016102d0565b92915050565b60006001600160a01b0382166108535760405162461bcd60e51b815260206004820152603960248201527f4552433732313a2054686520737570706c696564206f776e657220616464726560448201527f7373206973206e6f7420612076616c696420616464726573730000000000000060648201526084016102d0565b506001600160a01b031660009081526003602052604090205490565b6060600180546101c690610aa7565b6000818152600260205260408120546001600160a01b03166108b25760405162461bcd60e51b81526004016102d090610ae2565b60006108bd83610757565b9050806001600160a01b0316846001600160a01b031614806108f85750836001600160a01b03166108ed84610900565b6001600160a01b0316145b949350505050565b6000818152600260205260408120546001600160a01b03166109795760405162461bcd60e51b815260206004820152602c60248201527f4552433732313a20617070726f76656420717565727920666f72206e6f6e657860448201526b34b9ba32b73a103a37b5b2b760a11b60648201526084016102d0565b506000908152600460205260409020546001600160a01b031690565b600060208083528351808285015260005b818110156109c2578581018301518582016040015282016109a6565b818111156109d4576000604083870101525b50601f01601f1916929092016040019392505050565b80356001600160a01b0381168114610a0157600080fd5b919050565b60008060408385031215610a1957600080fd5b610a22836109ea565b946020939093013593505050565b600080600060608486031215610a4557600080fd5b610a4e846109ea565b9250610a5c602085016109ea565b9150604084013590509250925092565b600060208284031215610a7e57600080fd5b5035919050565b600060208284031215610a9757600080fd5b610aa0826109ea565b9392505050565b600181811c90821680610abb57607f821691505b60208210811415610adc57634e487b7160e01b600052602260045260246000fd5b50919050565b6020808252602d908201527f4552433732313a2054686520737570706c6965642027746f6b656e496427206460408201526c1bd95cc81b9bdd08195e1a5cdd609a1b606082015260800190565b634e487b7160e01b600052601160045260246000fd5b600082821015610b5757610b57610b2f565b500390565b60008219821115610b6f57610b6f610b2f565b500190565b634e487b7160e01b600052603260045260246000fdfea26469706673582212209612b9c0946334cf1bd9d605bfcb0901e81802c786257746348d4fb039edef2f64736f6c634300080b0033",
  "immutableReferences": {},
  "source": "// SPDX-License-Identifier: MIT\npragma solidity ^0.8.0;\n\nimport \"./ERC721Metadata.sol\";\nimport \"./ERC721Enumerable.sol\";\n\ncontract ERC721Connector is ERC721Metadata, ERC721Enumerable {\n    constructor(string memory name, string memory symbol)\n        ERC721Metadata(name, symbol)\n    {}\n}\n",
  "sourcePath": "/Users/ghaieth/0.Dreamwear/dreamwear.github.io/ethereum/src/contracts/ERC721Connector.sol",
  "compiler": {
    "name": "solc",
    "version": "0.8.11+commit.d7f03943.Emscripten.clang"
  },
  "schemaVersion": "3.4.4",
  "updatedAt": "2022-02-11T09:47:53.974Z",
  "devdoc": {
    "kind": "dev",
    "methods": {},
    "version": 1
  },
  "userdoc": {
    "kind": "user",
    "methods": {},
    "version": 1
  }
}