{
  "contractName": "ERC721Metadata",
  "abi": [
    {
      "inputs": [
        {
          "internalType": "string",
          "name": "named",
          "type": "string"
        },
        {
          "internalType": "string",
          "name": "symboled",
          "type": "string"
        }
      ],
      "stateMutability": "nonpayable",
      "type": "constructor"
    },
    {
      "inputs": [
        {
          "internalType": "bytes4",
          "name": "interfaceId",
          "type": "bytes4"
        }
      ],
      "name": "supportsInterface",
      "outputs": [
        {
          "internalType": "bool",
          "name": "",
          "type": "bool"
        }
      ],
      "stateMutability": "view",
      "type": "function"
    },
    {
      "inputs": [],
      "name": "name",
      "outputs": [
        {
          "internalType": "string",
          "name": "",
          "type": "string"
        }
      ],
      "stateMutability": "view",
      "type": "function"
    },
    {
      "inputs": [],
      "name": "symbol",
      "outputs": [
        {
          "internalType": "string",
          "name": "",
          "type": "string"
        }
      ],
      "stateMutability": "view",
      "type": "function"
    },
    {
      "inputs": [
        {
          "internalType": "uint256",
          "name": "_tokenId",
          "type": "uint256"
        }
      ],
      "name": "tokenURI",
      "outputs": [
        {
          "internalType": "string",
          "name": "",
          "type": "string"
        }
      ],
      "stateMutability": "view",
      "type": "function"
    }
  ],
  "bytecode": "0x608060405234801561001057600080fd5b506040516104f83803806104f883398101604081905261002f916101b9565b815161004290600090602085019061005e565b50805161005690600190602084019061005e565b505050610257565b82805461006a9061021c565b90600052602060002090601f01602090048101928261008c57600085556100d2565b82601f106100a557805160ff19168380011785556100d2565b828001600101855582156100d2579182015b828111156100d25782518255916020019190600101906100b7565b506100de9291506100e2565b5090565b5b808211156100de57600081556001016100e3565b634e487b7160e01b600052604160045260246000fd5b600082601f83011261011e57600080fd5b81516001600160401b0380821115610138576101386100f7565b604051601f8301601f19908116603f01168101908282118183101715610160576101606100f7565b8160405283815260209250868385880101111561017c57600080fd5b600091505b8382101561019e5785820183015181830184015290820190610181565b838211156101af5760008385830101525b9695505050505050565b600080604083850312156101cc57600080fd5b82516001600160401b03808211156101e357600080fd5b6101ef8683870161010d565b9350602085015191508082111561020557600080fd5b506102128582860161010d565b9150509250929050565b600181811c9082168061023057607f821691505b6020821081141561025157634e487b7160e01b600052602260045260246000fd5b50919050565b610292806102666000396000f3fe608060405234801561001057600080fd5b506004361061004c5760003560e01c806301ffc9a71461005157806306fdde031461007957806395d89b411461008e578063c87b56dd14610096575b600080fd5b61006461005f366004610182565b6100aa565b60405190151581526020015b60405180910390f35b6100816100e1565b60405161007091906101b3565b610081610173565b6100816100a4366004610208565b50606090565b60006001600160e01b03198216635b5e139f60e01b14806100db57506301ffc9a760e01b6001600160e01b03198316145b92915050565b6060600080546100f090610221565b80601f016020809104026020016040519081016040528092919081815260200182805461011c90610221565b80156101695780601f1061013e57610100808354040283529160200191610169565b820191906000526020600020905b81548152906001019060200180831161014c57829003601f168201915b5050505050905090565b6060600180546100f090610221565b60006020828403121561019457600080fd5b81356001600160e01b0319811681146101ac57600080fd5b9392505050565b600060208083528351808285015260005b818110156101e0578581018301518582016040015282016101c4565b818111156101f2576000604083870101525b50601f01601f1916929092016040019392505050565b60006020828403121561021a57600080fd5b5035919050565b600181811c9082168061023557607f821691505b6020821081141561025657634e487b7160e01b600052602260045260246000fd5b5091905056fea2646970667358221220ae20157ecbc531764e97c9ca1f75d1ba76e99643335ac440c23d30c9eabd472a64736f6c634300080c0033",
  "immutableReferences": {},
  "source": "// SPDX-License-Identifier: MIT\npragma solidity ^0.8.0;\n\nimport \"./interfaces/IERC721Metadata.sol\";\nimport \"./ERC165.sol\";\n\ncontract ERC721Metadata is IERC721Metadata, ERC165 {\n    string private _name;\n\n    string private _symbol;\n\n    constructor(string memory named, string memory symboled) {\n        _name = named;\n        _symbol = symboled;\n    }\n\n    function supportsInterface(bytes4 interfaceId)\n        public\n        view\n        virtual\n        override(ERC165, IERC165)\n        returns (bool)\n    {\n        return\n            interfaceId == type(IERC721Metadata).interfaceId ||\n            super.supportsInterface(interfaceId);\n    }\n\n    function name() external view returns (string memory) {\n        return _name;\n    }\n\n    function symbol() external view returns (string memory) {\n        return _symbol;\n    }\n\n    /*\n        NOT YET IMPLEMENTED\n    */\n    function tokenURI(uint256 _tokenId) external view returns (string memory) {}\n}\n",
  "sourcePath": "/Users/ghaieth/0.Dreamwear/dreamwear.github.io/ethereum/src/contracts/ERC721Metadata.sol",
  "compiler": {
    "name": "solc",
    "version": "0.8.12+commit.f00d7308.Emscripten.clang"
  },
  "schemaVersion": "3.4.4",
  "updatedAt": "2022-02-16T14:22:36.315Z",
  "devdoc": {
    "kind": "dev",
    "methods": {},
    "version": 1
  },
  "userdoc": {
    "kind": "user",
    "methods": {},
    "version": 1
  }
}