{
  "contractName": "ERC721Metadata",
  "abi": [
    {
      "inputs": [
        {
          "internalType": "string",
          "name": "named",
          "type": "string"
        },
        {
          "internalType": "string",
          "name": "symboled",
          "type": "string"
        }
      ],
      "stateMutability": "nonpayable",
      "type": "constructor"
    },
    {
      "inputs": [
        {
          "internalType": "bytes4",
          "name": "interfaceID",
          "type": "bytes4"
        }
      ],
      "name": "supportsInterface",
      "outputs": [
        {
          "internalType": "bool",
          "name": "",
          "type": "bool"
        }
      ],
      "stateMutability": "view",
      "type": "function"
    },
    {
      "inputs": [],
      "name": "name",
      "outputs": [
        {
          "internalType": "string",
          "name": "",
          "type": "string"
        }
      ],
      "stateMutability": "view",
      "type": "function"
    },
    {
      "inputs": [],
      "name": "symbol",
      "outputs": [
        {
          "internalType": "string",
          "name": "",
          "type": "string"
        }
      ],
      "stateMutability": "view",
      "type": "function"
    },
    {
      "inputs": [
        {
          "internalType": "uint256",
          "name": "_tokenId",
          "type": "uint256"
        }
      ],
      "name": "tokenURI",
      "outputs": [
        {
          "internalType": "string",
          "name": "",
          "type": "string"
        }
      ],
      "stateMutability": "view",
      "type": "function"
    }
  ],
  "bytecode": "0x608060405234801561001057600080fd5b506040516105b03803806105b083398101604081905261002f9161028e565b6100587f01ffc9a7a5cef8baa21ed3c5c0d7e23accb804b619e9333b597f47a0d84076e26100b0565b6100817f5b5e139fc6568dcbe817e85f5006fe073fedbf54f63f8f5c5db6f4b41a3451b66100b0565b8151610094906001906020850190610133565b5080516100a8906002906020840190610133565b50505061032c565b6001600160e01b0319808216141561010e5760405162461bcd60e51b815260206004820152601960248201527f4552433136353a20696e76616c696420696e7465726661636500000000000000604482015260640160405180910390fd5b6001600160e01b0319166000908152602081905260409020805460ff19166001179055565b82805461013f906102f1565b90600052602060002090601f01602090048101928261016157600085556101a7565b82601f1061017a57805160ff19168380011785556101a7565b828001600101855582156101a7579182015b828111156101a757825182559160200191906001019061018c565b506101b39291506101b7565b5090565b5b808211156101b357600081556001016101b8565b634e487b7160e01b600052604160045260246000fd5b600082601f8301126101f357600080fd5b81516001600160401b038082111561020d5761020d6101cc565b604051601f8301601f19908116603f01168101908282118183101715610235576102356101cc565b8160405283815260209250868385880101111561025157600080fd5b600091505b838210156102735785820183015181830184015290820190610256565b838211156102845760008385830101525b9695505050505050565b600080604083850312156102a157600080fd5b82516001600160401b03808211156102b857600080fd5b6102c4868387016101e2565b935060208501519150808211156102da57600080fd5b506102e7858286016101e2565b9150509250929050565b600181811c9082168061030557607f821691505b6020821081141561032657634e487b7160e01b600052602260045260246000fd5b50919050565b6102758061033b6000396000f3fe608060405234801561001057600080fd5b506004361061004c5760003560e01c806301ffc9a71461005157806306fdde031461009357806395d89b41146100a8578063c87b56dd146100b0575b600080fd5b61007e61005f366004610165565b6001600160e01b03191660009081526020819052604090205460ff1690565b60405190151581526020015b60405180910390f35b61009b6100c4565b60405161008a9190610196565b61009b610156565b61009b6100be3660046101eb565b50606090565b6060600180546100d390610204565b80601f01602080910402602001604051908101604052809291908181526020018280546100ff90610204565b801561014c5780601f106101215761010080835404028352916020019161014c565b820191906000526020600020905b81548152906001019060200180831161012f57829003601f168201915b5050505050905090565b6060600280546100d390610204565b60006020828403121561017757600080fd5b81356001600160e01b03198116811461018f57600080fd5b9392505050565b600060208083528351808285015260005b818110156101c3578581018301518582016040015282016101a7565b818111156101d5576000604083870101525b50601f01601f1916929092016040019392505050565b6000602082840312156101fd57600080fd5b5035919050565b600181811c9082168061021857607f821691505b6020821081141561023957634e487b7160e01b600052602260045260246000fd5b5091905056fea264697066735822122045b048660572a79ccfddce46edd4a0f1944390c481d82363f77bf89224837f3164736f6c634300080b0033",
  "immutableReferences": {},
  "source": "// SPDX-License-Identifier: MIT\npragma solidity ^0.8.0;\n\nimport \"./interfaces/IERC721Metadata.sol\";\nimport \"./ERC165.sol\";\n\ncontract ERC721Metadata is IERC721Metadata, ERC165 {\n    string private _name;\n\n    string private _symbol;\n\n    constructor(string memory named, string memory symboled) {\n        _registerInterface(\n            bytes4(\n                keccak256(\"name()\") ^\n                    keccak256(\"symbol()\") ^\n                    keccak256(\"tokenURI(uint256)\")\n            )\n        );\n\n        _name = named;\n        _symbol = symboled;\n    }\n\n    function name() external view returns (string memory) {\n        return _name;\n    }\n\n    function symbol() external view returns (string memory) {\n        return _symbol;\n    }\n\n    function tokenURI(uint256 _tokenId) external view returns (string memory) {}\n}\n",
  "sourcePath": "/Users/ghaieth/0.Dreamwear/dreamwear.github.io/ethereum/src/contracts/ERC721Metadata.sol",
  "compiler": {
    "name": "solc",
    "version": "0.8.11+commit.d7f03943.Emscripten.clang"
  },
  "schemaVersion": "3.4.4",
  "updatedAt": "2022-02-15T15:34:40.485Z",
  "devdoc": {
    "kind": "dev",
    "methods": {
      "supportsInterface(bytes4)": {
        "details": "Interface identification is specified in ERC-165. This function  uses less than 30,000 gas.",
        "params": {
          "interfaceID": "The interface identifier, as specified in ERC-165"
        },
        "returns": {
          "_0": "`true` if the contract implements `interfaceID` and  `interfaceID` is not 0xffffffff, `false` otherwise"
        }
      }
    },
    "version": 1
  },
  "userdoc": {
    "kind": "user",
    "methods": {
      "supportsInterface(bytes4)": {
        "notice": "Query if a contract implements an interface"
      }
    },
    "version": 1
  }
}