{
  "contractName": "ERC721Enumerable",
  "abi": [
    {
      "anonymous": false,
      "inputs": [
        {
          "indexed": true,
          "internalType": "address",
          "name": "from",
          "type": "address"
        },
        {
          "indexed": true,
          "internalType": "address",
          "name": "to",
          "type": "address"
        },
        {
          "indexed": true,
          "internalType": "uint256",
          "name": "tokenId",
          "type": "uint256"
        }
      ],
      "name": "Transfer",
      "type": "event"
    },
    {
      "inputs": [
        {
          "internalType": "address",
          "name": "_owner",
          "type": "address"
        }
      ],
      "name": "balanceOf",
      "outputs": [
        {
          "internalType": "uint256",
          "name": "",
          "type": "uint256"
        }
      ],
      "stateMutability": "view",
      "type": "function"
    },
    {
      "inputs": [
        {
          "internalType": "uint256",
          "name": "_tokenId",
          "type": "uint256"
        }
      ],
      "name": "ownerOf",
      "outputs": [
        {
          "internalType": "address",
          "name": "",
          "type": "address"
        }
      ],
      "stateMutability": "view",
      "type": "function"
    },
    {
      "inputs": [
        {
          "internalType": "address",
          "name": "_from",
          "type": "address"
        },
        {
          "internalType": "address",
          "name": "_to",
          "type": "address"
        },
        {
          "internalType": "uint256",
          "name": "_tokenId",
          "type": "uint256"
        }
      ],
      "name": "transferFrom",
      "outputs": [],
      "stateMutability": "payable",
      "type": "function"
    },
    {
      "inputs": [],
      "name": "totalSupply",
      "outputs": [
        {
          "internalType": "uint256",
          "name": "",
          "type": "uint256"
        }
      ],
      "stateMutability": "view",
      "type": "function"
    },
    {
      "inputs": [
        {
          "internalType": "uint256",
          "name": "_index",
          "type": "uint256"
        }
      ],
      "name": "tokenByIndex",
      "outputs": [
        {
          "internalType": "uint256",
          "name": "",
          "type": "uint256"
        }
      ],
      "stateMutability": "view",
      "type": "function"
    },
    {
      "inputs": [
        {
          "internalType": "address",
          "name": "_owner",
          "type": "address"
        },
        {
          "internalType": "uint256",
          "name": "_index",
          "type": "uint256"
        }
      ],
      "name": "tokenOfOwnerByIndex",
      "outputs": [
        {
          "internalType": "uint256",
          "name": "",
          "type": "uint256"
        }
      ],
      "stateMutability": "view",
      "type": "function"
    }
  ],
  "bytecode": "0x608060405234801561001057600080fd5b50610752806100206000396000f3fe6080604052600436106100555760003560e01c806318160ddd1461005a57806323b872dd1461007e5780632f745c59146100935780634f6ccce7146100b35780636352211e146100d357806370a082311461010b575b600080fd5b34801561006657600080fd5b506003545b6040519081526020015b60405180910390f35b61009161008c366004610620565b61012b565b005b34801561009f57600080fd5b5061006b6100ae36600461065c565b6103e5565b3480156100bf57600080fd5b5061006b6100ce366004610686565b610487565b3480156100df57600080fd5b506100f36100ee366004610686565b61050e565b6040516001600160a01b039091168152602001610075565b34801561011757600080fd5b5061006b61012636600461069f565b610584565b6000818152602081905260409020546001600160a01b03166101aa5760405162461bcd60e51b815260206004820152602d60248201527f4552433732313a2054686520737570706c6965642027746f6b656e496427206460448201526c1bd95cc81b9bdd08195e1a5cdd609a1b60648201526084015b60405180910390fd5b6101b38161050e565b6001600160a01b0316336001600160a01b0316146102275760405162461bcd60e51b815260206004820152602b60248201527f4552433732313a20546865206d6573736167652073656e646572206973206e6f60448201526a3a103a34329037bbb732b960a91b60648201526084016101a1565b6102308161050e565b6001600160a01b0316836001600160a01b0316146102ad5760405162461bcd60e51b815260206004820152603460248201527f4552433732313a2054686520737570706c696564202766726f6d27206164647260448201527332b9b99034b9903737ba103a34329037bbb732b960611b60648201526084016101a1565b6001600160a01b0382166103295760405162461bcd60e51b815260206004820152603860248201527f4552433732313a2054686520737570706c6965642027746f272061646472657360448201527f73206973206e6f7420612076616c69642061646472657373000000000000000060648201526084016101a1565b6001600160a01b038316600090815260016020819052604082208054919290916103549084906106d7565b90915550506001600160a01b038216600090815260016020819052604082208054919290916103849084906106ee565b909155505060008181526020819052604080822080546001600160a01b0319166001600160a01b0386811691821790925591518493918716917fddf252ad1be2c89b69c2b068fc378daa952ba7f163c4a11628f55a4df523b3ef91a4505050565b60006103f083610584565b821061044a5760405162461bcd60e51b8152602060048201526024808201527f4552433732313a206f776e657220696e646578206973206f7574206f6620626f604482015263756e647360e01b60648201526084016101a1565b6001600160a01b038316600090815260056020526040902080548390811061047457610474610706565b9060005260206000200154905092915050565b60035460009082106104e95760405162461bcd60e51b815260206004820152602560248201527f4552433732313a20676c6f62616c20696e646578206973206f7574206f6620626044820152646f756e647360d81b60648201526084016101a1565b600382815481106104fc576104fc610706565b90600052602060002001549050919050565b6000818152602081905260408120546001600160a01b03168061057e5760405162461bcd60e51b815260206004820152602260248201527f4552433732313a207175657269656420746f6b656e206973206e6f742076616c6044820152611a5960f21b60648201526084016101a1565b92915050565b60006001600160a01b0382166105e85760405162461bcd60e51b8152602060048201526024808201527f4552433732313a20717565726965642061646472657373206973206e6f742076604482015263185b1a5960e21b60648201526084016101a1565b506001600160a01b031660009081526001602052604090205490565b80356001600160a01b038116811461061b57600080fd5b919050565b60008060006060848603121561063557600080fd5b61063e84610604565b925061064c60208501610604565b9150604084013590509250925092565b6000806040838503121561066f57600080fd5b61067883610604565b946020939093013593505050565b60006020828403121561069857600080fd5b5035919050565b6000602082840312156106b157600080fd5b6106ba82610604565b9392505050565b634e487b7160e01b600052601160045260246000fd5b6000828210156106e9576106e96106c1565b500390565b60008219821115610701576107016106c1565b500190565b634e487b7160e01b600052603260045260246000fdfea2646970667358221220c0534601a85f7e915c851352ea2ab9ad7b6d8fc9754e28f52e8bd20abfe06e1c64736f6c634300080b0033",
  "immutableReferences": {},
  "source": "// SPDX-License-Identifier: MIT\npragma solidity ^0.8.0;\n\nimport \"./ERC721.sol\";\n\ncontract ERC721Enumerable is ERC721 {\n    uint256[] private _allTokens;\n\n    mapping(uint256 => uint256) private _allTokensIndex;\n\n    mapping(address => uint256[]) private _ownedTokens;\n\n    mapping(uint256 => uint256) private _ownedTokensIndex;\n\n    function totalSupply() external view returns (uint256) {\n        return _allTokens.length;\n    }\n\n    function tokenByIndex(uint256 _index) external view returns (uint256) {\n        require(\n            _index < _allTokens.length,\n            \"ERC721: global index is out of bounds\"\n        );\n        return _allTokens[_index];\n    }\n\n    function tokenOfOwnerByIndex(address _owner, uint256 _index)\n        external\n        view\n        returns (uint256)\n    {\n        require(\n            _index < balanceOf(_owner),\n            \"ERC721: owner index is out of bounds\"\n        );\n        return _ownedTokens[_owner][_index];\n    }\n\n    function _mint(address to, uint256 tokenId) internal override(ERC721) {\n        super._mint(to, tokenId);\n        _addTokenToAllTokens(tokenId);\n        _addTokenToOwnedTokens(to, tokenId);\n    }\n\n    function _addTokenToAllTokens(uint256 tokenId) private {\n        _allTokensIndex[tokenId] = _allTokens.length;\n        _allTokens.push(tokenId);\n    }\n\n    function _addTokenToOwnedTokens(address to, uint256 tokenId) private {\n        _ownedTokens[to].push(tokenId);\n        _ownedTokensIndex[tokenId] = _ownedTokens[to].length;\n    }\n}\n",
  "sourcePath": "/Users/ghaieth/0.Dreamwear/nft-marketplace/src/contracts/ERC721Enumerable.sol",
  "compiler": {
    "name": "solc",
    "version": "0.8.11+commit.d7f03943.Emscripten.clang"
  },
  "schemaVersion": "3.4.4",
  "updatedAt": "2022-02-09T16:26:30.319Z",
  "devdoc": {
    "kind": "dev",
    "methods": {},
    "version": 1
  },
  "userdoc": {
    "kind": "user",
    "methods": {},
    "version": 1
  }
}