{
  "contractName": "ERC721Connector",
  "abi": [
    {
      "inputs": [
        {
          "internalType": "string",
          "name": "name",
          "type": "string"
        },
        {
          "internalType": "string",
          "name": "symbol",
          "type": "string"
        }
      ],
      "stateMutability": "nonpayable",
      "type": "constructor"
    },
    {
      "anonymous": false,
      "inputs": [
        {
          "indexed": true,
          "internalType": "address",
          "name": "_owner",
          "type": "address"
        },
        {
          "indexed": true,
          "internalType": "address",
          "name": "_approved",
          "type": "address"
        },
        {
          "indexed": true,
          "internalType": "uint256",
          "name": "_tokenId",
          "type": "uint256"
        }
      ],
      "name": "Approval",
      "type": "event"
    },
    {
      "anonymous": false,
      "inputs": [
        {
          "indexed": true,
          "internalType": "address",
          "name": "_owner",
          "type": "address"
        },
        {
          "indexed": true,
          "internalType": "address",
          "name": "_operator",
          "type": "address"
        },
        {
          "indexed": false,
          "internalType": "bool",
          "name": "_approved",
          "type": "bool"
        }
      ],
      "name": "ApprovalForAll",
      "type": "event"
    },
    {
      "anonymous": false,
      "inputs": [
        {
          "indexed": true,
          "internalType": "address",
          "name": "_from",
          "type": "address"
        },
        {
          "indexed": true,
          "internalType": "address",
          "name": "_to",
          "type": "address"
        },
        {
          "indexed": true,
          "internalType": "uint256",
          "name": "_tokenId",
          "type": "uint256"
        }
      ],
      "name": "Transfer",
      "type": "event"
    },
    {
      "inputs": [
        {
          "internalType": "address",
          "name": "_to",
          "type": "address"
        },
        {
          "internalType": "uint256",
          "name": "_tokenId",
          "type": "uint256"
        }
      ],
      "name": "approve",
      "outputs": [],
      "stateMutability": "payable",
      "type": "function"
    },
    {
      "inputs": [
        {
          "internalType": "address",
          "name": "_owner",
          "type": "address"
        }
      ],
      "name": "balanceOf",
      "outputs": [
        {
          "internalType": "uint256",
          "name": "",
          "type": "uint256"
        }
      ],
      "stateMutability": "view",
      "type": "function"
    },
    {
      "inputs": [
        {
          "internalType": "uint256",
          "name": "_tokenId",
          "type": "uint256"
        }
      ],
      "name": "getApproved",
      "outputs": [
        {
          "internalType": "address",
          "name": "",
          "type": "address"
        }
      ],
      "stateMutability": "view",
      "type": "function"
    },
    {
      "inputs": [],
      "name": "name",
      "outputs": [
        {
          "internalType": "string",
          "name": "",
          "type": "string"
        }
      ],
      "stateMutability": "view",
      "type": "function"
    },
    {
      "inputs": [
        {
          "internalType": "uint256",
          "name": "_tokenId",
          "type": "uint256"
        }
      ],
      "name": "ownerOf",
      "outputs": [
        {
          "internalType": "address",
          "name": "",
          "type": "address"
        }
      ],
      "stateMutability": "view",
      "type": "function"
    },
    {
      "inputs": [
        {
          "internalType": "bytes4",
          "name": "interfaceID",
          "type": "bytes4"
        }
      ],
      "name": "supportsInterface",
      "outputs": [
        {
          "internalType": "bool",
          "name": "",
          "type": "bool"
        }
      ],
      "stateMutability": "view",
      "type": "function"
    },
    {
      "inputs": [],
      "name": "symbol",
      "outputs": [
        {
          "internalType": "string",
          "name": "",
          "type": "string"
        }
      ],
      "stateMutability": "view",
      "type": "function"
    },
    {
      "inputs": [
        {
          "internalType": "uint256",
          "name": "_index",
          "type": "uint256"
        }
      ],
      "name": "tokenByIndex",
      "outputs": [
        {
          "internalType": "uint256",
          "name": "",
          "type": "uint256"
        }
      ],
      "stateMutability": "view",
      "type": "function"
    },
    {
      "inputs": [
        {
          "internalType": "address",
          "name": "_owner",
          "type": "address"
        },
        {
          "internalType": "uint256",
          "name": "_index",
          "type": "uint256"
        }
      ],
      "name": "tokenOfOwnerByIndex",
      "outputs": [
        {
          "internalType": "uint256",
          "name": "",
          "type": "uint256"
        }
      ],
      "stateMutability": "view",
      "type": "function"
    },
    {
      "inputs": [],
      "name": "totalSupply",
      "outputs": [
        {
          "internalType": "uint256",
          "name": "",
          "type": "uint256"
        }
      ],
      "stateMutability": "view",
      "type": "function"
    },
    {
      "inputs": [
        {
          "internalType": "address",
          "name": "_from",
          "type": "address"
        },
        {
          "internalType": "address",
          "name": "_to",
          "type": "address"
        },
        {
          "internalType": "uint256",
          "name": "_tokenId",
          "type": "uint256"
        }
      ],
      "name": "transferFrom",
      "outputs": [],
      "stateMutability": "payable",
      "type": "function"
    }
  ],
  "bytecode": "0x60806040523480156200001157600080fd5b5060405162000fb438038062000fb4833981016040819052620000349162000296565b8151829082906200004d90600090602085019062000123565b5080516200006390600190602084019062000123565b505050620000977f01ffc9a7a5cef8baa21ed3c5c0d7e23accb804b619e9333b597f47a0d84076e26200009f60201b60201c565b50506200033d565b6001600160e01b03198082161415620000fe5760405162461bcd60e51b815260206004820152601960248201527f4552433136353a20696e76616c696420696e7465726661636500000000000000604482015260640160405180910390fd5b6001600160e01b0319166000908152600260205260409020805460ff19166001179055565b828054620001319062000300565b90600052602060002090601f016020900481019282620001555760008555620001a0565b82601f106200017057805160ff1916838001178555620001a0565b82800160010185558215620001a0579182015b82811115620001a057825182559160200191906001019062000183565b50620001ae929150620001b2565b5090565b5b80821115620001ae5760008155600101620001b3565b634e487b7160e01b600052604160045260246000fd5b600082601f830112620001f157600080fd5b81516001600160401b03808211156200020e576200020e620001c9565b604051601f8301601f19908116603f01168101908282118183101715620002395762000239620001c9565b816040528381526020925086838588010111156200025657600080fd5b600091505b838210156200027a57858201830151818301840152908201906200025b565b838211156200028c5760008385830101525b9695505050505050565b60008060408385031215620002aa57600080fd5b82516001600160401b0380821115620002c257600080fd5b620002d086838701620001df565b93506020850151915080821115620002e757600080fd5b50620002f685828601620001df565b9150509250929050565b600181811c908216806200031557607f821691505b602082108114156200033757634e487b7160e01b600052602260045260246000fd5b50919050565b610c67806200034d6000396000f3fe60806040526004361061009c5760003560e01c806323b872dd1161006457806323b872dd1461017e5780632f745c59146101915780634f6ccce7146101b15780636352211e146101d157806370a08231146101f157806395d89b411461021157600080fd5b806301ffc9a7146100a157806306fdde03146100f0578063081812fc14610112578063095ea7b31461014a57806318160ddd1461015f575b600080fd5b3480156100ad57600080fd5b506100db6100bc366004610a12565b6001600160e01b03191660009081526002602052604090205460ff1690565b60405190151581526020015b60405180910390f35b3480156100fc57600080fd5b50610105610226565b6040516100e79190610a43565b34801561011e57600080fd5b5061013261012d366004610a98565b6102b8565b6040516001600160a01b0390911681526020016100e7565b61015d610158366004610acd565b610352565b005b34801561016b57600080fd5b506006545b6040519081526020016100e7565b61015d61018c366004610af7565b6104ba565b34801561019d57600080fd5b506101706101ac366004610acd565b61072b565b3480156101bd57600080fd5b506101706101cc366004610a98565b6107d8565b3480156101dd57600080fd5b506101326101ec366004610a98565b610869565b3480156101fd57600080fd5b5061017061020c366004610b33565b6108e7565b34801561021d57600080fd5b50610105610981565b60606000805461023590610b4e565b80601f016020809104026020016040519081016040528092919081815260200182805461026190610b4e565b80156102ae5780601f10610283576101008083540402835291602001916102ae565b820191906000526020600020905b81548152906001019060200180831161029157829003601f168201915b5050505050905090565b6000818152600360205260408120546001600160a01b03166103365760405162461bcd60e51b815260206004820152602c60248201527f4552433732313a20617070726f76656420717565727920666f72206e6f6e657860448201526b34b9ba32b73a103a37b5b2b760a11b60648201526084015b60405180910390fd5b506000908152600560205260409020546001600160a01b031690565b600061035d82610869565b9050336001600160a01b038216146103dd5760405162461bcd60e51b815260206004820152603860248201527f4552433732313a20546865206d6573736167652073656e646572206973206e6f60448201527f7420746865206f776e6572206f662074686520746f6b656e0000000000000000606482015260840161032d565b806001600160a01b0316836001600160a01b0316141561045e5760405162461bcd60e51b815260206004820152603660248201527f4552433732313a2054686520737570706c6965642061646472657373206973206044820152753a34329037bbb732b91037b3103a3432903a37b5b2b760511b606482015260840161032d565b60008281526005602052604080822080546001600160a01b0319166001600160a01b0387811691821790925591518593918516917f8c5be1e5ebec7d5bd14f71427d1e84f3dd0314c0f7b2291e5b200ac8c7c3b92591a4505050565b6104c43382610990565b61052a5760405162461bcd60e51b815260206004820152603160248201527f4552433732313a207472616e736665722063616c6c6572206973206e6f74206f6044820152701ddb995c881b9bdc88185c1c1c9bdd9959607a1b606482015260840161032d565b6000818152600360205260409020546001600160a01b031661055e5760405162461bcd60e51b815260040161032d90610b89565b61056781610869565b6001600160a01b0316836001600160a01b0316146105f75760405162461bcd60e51b815260206004820152604160248201527f4552433732313a2054686520737570706c696564202766726f6d27206164647260448201527f657373206973206e6f7420746865206f776e6572206f662074686520746f6b656064820152603760f91b608482015260a40161032d565b6001600160a01b0382166106735760405162461bcd60e51b815260206004820152603860248201527f4552433732313a2054686520737570706c6965642027746f272061646472657360448201527f73206973206e6f7420612076616c696420616464726573730000000000000000606482015260840161032d565b6001600160a01b038316600090815260046020526040812080546001929061069c908490610bec565b90915550506001600160a01b03821660009081526004602052604081208054600192906106ca908490610c03565b909155505060008181526003602052604080822080546001600160a01b0319166001600160a01b0386811691821790925591518493918716917fddf252ad1be2c89b69c2b068fc378daa952ba7f163c4a11628f55a4df523b3ef91a4505050565b6000610736836108e7565b821061079b5760405162461bcd60e51b815260206004820152602e60248201527f455243373231456e756d657261626c653a206f776e657220696e64657820697360448201526d206f7574206f6620626f756e647360901b606482015260840161032d565b6001600160a01b03831660009081526008602052604090208054839081106107c5576107c5610c1b565b9060005260206000200154905092915050565b60065460009082106108445760405162461bcd60e51b815260206004820152602f60248201527f455243373231456e756d657261626c653a20676c6f62616c20696e646578206960448201526e73206f7574206f6620626f756e647360881b606482015260840161032d565b6006828154811061085757610857610c1b565b90600052602060002001549050919050565b6000818152600360205260408120546001600160a01b0316806108e15760405162461bcd60e51b815260206004820152602a60248201527f4552433732313a2054686520737570706c69656420746f6b656e49642069732060448201526903737ba103b30b634b2160b51b606482015260840161032d565b92915050565b60006001600160a01b0382166109655760405162461bcd60e51b815260206004820152603960248201527f4552433732313a2054686520737570706c696564206f776e657220616464726560448201527f7373206973206e6f7420612076616c6964206164647265737300000000000000606482015260840161032d565b506001600160a01b031660009081526004602052604090205490565b60606001805461023590610b4e565b6000818152600360205260408120546001600160a01b03166109c45760405162461bcd60e51b815260040161032d90610b89565b60006109cf83610869565b9050806001600160a01b0316846001600160a01b03161480610a0a5750836001600160a01b03166109ff846102b8565b6001600160a01b0316145b949350505050565b600060208284031215610a2457600080fd5b81356001600160e01b031981168114610a3c57600080fd5b9392505050565b600060208083528351808285015260005b81811015610a7057858101830151858201604001528201610a54565b81811115610a82576000604083870101525b50601f01601f1916929092016040019392505050565b600060208284031215610aaa57600080fd5b5035919050565b80356001600160a01b0381168114610ac857600080fd5b919050565b60008060408385031215610ae057600080fd5b610ae983610ab1565b946020939093013593505050565b600080600060608486031215610b0c57600080fd5b610b1584610ab1565b9250610b2360208501610ab1565b9150604084013590509250925092565b600060208284031215610b4557600080fd5b610a3c82610ab1565b600181811c90821680610b6257607f821691505b60208210811415610b8357634e487b7160e01b600052602260045260246000fd5b50919050565b6020808252602d908201527f4552433732313a2054686520737570706c6965642027746f6b656e496427206460408201526c1bd95cc81b9bdd08195e1a5cdd609a1b606082015260800190565b634e487b7160e01b600052601160045260246000fd5b600082821015610bfe57610bfe610bd6565b500390565b60008219821115610c1657610c16610bd6565b500190565b634e487b7160e01b600052603260045260246000fdfea26469706673582212202b5f12dfdba04508759924f961ea089a7f49d140453a288327f0a635f0de46d064736f6c634300080b0033",
  "immutableReferences": {},
  "source": "// SPDX-License-Identifier: MIT\npragma solidity ^0.8.0;\n\nimport \"./ERC721Metadata.sol\";\nimport \"./ERC721Enumerable.sol\";\n\ncontract ERC721Connector is ERC721Metadata, ERC721Enumerable {\n    constructor(string memory name, string memory symbol)\n        ERC721Metadata(name, symbol)\n    {}\n}\n",
  "sourcePath": "/Users/ghaieth/0.Dreamwear/dreamwear.github.io/ethereum/src/contracts/ERC721Connector.sol",
  "compiler": {
    "name": "solc",
    "version": "0.8.11+commit.d7f03943.Emscripten.clang"
  },
  "schemaVersion": "3.4.4",
  "updatedAt": "2022-02-15T14:56:15.996Z",
  "devdoc": {
    "kind": "dev",
    "methods": {
      "supportsInterface(bytes4)": {
        "details": "Interface identification is specified in ERC-165. This function  uses less than 30,000 gas.",
        "params": {
          "interfaceID": "The interface identifier, as specified in ERC-165"
        },
        "returns": {
          "_0": "`true` if the contract implements `interfaceID` and  `interfaceID` is not 0xffffffff, `false` otherwise"
        }
      }
    },
    "version": 1
  },
  "userdoc": {
    "kind": "user",
    "methods": {
      "supportsInterface(bytes4)": {
        "notice": "Query if a contract implements an interface"
      }
    },
    "version": 1
  }
}