{
  "contractName": "ERC721",
  "abi": [
    {
      "anonymous": false,
      "inputs": [
        {
          "indexed": true,
          "internalType": "address",
          "name": "_owner",
          "type": "address"
        },
        {
          "indexed": true,
          "internalType": "address",
          "name": "_approved",
          "type": "address"
        },
        {
          "indexed": true,
          "internalType": "uint256",
          "name": "_tokenId",
          "type": "uint256"
        }
      ],
      "name": "Approval",
      "type": "event"
    },
    {
      "anonymous": false,
      "inputs": [
        {
          "indexed": true,
          "internalType": "address",
          "name": "_owner",
          "type": "address"
        },
        {
          "indexed": true,
          "internalType": "address",
          "name": "_operator",
          "type": "address"
        },
        {
          "indexed": false,
          "internalType": "bool",
          "name": "_approved",
          "type": "bool"
        }
      ],
      "name": "ApprovalForAll",
      "type": "event"
    },
    {
      "anonymous": false,
      "inputs": [
        {
          "indexed": true,
          "internalType": "address",
          "name": "_from",
          "type": "address"
        },
        {
          "indexed": true,
          "internalType": "address",
          "name": "_to",
          "type": "address"
        },
        {
          "indexed": true,
          "internalType": "uint256",
          "name": "_tokenId",
          "type": "uint256"
        }
      ],
      "name": "Transfer",
      "type": "event"
    },
    {
      "inputs": [
        {
          "internalType": "bytes4",
          "name": "interfaceID",
          "type": "bytes4"
        }
      ],
      "name": "supportsInterface",
      "outputs": [
        {
          "internalType": "bool",
          "name": "",
          "type": "bool"
        }
      ],
      "stateMutability": "view",
      "type": "function"
    },
    {
      "inputs": [
        {
          "internalType": "address",
          "name": "_owner",
          "type": "address"
        }
      ],
      "name": "balanceOf",
      "outputs": [
        {
          "internalType": "uint256",
          "name": "",
          "type": "uint256"
        }
      ],
      "stateMutability": "view",
      "type": "function"
    },
    {
      "inputs": [
        {
          "internalType": "uint256",
          "name": "_tokenId",
          "type": "uint256"
        }
      ],
      "name": "ownerOf",
      "outputs": [
        {
          "internalType": "address",
          "name": "",
          "type": "address"
        }
      ],
      "stateMutability": "view",
      "type": "function"
    },
    {
      "inputs": [
        {
          "internalType": "address",
          "name": "_from",
          "type": "address"
        },
        {
          "internalType": "address",
          "name": "_to",
          "type": "address"
        },
        {
          "internalType": "uint256",
          "name": "_tokenId",
          "type": "uint256"
        }
      ],
      "name": "transferFrom",
      "outputs": [],
      "stateMutability": "payable",
      "type": "function"
    },
    {
      "inputs": [
        {
          "internalType": "address",
          "name": "_to",
          "type": "address"
        },
        {
          "internalType": "uint256",
          "name": "_tokenId",
          "type": "uint256"
        }
      ],
      "name": "approve",
      "outputs": [],
      "stateMutability": "payable",
      "type": "function"
    },
    {
      "inputs": [
        {
          "internalType": "uint256",
          "name": "_tokenId",
          "type": "uint256"
        }
      ],
      "name": "getApproved",
      "outputs": [
        {
          "internalType": "address",
          "name": "",
          "type": "address"
        }
      ],
      "stateMutability": "view",
      "type": "function"
    }
  ],
  "bytecode": "0x608060405234801561001057600080fd5b5061003a7f01ffc9a7a5cef8baa21ed3c5c0d7e23accb804b619e9333b597f47a0d84076e261003f565b6100c2565b6001600160e01b0319808216141561009d5760405162461bcd60e51b815260206004820152601960248201527f4552433136353a20696e76616c696420696e7465726661636500000000000000604482015260640160405180910390fd5b6001600160e01b0319166000908152602081905260409020805460ff19166001179055565b610913806100d16000396000f3fe6080604052600436106100555760003560e01c806301ffc9a71461005a578063081812fc146100a9578063095ea7b3146100e157806323b872dd146100f65780636352211e1461010957806370a0823114610129575b600080fd5b34801561006657600080fd5b50610094610075366004610764565b6001600160e01b03191660009081526020819052604090205460ff1690565b60405190151581526020015b60405180910390f35b3480156100b557600080fd5b506100c96100c4366004610795565b610157565b6040516001600160a01b0390911681526020016100a0565b6100f46100ef3660046107ca565b6101f1565b005b6100f46101043660046107f4565b610359565b34801561011557600080fd5b506100c9610124366004610795565b6105ca565b34801561013557600080fd5b50610149610144366004610830565b610648565b6040519081526020016100a0565b6000818152600160205260408120546001600160a01b03166101d55760405162461bcd60e51b815260206004820152602c60248201527f4552433732313a20617070726f76656420717565727920666f72206e6f6e657860448201526b34b9ba32b73a103a37b5b2b760a11b60648201526084015b60405180910390fd5b506000908152600360205260409020546001600160a01b031690565b60006101fc826105ca565b9050336001600160a01b0382161461027c5760405162461bcd60e51b815260206004820152603860248201527f4552433732313a20546865206d6573736167652073656e646572206973206e6f60448201527f7420746865206f776e6572206f662074686520746f6b656e000000000000000060648201526084016101cc565b806001600160a01b0316836001600160a01b031614156102fd5760405162461bcd60e51b815260206004820152603660248201527f4552433732313a2054686520737570706c6965642061646472657373206973206044820152753a34329037bbb732b91037b3103a3432903a37b5b2b760511b60648201526084016101cc565b60008281526003602052604080822080546001600160a01b0319166001600160a01b0387811691821790925591518593918516917f8c5be1e5ebec7d5bd14f71427d1e84f3dd0314c0f7b2291e5b200ac8c7c3b92591a4505050565b61036333826106e2565b6103c95760405162461bcd60e51b815260206004820152603160248201527f4552433732313a207472616e736665722063616c6c6572206973206e6f74206f6044820152701ddb995c881b9bdc88185c1c1c9bdd9959607a1b60648201526084016101cc565b6000818152600160205260409020546001600160a01b03166103fd5760405162461bcd60e51b81526004016101cc9061084b565b610406816105ca565b6001600160a01b0316836001600160a01b0316146104965760405162461bcd60e51b815260206004820152604160248201527f4552433732313a2054686520737570706c696564202766726f6d27206164647260448201527f657373206973206e6f7420746865206f776e6572206f662074686520746f6b656064820152603760f91b608482015260a4016101cc565b6001600160a01b0382166105125760405162461bcd60e51b815260206004820152603860248201527f4552433732313a2054686520737570706c6965642027746f272061646472657360448201527f73206973206e6f7420612076616c69642061646472657373000000000000000060648201526084016101cc565b6001600160a01b038316600090815260026020526040812080546001929061053b9084906108ae565b90915550506001600160a01b03821660009081526002602052604081208054600192906105699084906108c5565b909155505060008181526001602052604080822080546001600160a01b0319166001600160a01b0386811691821790925591518493918716917fddf252ad1be2c89b69c2b068fc378daa952ba7f163c4a11628f55a4df523b3ef91a4505050565b6000818152600160205260408120546001600160a01b0316806106425760405162461bcd60e51b815260206004820152602a60248201527f4552433732313a2054686520737570706c69656420746f6b656e49642069732060448201526903737ba103b30b634b2160b51b60648201526084016101cc565b92915050565b60006001600160a01b0382166106c65760405162461bcd60e51b815260206004820152603960248201527f4552433732313a2054686520737570706c696564206f776e657220616464726560448201527f7373206973206e6f7420612076616c696420616464726573730000000000000060648201526084016101cc565b506001600160a01b031660009081526002602052604090205490565b6000818152600160205260408120546001600160a01b03166107165760405162461bcd60e51b81526004016101cc9061084b565b6000610721836105ca565b9050806001600160a01b0316846001600160a01b0316148061075c5750836001600160a01b031661075184610157565b6001600160a01b0316145b949350505050565b60006020828403121561077657600080fd5b81356001600160e01b03198116811461078e57600080fd5b9392505050565b6000602082840312156107a757600080fd5b5035919050565b80356001600160a01b03811681146107c557600080fd5b919050565b600080604083850312156107dd57600080fd5b6107e6836107ae565b946020939093013593505050565b60008060006060848603121561080957600080fd5b610812846107ae565b9250610820602085016107ae565b9150604084013590509250925092565b60006020828403121561084257600080fd5b61078e826107ae565b6020808252602d908201527f4552433732313a2054686520737570706c6965642027746f6b656e496427206460408201526c1bd95cc81b9bdd08195e1a5cdd609a1b606082015260800190565b634e487b7160e01b600052601160045260246000fd5b6000828210156108c0576108c0610898565b500390565b600082198211156108d8576108d8610898565b50019056fea264697066735822122085eb6609f8f43768a323a777dc47aa34615c2f7fc66e9391e4a398cddcea7bfb64736f6c634300080b0033",
  "immutableReferences": {},
  "source": "// SPDX-License-Identifier: MIT\npragma solidity ^0.8.0;\n\nimport \"./interfaces/IERC721.sol\";\nimport \"./ERC165.sol\";\n\ncontract ERC721 is ERC165, IERC721 {\n    mapping(uint256 => address) private _tokenOwner;\n\n    mapping(address => uint256) private _OwnedTokensCount;\n\n    mapping(uint256 => address) private _tokenApprovals;\n\n    function balanceOf(address _owner) public view returns (uint256) {\n        require(\n            _owner != address(0),\n            \"ERC721: The supplied owner address is not a valid address\"\n        );\n\n        return _OwnedTokensCount[_owner];\n    }\n\n    function ownerOf(uint256 _tokenId) public view returns (address) {\n        address owner = _tokenOwner[_tokenId];\n\n        require(\n            owner != address(0),\n            \"ERC721: The supplied tokenId is not valid \"\n        );\n\n        return owner;\n    }\n\n    // function safeTransferFrom(\n    //     address _from,\n    //     address _to,\n    //     uint256 _tokenId,\n    //     bytes memory data\n    // ) external payable {}\n\n    // function safeTransferFrom(\n    //     address _from,\n    //     address _to,\n    //     uint256 _tokenId\n    // ) external payable {}\n\n    function transferFrom(\n        address _from,\n        address _to,\n        uint256 _tokenId\n    ) external payable {\n        require(\n            _isApprovedOrOwner(msg.sender, _tokenId),\n            \"ERC721: transfer caller is not owner nor approved\"\n        );\n        require(\n            _tokenExists(_tokenId),\n            \"ERC721: The supplied 'tokenId' does not exist\"\n        );\n        require(\n            _from == ownerOf(_tokenId),\n            \"ERC721: The supplied 'from' address is not the owner of the token\"\n        );\n        require(\n            _to != address(0),\n            \"ERC721: The supplied 'to' address is not a valid address\"\n        );\n\n        _OwnedTokensCount[_from] -= 1;\n        _OwnedTokensCount[_to] += 1;\n        _tokenOwner[_tokenId] = _to;\n\n        emit Transfer(_from, _to, _tokenId);\n    }\n\n    function approve(address _to, uint256 _tokenId) public payable {\n        address owner = ownerOf(_tokenId);\n\n        require(\n            msg.sender == owner,\n            \"ERC721: The message sender is not the owner of the token\"\n        );\n        require(\n            _to != owner,\n            \"ERC721: The supplied address is the owner of the token\"\n        );\n\n        _tokenApprovals[_tokenId] = _to;\n\n        emit Approval(owner, _to, _tokenId);\n    }\n\n    function getApproved(uint256 _tokenId) public view returns (address) {\n        require(\n            _tokenExists(_tokenId),\n            \"ERC721: approved query for nonexistent token\"\n        );\n\n        return _tokenApprovals[_tokenId];\n    }\n\n    function _isApprovedOrOwner(address _spender, uint256 _tokenId)\n        internal\n        view\n        returns (bool)\n    {\n        require(\n            _tokenExists(_tokenId),\n            \"ERC721: The supplied 'tokenId' does not exist\"\n        );\n\n        address owner = ownerOf(_tokenId);\n        return (_spender == owner || getApproved(_tokenId) == _spender);\n    }\n\n    function _tokenExists(uint256 _tokenId) internal view returns (bool) {\n        address owner = _tokenOwner[_tokenId];\n        return owner != address(0);\n    }\n\n    function _mint(address _to, uint256 _tokenId) internal virtual {\n        require(\n            _to != address(0),\n            \"ERC721: The supplied address is not a valid address\"\n        );\n        require(\n            !_tokenExists(_tokenId),\n            \"ERC721: The supplied 'tokenId' already exists\"\n        );\n\n        _tokenOwner[_tokenId] = _to;\n        _OwnedTokensCount[_to] += 1;\n\n        emit Transfer(address(0), _to, _tokenId);\n    }\n}\n",
  "sourcePath": "/Users/ghaieth/0.Dreamwear/dreamwear.github.io/ethereum/src/contracts/ERC721.sol",
  "compiler": {
    "name": "solc",
    "version": "0.8.11+commit.d7f03943.Emscripten.clang"
  },
  "schemaVersion": "3.4.4",
  "updatedAt": "2022-02-15T14:56:15.983Z",
  "devdoc": {
    "kind": "dev",
    "methods": {
      "supportsInterface(bytes4)": {
        "details": "Interface identification is specified in ERC-165. This function  uses less than 30,000 gas.",
        "params": {
          "interfaceID": "The interface identifier, as specified in ERC-165"
        },
        "returns": {
          "_0": "`true` if the contract implements `interfaceID` and  `interfaceID` is not 0xffffffff, `false` otherwise"
        }
      }
    },
    "version": 1
  },
  "userdoc": {
    "kind": "user",
    "methods": {
      "supportsInterface(bytes4)": {
        "notice": "Query if a contract implements an interface"
      }
    },
    "version": 1
  }
}