{
  "contractName": "ERC721Connector",
  "abi": [
    {
      "inputs": [
        {
          "internalType": "string",
          "name": "name",
          "type": "string"
        },
        {
          "internalType": "string",
          "name": "symbol",
          "type": "string"
        }
      ],
      "stateMutability": "nonpayable",
      "type": "constructor"
    },
    {
      "anonymous": false,
      "inputs": [
        {
          "indexed": true,
          "internalType": "address",
          "name": "_owner",
          "type": "address"
        },
        {
          "indexed": true,
          "internalType": "address",
          "name": "_approved",
          "type": "address"
        },
        {
          "indexed": true,
          "internalType": "uint256",
          "name": "_tokenId",
          "type": "uint256"
        }
      ],
      "name": "Approval",
      "type": "event"
    },
    {
      "anonymous": false,
      "inputs": [
        {
          "indexed": true,
          "internalType": "address",
          "name": "_owner",
          "type": "address"
        },
        {
          "indexed": true,
          "internalType": "address",
          "name": "_operator",
          "type": "address"
        },
        {
          "indexed": false,
          "internalType": "bool",
          "name": "_approved",
          "type": "bool"
        }
      ],
      "name": "ApprovalForAll",
      "type": "event"
    },
    {
      "anonymous": false,
      "inputs": [
        {
          "indexed": true,
          "internalType": "address",
          "name": "_from",
          "type": "address"
        },
        {
          "indexed": true,
          "internalType": "address",
          "name": "_to",
          "type": "address"
        },
        {
          "indexed": true,
          "internalType": "uint256",
          "name": "_tokenId",
          "type": "uint256"
        }
      ],
      "name": "Transfer",
      "type": "event"
    },
    {
      "inputs": [
        {
          "internalType": "address",
          "name": "_to",
          "type": "address"
        },
        {
          "internalType": "uint256",
          "name": "_tokenId",
          "type": "uint256"
        }
      ],
      "name": "approve",
      "outputs": [],
      "stateMutability": "payable",
      "type": "function"
    },
    {
      "inputs": [
        {
          "internalType": "address",
          "name": "_owner",
          "type": "address"
        }
      ],
      "name": "balanceOf",
      "outputs": [
        {
          "internalType": "uint256",
          "name": "",
          "type": "uint256"
        }
      ],
      "stateMutability": "view",
      "type": "function"
    },
    {
      "inputs": [
        {
          "internalType": "uint256",
          "name": "_tokenId",
          "type": "uint256"
        }
      ],
      "name": "getApproved",
      "outputs": [
        {
          "internalType": "address",
          "name": "",
          "type": "address"
        }
      ],
      "stateMutability": "view",
      "type": "function"
    },
    {
      "inputs": [
        {
          "internalType": "address",
          "name": "_owner",
          "type": "address"
        },
        {
          "internalType": "address",
          "name": "_operator",
          "type": "address"
        }
      ],
      "name": "isApprovedForAll",
      "outputs": [
        {
          "internalType": "bool",
          "name": "",
          "type": "bool"
        }
      ],
      "stateMutability": "view",
      "type": "function"
    },
    {
      "inputs": [],
      "name": "name",
      "outputs": [
        {
          "internalType": "string",
          "name": "",
          "type": "string"
        }
      ],
      "stateMutability": "view",
      "type": "function"
    },
    {
      "inputs": [
        {
          "internalType": "uint256",
          "name": "_tokenId",
          "type": "uint256"
        }
      ],
      "name": "ownerOf",
      "outputs": [
        {
          "internalType": "address",
          "name": "",
          "type": "address"
        }
      ],
      "stateMutability": "view",
      "type": "function"
    },
    {
      "inputs": [
        {
          "internalType": "address",
          "name": "_from",
          "type": "address"
        },
        {
          "internalType": "address",
          "name": "_to",
          "type": "address"
        },
        {
          "internalType": "uint256",
          "name": "_tokenId",
          "type": "uint256"
        }
      ],
      "name": "safeTransferFrom",
      "outputs": [],
      "stateMutability": "payable",
      "type": "function"
    },
    {
      "inputs": [
        {
          "internalType": "address",
          "name": "_from",
          "type": "address"
        },
        {
          "internalType": "address",
          "name": "_to",
          "type": "address"
        },
        {
          "internalType": "uint256",
          "name": "_tokenId",
          "type": "uint256"
        },
        {
          "internalType": "bytes",
          "name": "data",
          "type": "bytes"
        }
      ],
      "name": "safeTransferFrom",
      "outputs": [],
      "stateMutability": "payable",
      "type": "function"
    },
    {
      "inputs": [
        {
          "internalType": "address",
          "name": "_operator",
          "type": "address"
        },
        {
          "internalType": "bool",
          "name": "_approved",
          "type": "bool"
        }
      ],
      "name": "setApprovalForAll",
      "outputs": [],
      "stateMutability": "nonpayable",
      "type": "function"
    },
    {
      "inputs": [
        {
          "internalType": "bytes4",
          "name": "interfaceID",
          "type": "bytes4"
        }
      ],
      "name": "supportsInterface",
      "outputs": [
        {
          "internalType": "bool",
          "name": "",
          "type": "bool"
        }
      ],
      "stateMutability": "view",
      "type": "function"
    },
    {
      "inputs": [],
      "name": "symbol",
      "outputs": [
        {
          "internalType": "string",
          "name": "",
          "type": "string"
        }
      ],
      "stateMutability": "view",
      "type": "function"
    },
    {
      "inputs": [
        {
          "internalType": "uint256",
          "name": "_index",
          "type": "uint256"
        }
      ],
      "name": "tokenByIndex",
      "outputs": [
        {
          "internalType": "uint256",
          "name": "",
          "type": "uint256"
        }
      ],
      "stateMutability": "view",
      "type": "function"
    },
    {
      "inputs": [
        {
          "internalType": "address",
          "name": "_owner",
          "type": "address"
        },
        {
          "internalType": "uint256",
          "name": "_index",
          "type": "uint256"
        }
      ],
      "name": "tokenOfOwnerByIndex",
      "outputs": [
        {
          "internalType": "uint256",
          "name": "",
          "type": "uint256"
        }
      ],
      "stateMutability": "view",
      "type": "function"
    },
    {
      "inputs": [
        {
          "internalType": "uint256",
          "name": "_tokenId",
          "type": "uint256"
        }
      ],
      "name": "tokenURI",
      "outputs": [
        {
          "internalType": "string",
          "name": "",
          "type": "string"
        }
      ],
      "stateMutability": "view",
      "type": "function"
    },
    {
      "inputs": [],
      "name": "totalSupply",
      "outputs": [
        {
          "internalType": "uint256",
          "name": "",
          "type": "uint256"
        }
      ],
      "stateMutability": "view",
      "type": "function"
    },
    {
      "inputs": [
        {
          "internalType": "address",
          "name": "_from",
          "type": "address"
        },
        {
          "internalType": "address",
          "name": "_to",
          "type": "address"
        },
        {
          "internalType": "uint256",
          "name": "_tokenId",
          "type": "uint256"
        }
      ],
      "name": "transferFrom",
      "outputs": [],
      "stateMutability": "payable",
      "type": "function"
    }
  ],
  "bytecode": "0x60806040523480156200001157600080fd5b506040516200127138038062001271833981016040819052620000349162000311565b8181620000617f01ffc9a7a5cef8baa21ed3c5c0d7e23accb804b619e9333b597f47a0d84076e26200011a565b6200008c7f5b5e139fc6568dcbe817e85f5006fe073fedbf54f63f8f5c5db6f4b41a3451b66200011a565b8151620000a19060019060208501906200019e565b508051620000b79060029060208401906200019e565b50620000e791507f80ac58cdc1ec4bc2f227e52c5c332af7eb677d9b8c18a9bbe862269cba03a35c90506200011a565b620001127f780e9d631e748bd3b2cb04616c092832f76c29bf76677dc18f4bcbbd18ccb9bf6200011a565b5050620003b8565b6001600160e01b03198082161415620001795760405162461bcd60e51b815260206004820152601960248201527f4552433136353a20696e76616c696420696e7465726661636500000000000000604482015260640160405180910390fd5b6001600160e01b0319166000908152602081905260409020805460ff19166001179055565b828054620001ac906200037b565b90600052602060002090601f016020900481019282620001d057600085556200021b565b82601f10620001eb57805160ff19168380011785556200021b565b828001600101855582156200021b579182015b828111156200021b578251825591602001919060010190620001fe565b50620002299291506200022d565b5090565b5b808211156200022957600081556001016200022e565b634e487b7160e01b600052604160045260246000fd5b600082601f8301126200026c57600080fd5b81516001600160401b038082111562000289576200028962000244565b604051601f8301601f19908116603f01168101908282118183101715620002b457620002b462000244565b81604052838152602092508683858801011115620002d157600080fd5b600091505b83821015620002f55785820183015181830184015290820190620002d6565b83821115620003075760008385830101525b9695505050505050565b600080604083850312156200032557600080fd5b82516001600160401b03808211156200033d57600080fd5b6200034b868387016200025a565b935060208501519150808211156200036257600080fd5b5062000371858286016200025a565b9150509250929050565b600181811c908216806200039057607f821691505b60208210811415620003b257634e487b7160e01b600052602260045260246000fd5b50919050565b610ea980620003c86000396000f3fe6080604052600436106100f35760003560e01c80634f6ccce71161008a578063a22cb46511610059578063a22cb46514610290578063b88d4fde146102af578063c87b56dd146102c3578063e985e9c5146102e457600080fd5b80634f6ccce71461021b5780636352211e1461023b57806370a082311461025b57806395d89b411461027b57600080fd5b806318160ddd116100c657806318160ddd146101b657806323b872dd146101d55780632f745c59146101e857806342842e0e1461020857600080fd5b806301ffc9a7146100f857806306fdde0314610147578063081812fc14610169578063095ea7b3146101a1575b600080fd5b34801561010457600080fd5b50610132610113366004610af3565b6001600160e01b03191660009081526020819052604090205460ff1690565b60405190151581526020015b60405180910390f35b34801561015357600080fd5b5061015c610307565b60405161013e9190610b24565b34801561017557600080fd5b50610189610184366004610b79565b610399565b6040516001600160a01b03909116815260200161013e565b6101b46101af366004610bae565b610433565b005b3480156101c257600080fd5b506006545b60405190815260200161013e565b6101b46101e3366004610bd8565b61059b565b3480156101f457600080fd5b506101c7610203366004610bae565b61080c565b6101b4610216366004610bd8565b505050565b34801561022757600080fd5b506101c7610236366004610b79565b6108b9565b34801561024757600080fd5b50610189610256366004610b79565b61094a565b34801561026757600080fd5b506101c7610276366004610c14565b6109c8565b34801561028757600080fd5b5061015c610a62565b34801561029c57600080fd5b506101b46102ab366004610c2f565b5050565b6101b46102bd366004610c81565b50505050565b3480156102cf57600080fd5b5061015c6102de366004610b79565b50606090565b3480156102f057600080fd5b506101326102ff366004610d5d565b600092915050565b60606001805461031690610d90565b80601f016020809104026020016040519081016040528092919081815260200182805461034290610d90565b801561038f5780601f106103645761010080835404028352916020019161038f565b820191906000526020600020905b81548152906001019060200180831161037257829003601f168201915b5050505050905090565b6000818152600360205260408120546001600160a01b03166104175760405162461bcd60e51b815260206004820152602c60248201527f4552433732313a20617070726f76656420717565727920666f72206e6f6e657860448201526b34b9ba32b73a103a37b5b2b760a11b60648201526084015b60405180910390fd5b506000908152600560205260409020546001600160a01b031690565b600061043e8261094a565b9050336001600160a01b038216146104be5760405162461bcd60e51b815260206004820152603860248201527f4552433732313a20546865206d6573736167652073656e646572206973206e6f60448201527f7420746865206f776e6572206f662074686520746f6b656e0000000000000000606482015260840161040e565b806001600160a01b0316836001600160a01b0316141561053f5760405162461bcd60e51b815260206004820152603660248201527f4552433732313a2054686520737570706c6965642061646472657373206973206044820152753a34329037bbb732b91037b3103a3432903a37b5b2b760511b606482015260840161040e565b60008281526005602052604080822080546001600160a01b0319166001600160a01b0387811691821790925591518593918516917f8c5be1e5ebec7d5bd14f71427d1e84f3dd0314c0f7b2291e5b200ac8c7c3b92591a4505050565b6105a53382610a71565b61060b5760405162461bcd60e51b815260206004820152603160248201527f4552433732313a207472616e736665722063616c6c6572206973206e6f74206f6044820152701ddb995c881b9bdc88185c1c1c9bdd9959607a1b606482015260840161040e565b6000818152600360205260409020546001600160a01b031661063f5760405162461bcd60e51b815260040161040e90610dcb565b6106488161094a565b6001600160a01b0316836001600160a01b0316146106d85760405162461bcd60e51b815260206004820152604160248201527f4552433732313a2054686520737570706c696564202766726f6d27206164647260448201527f657373206973206e6f7420746865206f776e6572206f662074686520746f6b656064820152603760f91b608482015260a40161040e565b6001600160a01b0382166107545760405162461bcd60e51b815260206004820152603860248201527f4552433732313a2054686520737570706c6965642027746f272061646472657360448201527f73206973206e6f7420612076616c696420616464726573730000000000000000606482015260840161040e565b6001600160a01b038316600090815260046020526040812080546001929061077d908490610e2e565b90915550506001600160a01b03821660009081526004602052604081208054600192906107ab908490610e45565b909155505060008181526003602052604080822080546001600160a01b0319166001600160a01b0386811691821790925591518493918716917fddf252ad1be2c89b69c2b068fc378daa952ba7f163c4a11628f55a4df523b3ef91a4505050565b6000610817836109c8565b821061087c5760405162461bcd60e51b815260206004820152602e60248201527f455243373231456e756d657261626c653a206f776e657220696e64657820697360448201526d206f7574206f6620626f756e647360901b606482015260840161040e565b6001600160a01b03831660009081526008602052604090208054839081106108a6576108a6610e5d565b9060005260206000200154905092915050565b60065460009082106109255760405162461bcd60e51b815260206004820152602f60248201527f455243373231456e756d657261626c653a20676c6f62616c20696e646578206960448201526e73206f7574206f6620626f756e647360881b606482015260840161040e565b6006828154811061093857610938610e5d565b90600052602060002001549050919050565b6000818152600360205260408120546001600160a01b0316806109c25760405162461bcd60e51b815260206004820152602a60248201527f4552433732313a2054686520737570706c69656420746f6b656e49642069732060448201526903737ba103b30b634b2160b51b606482015260840161040e565b92915050565b60006001600160a01b038216610a465760405162461bcd60e51b815260206004820152603960248201527f4552433732313a2054686520737570706c696564206f776e657220616464726560448201527f7373206973206e6f7420612076616c6964206164647265737300000000000000606482015260840161040e565b506001600160a01b031660009081526004602052604090205490565b60606002805461031690610d90565b6000818152600360205260408120546001600160a01b0316610aa55760405162461bcd60e51b815260040161040e90610dcb565b6000610ab08361094a565b9050806001600160a01b0316846001600160a01b03161480610aeb5750836001600160a01b0316610ae084610399565b6001600160a01b0316145b949350505050565b600060208284031215610b0557600080fd5b81356001600160e01b031981168114610b1d57600080fd5b9392505050565b600060208083528351808285015260005b81811015610b5157858101830151858201604001528201610b35565b81811115610b63576000604083870101525b50601f01601f1916929092016040019392505050565b600060208284031215610b8b57600080fd5b5035919050565b80356001600160a01b0381168114610ba957600080fd5b919050565b60008060408385031215610bc157600080fd5b610bca83610b92565b946020939093013593505050565b600080600060608486031215610bed57600080fd5b610bf684610b92565b9250610c0460208501610b92565b9150604084013590509250925092565b600060208284031215610c2657600080fd5b610b1d82610b92565b60008060408385031215610c4257600080fd5b610c4b83610b92565b915060208301358015158114610c6057600080fd5b809150509250929050565b634e487b7160e01b600052604160045260246000fd5b60008060008060808587031215610c9757600080fd5b610ca085610b92565b9350610cae60208601610b92565b925060408501359150606085013567ffffffffffffffff80821115610cd257600080fd5b818701915087601f830112610ce657600080fd5b813581811115610cf857610cf8610c6b565b604051601f8201601f19908116603f01168101908382118183101715610d2057610d20610c6b565b816040528281528a6020848701011115610d3957600080fd5b82602086016020830137600060208483010152809550505050505092959194509250565b60008060408385031215610d7057600080fd5b610d7983610b92565b9150610d8760208401610b92565b90509250929050565b600181811c90821680610da457607f821691505b60208210811415610dc557634e487b7160e01b600052602260045260246000fd5b50919050565b6020808252602d908201527f4552433732313a2054686520737570706c6965642027746f6b656e496427206460408201526c1bd95cc81b9bdd08195e1a5cdd609a1b606082015260800190565b634e487b7160e01b600052601160045260246000fd5b600082821015610e4057610e40610e18565b500390565b60008219821115610e5857610e58610e18565b500190565b634e487b7160e01b600052603260045260246000fdfea26469706673582212207cf3097d8c0a4ba537d1ef1f4a8cc856ab50b62cdae0b5a7cc206f66d56914cc64736f6c634300080b0033",
  "immutableReferences": {},
  "source": "// SPDX-License-Identifier: MIT\npragma solidity ^0.8.0;\n\nimport \"./ERC721Metadata.sol\";\nimport \"./ERC721Enumerable.sol\";\n\ncontract ERC721Connector is ERC721Metadata, ERC721Enumerable {\n    constructor(string memory name, string memory symbol)\n        ERC721Metadata(name, symbol)\n    {}\n}\n",
  "sourcePath": "/Users/ghaieth/0.Dreamwear/dreamwear.github.io/ethereum/src/contracts/ERC721Connector.sol",
  "compiler": {
    "name": "solc",
    "version": "0.8.11+commit.d7f03943.Emscripten.clang"
  },
  "schemaVersion": "3.4.4",
  "updatedAt": "2022-02-15T15:40:15.767Z",
  "devdoc": {
    "kind": "dev",
    "methods": {
      "supportsInterface(bytes4)": {
        "details": "Interface identification is specified in ERC-165. This function  uses less than 30,000 gas.",
        "params": {
          "interfaceID": "The interface identifier, as specified in ERC-165"
        },
        "returns": {
          "_0": "`true` if the contract implements `interfaceID` and  `interfaceID` is not 0xffffffff, `false` otherwise"
        }
      }
    },
    "version": 1
  },
  "userdoc": {
    "kind": "user",
    "methods": {
      "supportsInterface(bytes4)": {
        "notice": "Query if a contract implements an interface"
      }
    },
    "version": 1
  }
}