{
  "contractName": "ERC721Enumerable",
  "abi": [
    {
      "anonymous": false,
      "inputs": [
        {
          "indexed": true,
          "internalType": "address",
          "name": "_owner",
          "type": "address"
        },
        {
          "indexed": true,
          "internalType": "address",
          "name": "_approved",
          "type": "address"
        },
        {
          "indexed": true,
          "internalType": "uint256",
          "name": "_tokenId",
          "type": "uint256"
        }
      ],
      "name": "Approval",
      "type": "event"
    },
    {
      "anonymous": false,
      "inputs": [
        {
          "indexed": true,
          "internalType": "address",
          "name": "_owner",
          "type": "address"
        },
        {
          "indexed": true,
          "internalType": "address",
          "name": "_operator",
          "type": "address"
        },
        {
          "indexed": false,
          "internalType": "bool",
          "name": "_approved",
          "type": "bool"
        }
      ],
      "name": "ApprovalForAll",
      "type": "event"
    },
    {
      "anonymous": false,
      "inputs": [
        {
          "indexed": true,
          "internalType": "address",
          "name": "_from",
          "type": "address"
        },
        {
          "indexed": true,
          "internalType": "address",
          "name": "_to",
          "type": "address"
        },
        {
          "indexed": true,
          "internalType": "uint256",
          "name": "_tokenId",
          "type": "uint256"
        }
      ],
      "name": "Transfer",
      "type": "event"
    },
    {
      "inputs": [
        {
          "internalType": "address",
          "name": "_to",
          "type": "address"
        },
        {
          "internalType": "uint256",
          "name": "_tokenId",
          "type": "uint256"
        }
      ],
      "name": "approve",
      "outputs": [],
      "stateMutability": "payable",
      "type": "function"
    },
    {
      "inputs": [
        {
          "internalType": "address",
          "name": "_owner",
          "type": "address"
        }
      ],
      "name": "balanceOf",
      "outputs": [
        {
          "internalType": "uint256",
          "name": "",
          "type": "uint256"
        }
      ],
      "stateMutability": "view",
      "type": "function"
    },
    {
      "inputs": [
        {
          "internalType": "uint256",
          "name": "_tokenId",
          "type": "uint256"
        }
      ],
      "name": "getApproved",
      "outputs": [
        {
          "internalType": "address",
          "name": "",
          "type": "address"
        }
      ],
      "stateMutability": "view",
      "type": "function"
    },
    {
      "inputs": [
        {
          "internalType": "uint256",
          "name": "_tokenId",
          "type": "uint256"
        }
      ],
      "name": "ownerOf",
      "outputs": [
        {
          "internalType": "address",
          "name": "",
          "type": "address"
        }
      ],
      "stateMutability": "view",
      "type": "function"
    },
    {
      "inputs": [
        {
          "internalType": "bytes4",
          "name": "interfaceID",
          "type": "bytes4"
        }
      ],
      "name": "supportsInterface",
      "outputs": [
        {
          "internalType": "bool",
          "name": "",
          "type": "bool"
        }
      ],
      "stateMutability": "view",
      "type": "function"
    },
    {
      "inputs": [
        {
          "internalType": "address",
          "name": "_from",
          "type": "address"
        },
        {
          "internalType": "address",
          "name": "_to",
          "type": "address"
        },
        {
          "internalType": "uint256",
          "name": "_tokenId",
          "type": "uint256"
        }
      ],
      "name": "transferFrom",
      "outputs": [],
      "stateMutability": "payable",
      "type": "function"
    },
    {
      "inputs": [],
      "name": "totalSupply",
      "outputs": [
        {
          "internalType": "uint256",
          "name": "",
          "type": "uint256"
        }
      ],
      "stateMutability": "view",
      "type": "function"
    },
    {
      "inputs": [
        {
          "internalType": "uint256",
          "name": "_index",
          "type": "uint256"
        }
      ],
      "name": "tokenByIndex",
      "outputs": [
        {
          "internalType": "uint256",
          "name": "",
          "type": "uint256"
        }
      ],
      "stateMutability": "view",
      "type": "function"
    },
    {
      "inputs": [
        {
          "internalType": "address",
          "name": "_owner",
          "type": "address"
        },
        {
          "internalType": "uint256",
          "name": "_index",
          "type": "uint256"
        }
      ],
      "name": "tokenOfOwnerByIndex",
      "outputs": [
        {
          "internalType": "uint256",
          "name": "",
          "type": "uint256"
        }
      ],
      "stateMutability": "view",
      "type": "function"
    }
  ],
  "bytecode": "0x608060405234801561001057600080fd5b5061003a7f01ffc9a7a5cef8baa21ed3c5c0d7e23accb804b619e9333b597f47a0d84076e261003f565b6100c2565b6001600160e01b0319808216141561009d5760405162461bcd60e51b815260206004820152601960248201527f4552433136353a20696e76616c696420696e7465726661636500000000000000604482015260640160405180910390fd5b6001600160e01b0319166000908152602081905260409020805460ff19166001179055565b610ae9806100d16000396000f3fe6080604052600436106100865760003560e01c806323b872dd1161005957806323b872dd146101465780632f745c59146101595780634f6ccce7146101795780636352211e1461019957806370a08231146101b957600080fd5b806301ffc9a71461008b578063081812fc146100da578063095ea7b31461011257806318160ddd14610127575b600080fd5b34801561009757600080fd5b506100c56100a6366004610924565b6001600160e01b03191660009081526020819052604090205460ff1690565b60405190151581526020015b60405180910390f35b3480156100e657600080fd5b506100fa6100f5366004610955565b6101d9565b6040516001600160a01b0390911681526020016100d1565b61012561012036600461098a565b610273565b005b34801561013357600080fd5b506004545b6040519081526020016100d1565b6101256101543660046109b4565b6103db565b34801561016557600080fd5b5061013861017436600461098a565b61064c565b34801561018557600080fd5b50610138610194366004610955565b6106f9565b3480156101a557600080fd5b506100fa6101b4366004610955565b61078a565b3480156101c557600080fd5b506101386101d43660046109f0565b610808565b6000818152600160205260408120546001600160a01b03166102575760405162461bcd60e51b815260206004820152602c60248201527f4552433732313a20617070726f76656420717565727920666f72206e6f6e657860448201526b34b9ba32b73a103a37b5b2b760a11b60648201526084015b60405180910390fd5b506000908152600360205260409020546001600160a01b031690565b600061027e8261078a565b9050336001600160a01b038216146102fe5760405162461bcd60e51b815260206004820152603860248201527f4552433732313a20546865206d6573736167652073656e646572206973206e6f60448201527f7420746865206f776e6572206f662074686520746f6b656e0000000000000000606482015260840161024e565b806001600160a01b0316836001600160a01b0316141561037f5760405162461bcd60e51b815260206004820152603660248201527f4552433732313a2054686520737570706c6965642061646472657373206973206044820152753a34329037bbb732b91037b3103a3432903a37b5b2b760511b606482015260840161024e565b60008281526003602052604080822080546001600160a01b0319166001600160a01b0387811691821790925591518593918516917f8c5be1e5ebec7d5bd14f71427d1e84f3dd0314c0f7b2291e5b200ac8c7c3b92591a4505050565b6103e533826108a2565b61044b5760405162461bcd60e51b815260206004820152603160248201527f4552433732313a207472616e736665722063616c6c6572206973206e6f74206f6044820152701ddb995c881b9bdc88185c1c1c9bdd9959607a1b606482015260840161024e565b6000818152600160205260409020546001600160a01b031661047f5760405162461bcd60e51b815260040161024e90610a0b565b6104888161078a565b6001600160a01b0316836001600160a01b0316146105185760405162461bcd60e51b815260206004820152604160248201527f4552433732313a2054686520737570706c696564202766726f6d27206164647260448201527f657373206973206e6f7420746865206f776e6572206f662074686520746f6b656064820152603760f91b608482015260a40161024e565b6001600160a01b0382166105945760405162461bcd60e51b815260206004820152603860248201527f4552433732313a2054686520737570706c6965642027746f272061646472657360448201527f73206973206e6f7420612076616c696420616464726573730000000000000000606482015260840161024e565b6001600160a01b03831660009081526002602052604081208054600192906105bd908490610a6e565b90915550506001600160a01b03821660009081526002602052604081208054600192906105eb908490610a85565b909155505060008181526001602052604080822080546001600160a01b0319166001600160a01b0386811691821790925591518493918716917fddf252ad1be2c89b69c2b068fc378daa952ba7f163c4a11628f55a4df523b3ef91a4505050565b600061065783610808565b82106106bc5760405162461bcd60e51b815260206004820152602e60248201527f455243373231456e756d657261626c653a206f776e657220696e64657820697360448201526d206f7574206f6620626f756e647360901b606482015260840161024e565b6001600160a01b03831660009081526006602052604090208054839081106106e6576106e6610a9d565b9060005260206000200154905092915050565b60045460009082106107655760405162461bcd60e51b815260206004820152602f60248201527f455243373231456e756d657261626c653a20676c6f62616c20696e646578206960448201526e73206f7574206f6620626f756e647360881b606482015260840161024e565b6004828154811061077857610778610a9d565b90600052602060002001549050919050565b6000818152600160205260408120546001600160a01b0316806108025760405162461bcd60e51b815260206004820152602a60248201527f4552433732313a2054686520737570706c69656420746f6b656e49642069732060448201526903737ba103b30b634b2160b51b606482015260840161024e565b92915050565b60006001600160a01b0382166108865760405162461bcd60e51b815260206004820152603960248201527f4552433732313a2054686520737570706c696564206f776e657220616464726560448201527f7373206973206e6f7420612076616c6964206164647265737300000000000000606482015260840161024e565b506001600160a01b031660009081526002602052604090205490565b6000818152600160205260408120546001600160a01b03166108d65760405162461bcd60e51b815260040161024e90610a0b565b60006108e18361078a565b9050806001600160a01b0316846001600160a01b0316148061091c5750836001600160a01b0316610911846101d9565b6001600160a01b0316145b949350505050565b60006020828403121561093657600080fd5b81356001600160e01b03198116811461094e57600080fd5b9392505050565b60006020828403121561096757600080fd5b5035919050565b80356001600160a01b038116811461098557600080fd5b919050565b6000806040838503121561099d57600080fd5b6109a68361096e565b946020939093013593505050565b6000806000606084860312156109c957600080fd5b6109d28461096e565b92506109e06020850161096e565b9150604084013590509250925092565b600060208284031215610a0257600080fd5b61094e8261096e565b6020808252602d908201527f4552433732313a2054686520737570706c6965642027746f6b656e496427206460408201526c1bd95cc81b9bdd08195e1a5cdd609a1b606082015260800190565b634e487b7160e01b600052601160045260246000fd5b600082821015610a8057610a80610a58565b500390565b60008219821115610a9857610a98610a58565b500190565b634e487b7160e01b600052603260045260246000fdfea2646970667358221220b5d42240e52115089f0ab4ac9f6298500c10e4ef1f52091efa5394ec1a578ead64736f6c634300080b0033",
  "immutableReferences": {},
  "source": "// SPDX-License-Identifier: MIT\npragma solidity ^0.8.0;\n\nimport \"./interfaces/IERC721Enumerable.sol\";\nimport \"./ERC721.sol\";\n\ncontract ERC721Enumerable is IERC721Enumerable, ERC721 {\n    uint256[] private _allTokens;\n\n    mapping(uint256 => uint256) private _allTokensIndex;\n\n    mapping(address => uint256[]) private _ownedTokens;\n\n    mapping(uint256 => uint256) private _ownedTokensIndex;\n\n    function totalSupply() external view returns (uint256) {\n        return _allTokens.length;\n    }\n\n    function tokenByIndex(uint256 _index) external view returns (uint256) {\n        require(\n            _index < _allTokens.length,\n            \"ERC721Enumerable: global index is out of bounds\"\n        );\n        return _allTokens[_index];\n    }\n\n    function tokenOfOwnerByIndex(address _owner, uint256 _index)\n        external\n        view\n        returns (uint256)\n    {\n        require(\n            _index < balanceOf(_owner),\n            \"ERC721Enumerable: owner index is out of bounds\"\n        );\n        return _ownedTokens[_owner][_index];\n    }\n\n    function _mint(address to, uint256 tokenId) internal override(ERC721) {\n        super._mint(to, tokenId);\n        _addTokenToAllTokens(tokenId);\n        _addTokenToOwnedTokens(to, tokenId);\n    }\n\n    function _addTokenToAllTokens(uint256 tokenId) private {\n        _allTokensIndex[tokenId] = _allTokens.length;\n        _allTokens.push(tokenId);\n    }\n\n    function _addTokenToOwnedTokens(address to, uint256 tokenId) private {\n        _ownedTokens[to].push(tokenId);\n        _ownedTokensIndex[tokenId] = _ownedTokens[to].length;\n    }\n}\n",
  "sourcePath": "/Users/ghaieth/0.Dreamwear/dreamwear.github.io/ethereum/src/contracts/ERC721Enumerable.sol",
  "compiler": {
    "name": "solc",
    "version": "0.8.11+commit.d7f03943.Emscripten.clang"
  },
  "schemaVersion": "3.4.4",
  "updatedAt": "2022-02-15T14:56:16.001Z",
  "devdoc": {
    "kind": "dev",
    "methods": {
      "supportsInterface(bytes4)": {
        "details": "Interface identification is specified in ERC-165. This function  uses less than 30,000 gas.",
        "params": {
          "interfaceID": "The interface identifier, as specified in ERC-165"
        },
        "returns": {
          "_0": "`true` if the contract implements `interfaceID` and  `interfaceID` is not 0xffffffff, `false` otherwise"
        }
      }
    },
    "version": 1
  },
  "userdoc": {
    "kind": "user",
    "methods": {
      "supportsInterface(bytes4)": {
        "notice": "Query if a contract implements an interface"
      }
    },
    "version": 1
  }
}