{
  "contractName": "ERC721Connector",
  "abi": [
    {
      "inputs": [
        {
          "internalType": "string",
          "name": "name",
          "type": "string"
        },
        {
          "internalType": "string",
          "name": "symbol",
          "type": "string"
        }
      ],
      "stateMutability": "nonpayable",
      "type": "constructor"
    },
    {
      "anonymous": false,
      "inputs": [
        {
          "indexed": true,
          "internalType": "address",
          "name": "from",
          "type": "address"
        },
        {
          "indexed": true,
          "internalType": "address",
          "name": "to",
          "type": "address"
        },
        {
          "indexed": true,
          "internalType": "uint256",
          "name": "tokenId",
          "type": "uint256"
        }
      ],
      "name": "Transfer",
      "type": "event"
    },
    {
      "inputs": [
        {
          "internalType": "address",
          "name": "_owner",
          "type": "address"
        }
      ],
      "name": "balanceOf",
      "outputs": [
        {
          "internalType": "uint256",
          "name": "",
          "type": "uint256"
        }
      ],
      "stateMutability": "view",
      "type": "function"
    },
    {
      "inputs": [],
      "name": "name",
      "outputs": [
        {
          "internalType": "string",
          "name": "",
          "type": "string"
        }
      ],
      "stateMutability": "view",
      "type": "function"
    },
    {
      "inputs": [
        {
          "internalType": "uint256",
          "name": "_tokenId",
          "type": "uint256"
        }
      ],
      "name": "ownerOf",
      "outputs": [
        {
          "internalType": "address",
          "name": "",
          "type": "address"
        }
      ],
      "stateMutability": "view",
      "type": "function"
    },
    {
      "inputs": [],
      "name": "symbol",
      "outputs": [
        {
          "internalType": "string",
          "name": "",
          "type": "string"
        }
      ],
      "stateMutability": "view",
      "type": "function"
    },
    {
      "inputs": [
        {
          "internalType": "uint256",
          "name": "_index",
          "type": "uint256"
        }
      ],
      "name": "tokenByIndex",
      "outputs": [
        {
          "internalType": "uint256",
          "name": "",
          "type": "uint256"
        }
      ],
      "stateMutability": "view",
      "type": "function"
    },
    {
      "inputs": [
        {
          "internalType": "address",
          "name": "_owner",
          "type": "address"
        },
        {
          "internalType": "uint256",
          "name": "_index",
          "type": "uint256"
        }
      ],
      "name": "tokenOfOwnerByIndex",
      "outputs": [
        {
          "internalType": "uint256",
          "name": "",
          "type": "uint256"
        }
      ],
      "stateMutability": "view",
      "type": "function"
    },
    {
      "inputs": [],
      "name": "totalSupply",
      "outputs": [
        {
          "internalType": "uint256",
          "name": "",
          "type": "uint256"
        }
      ],
      "stateMutability": "view",
      "type": "function"
    },
    {
      "inputs": [
        {
          "internalType": "address",
          "name": "_from",
          "type": "address"
        },
        {
          "internalType": "address",
          "name": "_to",
          "type": "address"
        },
        {
          "internalType": "uint256",
          "name": "_tokenId",
          "type": "uint256"
        }
      ],
      "name": "transferFrom",
      "outputs": [],
      "stateMutability": "payable",
      "type": "function"
    }
  ],
  "bytecode": "0x60806040523480156200001157600080fd5b5060405162000b7838038062000b788339810160408190526200003491620001e1565b8151829082906200004d9060009060208501906200006e565b508051620000639060019060208401906200006e565b505050505062000288565b8280546200007c906200024b565b90600052602060002090601f016020900481019282620000a05760008555620000eb565b82601f10620000bb57805160ff1916838001178555620000eb565b82800160010185558215620000eb579182015b82811115620000eb578251825591602001919060010190620000ce565b50620000f9929150620000fd565b5090565b5b80821115620000f95760008155600101620000fe565b634e487b7160e01b600052604160045260246000fd5b600082601f8301126200013c57600080fd5b81516001600160401b038082111562000159576200015962000114565b604051601f8301601f19908116603f0116810190828211818310171562000184576200018462000114565b81604052838152602092508683858801011115620001a157600080fd5b600091505b83821015620001c55785820183015181830184015290820190620001a6565b83821115620001d75760008385830101525b9695505050505050565b60008060408385031215620001f557600080fd5b82516001600160401b03808211156200020d57600080fd5b6200021b868387016200012a565b935060208501519150808211156200023257600080fd5b5062000241858286016200012a565b9150509250929050565b600181811c908216806200026057607f821691505b602082108114156200028257634e487b7160e01b600052602260045260246000fd5b50919050565b6108e080620002986000396000f3fe60806040526004361061007b5760003560e01c80634f6ccce71161004e5780634f6ccce7146100ff5780636352211e1461011f57806370a082311461015757806395d89b411461017757600080fd5b806306fdde031461008057806318160ddd146100ab57806323b872dd146100ca5780632f745c59146100df575b600080fd5b34801561008c57600080fd5b5061009561018c565b6040516100a29190610702565b60405180910390f35b3480156100b757600080fd5b506005545b6040519081526020016100a2565b6100dd6100d8366004610773565b61021e565b005b3480156100eb57600080fd5b506100bc6100fa3660046107af565b6104d4565b34801561010b57600080fd5b506100bc61011a3660046107d9565b610576565b34801561012b57600080fd5b5061013f61013a3660046107d9565b6105fd565b6040516001600160a01b0390911681526020016100a2565b34801561016357600080fd5b506100bc6101723660046107f2565b610673565b34801561018357600080fd5b506100956106f3565b60606000805461019b90610814565b80601f01602080910402602001604051908101604052809291908181526020018280546101c790610814565b80156102145780601f106101e957610100808354040283529160200191610214565b820191906000526020600020905b8154815290600101906020018083116101f757829003601f168201915b5050505050905090565b6000818152600260205260409020546001600160a01b031661029d5760405162461bcd60e51b815260206004820152602d60248201527f4552433732313a2054686520737570706c6965642027746f6b656e496427206460448201526c1bd95cc81b9bdd08195e1a5cdd609a1b60648201526084015b60405180910390fd5b6102a6816105fd565b6001600160a01b0316336001600160a01b03161461031a5760405162461bcd60e51b815260206004820152602b60248201527f4552433732313a20546865206d6573736167652073656e646572206973206e6f60448201526a3a103a34329037bbb732b960a91b6064820152608401610294565b610323816105fd565b6001600160a01b0316836001600160a01b0316146103a05760405162461bcd60e51b815260206004820152603460248201527f4552433732313a2054686520737570706c696564202766726f6d27206164647260448201527332b9b99034b9903737ba103a34329037bbb732b960611b6064820152608401610294565b6001600160a01b03821661041c5760405162461bcd60e51b815260206004820152603860248201527f4552433732313a2054686520737570706c6965642027746f272061646472657360448201527f73206973206e6f7420612076616c6964206164647265737300000000000000006064820152608401610294565b6001600160a01b0383166000908152600360205260408120805460019290610445908490610865565b90915550506001600160a01b038216600090815260036020526040812080546001929061047390849061087c565b909155505060008181526002602052604080822080546001600160a01b0319166001600160a01b0386811691821790925591518493918716917fddf252ad1be2c89b69c2b068fc378daa952ba7f163c4a11628f55a4df523b3ef91a4505050565b60006104df83610673565b82106105395760405162461bcd60e51b8152602060048201526024808201527f4552433732313a206f776e657220696e646578206973206f7574206f6620626f604482015263756e647360e01b6064820152608401610294565b6001600160a01b038316600090815260076020526040902080548390811061056357610563610894565b9060005260206000200154905092915050565b60055460009082106105d85760405162461bcd60e51b815260206004820152602560248201527f4552433732313a20676c6f62616c20696e646578206973206f7574206f6620626044820152646f756e647360d81b6064820152608401610294565b600582815481106105eb576105eb610894565b90600052602060002001549050919050565b6000818152600260205260408120546001600160a01b03168061066d5760405162461bcd60e51b815260206004820152602260248201527f4552433732313a207175657269656420746f6b656e206973206e6f742076616c6044820152611a5960f21b6064820152608401610294565b92915050565b60006001600160a01b0382166106d75760405162461bcd60e51b8152602060048201526024808201527f4552433732313a20717565726965642061646472657373206973206e6f742076604482015263185b1a5960e21b6064820152608401610294565b506001600160a01b031660009081526003602052604090205490565b60606001805461019b90610814565b600060208083528351808285015260005b8181101561072f57858101830151858201604001528201610713565b81811115610741576000604083870101525b50601f01601f1916929092016040019392505050565b80356001600160a01b038116811461076e57600080fd5b919050565b60008060006060848603121561078857600080fd5b61079184610757565b925061079f60208501610757565b9150604084013590509250925092565b600080604083850312156107c257600080fd5b6107cb83610757565b946020939093013593505050565b6000602082840312156107eb57600080fd5b5035919050565b60006020828403121561080457600080fd5b61080d82610757565b9392505050565b600181811c9082168061082857607f821691505b6020821081141561084957634e487b7160e01b600052602260045260246000fd5b50919050565b634e487b7160e01b600052601160045260246000fd5b6000828210156108775761087761084f565b500390565b6000821982111561088f5761088f61084f565b500190565b634e487b7160e01b600052603260045260246000fdfea26469706673582212207dd6b1f8b8cd02d2b457123e9d555cf0b8a0e243431d42b3cb425b8db7ffd4fa64736f6c634300080b0033",
  "immutableReferences": {},
  "source": "// SPDX-License-Identifier: MIT\npragma solidity ^0.8.0;\n\nimport \"./ERC721Metadata.sol\";\nimport \"./ERC721Enumerable.sol\";\n\ncontract ERC721Connector is ERC721Metadata, ERC721Enumerable {\n    constructor(string memory name, string memory symbol)\n        ERC721Metadata(name, symbol)\n    {}\n}\n",
  "sourcePath": "/Users/ghaieth/0.Dreamwear/nft-marketplace/src/contracts/ERC721Connector.sol",
  "compiler": {
    "name": "solc",
    "version": "0.8.11+commit.d7f03943.Emscripten.clang"
  },
  "schemaVersion": "3.4.4",
  "updatedAt": "2022-02-09T16:26:30.316Z",
  "devdoc": {
    "kind": "dev",
    "methods": {},
    "version": 1
  },
  "userdoc": {
    "kind": "user",
    "methods": {},
    "version": 1
  }
}